:100000000C94E0000C94F2000C94F2000C94F200BA
:100010000C94F2000C94F2000C94F2000C94F20098
:100020000C94F2000C94F2000C946F0D0C943E0EA4
:100030000C94F2000C94F2000C94F2000C94F20078
:100040000C94F2000C94F2000C94F2000C94F20068
:100050000C94F2000C94F2000C94F2000C94F20058
:100060000C94F2000C94F2000C94F2000C94F20048
:100070000C94F2000C94F2000C94F2000C94F20038
:100080000C94F2000C94F2000C94F2000C94F20028
:100090000C94F2000C94F2000C94F2000C94F20018
:1000A0000C94F2000C94F2000C94F20001C13601A1
:1000B000C03601C126001201000200000010C01667
:1000C000800400010102000106ABFF0A0002A10149
:1000D0007508150026FF0095400901810295400929
:1000E000029102C00631FF0974A15375081500265C
:1000F000FF00952009758102C0090242000201003B
:10010000C0320904000002030000000921110100AF
:1001100001221C000705810340000207050203407D
:100120000008090401000103000000092111010079
:1001300001221500070583032000010403090410B0
:10014000034D00660067004E0061006D0065000011
:10015000002E035400650065006E007300790020D6
:100160000052006100770020004800490044002050
:10017000004500780061006D0070006C00650000B3
:100180000000010000B6001200020000F900420069
:10019000220000C8001C002100000B010900220100
:1001A00000E40015002101002B0109000300003BC1
:1001B0000104010309043F01100203090451012E47
:1001C00011241FBECFEFDAE0DEBFCDBF12E0A0E00A
:1001D000B1E001C01D92A73AB107E1F70E948A037E
:1001E0000C947E110C940000DF93CF93CDB7DEB753
:1001F00087EA91E060E070E040E051E00E94771112
:1002000086E291E060E070E040E850E00E94771103
:100210001092A60110920901109208011092070194
:1002200010922201109223011092240110922501B4
:100230008AE091E00E94250180E291E00E94110491
:1002400010920501CF91DF910895EF92FF920F93E5
:100250001F93DF93CF9300D000D0CDB7DEB79C8340
:100260008B831A8219828EEE0E947A048AEA0E9497
:10027000F2048FEE0E94CE041A82198234C0898162
:100280009A81880F991F2B813C818901080F191FC2
:100290000E941A05882F90E0F8019183808389815C
:1002A0009A81880F991F2B813C818901080F191FA2
:1002B00089819A81880F991F2B813C81820F931F1E
:1002C000FC01E080F1800E941A05882F90E0982FB1
:1002D00088278E299F29F8019183808389819A81BB
:1002E00001969A83898389819A818B3091053CF2AA
:1002F0000F900F900F900F90CF91DF911F910F9162
:10030000FF90EF900895DF93CF93CDB7DEB72E9790
:100310000FB6F894DEBF0FBECDBF1A8219821C82C1
:100320001B821D821E821F82188619861A861B86D2
:100330001C861E861D8671C08D859E85880F991F1F
:100340008A5D9E4FFC018081918199230CF4CF96A8
:10035000082E892F000C881F990B000C881F991FED
:1003600029813A81820F931F9A8389838D859E8587
:10037000880F991F880F991F89559E4FFC01808116
:100380009181A281B381689415F8B695A795979548
:1003900087951694D1F72D813E814F815885820F24
:1003A000931FA41FB51F8D839E83AF83B8878D8550
:1003B0009E85880F991F8A5D9E4FFC0180819181E7
:1003C00020E430E0B9010E9450112B813C81820F62
:1003D000931F9C838B838D859E85880F991F880F23
:1003E000991F89559E4FFC0180819181A281B38123
:1003F0008F739070A070B07029853A854B855C85AD
:10040000820F931FA41FB51F89879A87AB87BC876C
:100410008D859E8501969E878D878D859E858034EE
:1004200091050CF489CF8B819C8199230CF4CF9694
:10043000082E892F000C881F990B000C881F991F0C
:100440009C0189819A81820F931F90930801809368
:10045000070189859A85AB85BC859C01AD016894AF
:1004600015F856954795379527951694D1F78D81B0
:100470009E81AF81B885820F931FA41FB51F809303
:10048000220190932301A0932401B09325012E967D
:100490000FB6F894DEBF0FBECDBFCF91DF910895A8
:1004A000CF92DF92EF92FF920F931F93DF93CF9340
:1004B00000D0CDB7DEB79A83898380910501882368
:1004C000F9F481E0809305018981809306018EEE25
:1004D0000E943504882369F484EF0E94F2048EE2BE
:1004E0000E94F2040E94DB0480E291E00E94110469
:1004F000D2C01092050180E291E00E941104CBC0AD
:1005000080910501813009F05CC08EEE0E943504B7
:10051000882399F586EF0E94F2048FEE0E94CE04A4
:1005200080910901082F10E00E941A05882F90E0A1
:10053000F82EEE240E943105882F90E09701282B99
:10054000392BC801880F991F8A5D9E4FFC013183AA
:10055000208380910901882F90E0019620E430E00B
:10056000B9010E945011809309010E94DB048EEEB4
:100570000E943504882341F01DC01092050180E2DD
:1005800091E00E9411048BC084EF0E94F2048091DC
:1005900006018295880F880F807C8C5C0E94F20493
:1005A0000E94DB0480E291E00E94110482E08093CB
:1005B000050171C01092050180E291E00E941104D2
:1005C0006EC080910501823009F063C08EEE0E94FA
:1005D0003504882309F056C086EF0E94F2048FEE9E
:1005E0000E94CE048091A601C82EDD240E941A0527
:1005F000882F90E0A0E0B0E08C01FF24EE240E9460
:100600001A05882F90E0A0E0B0E0BA2FA92F982F0C
:100610008827E82AF92A0A2B1B2B0E943105882FEC
:1006200090E0A0E0B0E08E299F29A02BB12B209173
:100630000601222F30E048E050E0BA01621B730B44
:100640009B0104C0B695A795979587952A95D2F7F3
:100650009601220F331F220F331F29553E4FF901F8
:1006600080839183A283B3830E94DB048091A601DF
:10067000882F90E0019620E430E0B9010E945011EB
:100680008093A6011092050180E291E00E9411047E
:1006900002C01092050180E291E00E9411040F90C7
:1006A0000F90CF91DF911F910F91FF90EF90DF900E
:1006B000CF900895DF93CF93CDB7DEB7809105013A
:1006C000882351F480E291E00E94D10321E0873831
:1006D000920710F081E01BC080910501813049F440
:1006E00080E291E00E94D1038E32910510F081E00A
:1006F0000EC080910501823049F480E291E00E94B1
:10070000D1038E3C910510F081E001C080E0CF91D3
:10071000DF910895DF93CF9300D0CDB7DEB70E946D
:1007200025040E94F400CE0101960E94110483E08A
:1007300090E00E94500201C00000CE0101960E948C
:10074000D1032DE38A30920738F081E40E94B30C84
:10075000CE0101960E9411040E945A03813061F774
:1007600083E090E00E945002E8CFDF93CF93CDB7B3
:10077000DEB780E890E0FC01108281E890E025E09F
:10078000FC012083CF91DF910895DF93CF93CDB704
:10079000DEB784E890E0FC0180819181CF91DF9108
:1007A0000895EF92FF920F931F93DF93CF93CDB7EE
:1007B000DEB72A970FB6F894DEBF0FBECDBF9A877B
:1007C00089870E94C503CC01A0E0B0E089839A83A9
:1007D000AB83BC8389859A85FC0180819181CC01A2
:1007E000A0E0B0E029813A814B815C8179018A01E6
:1007F000E81AF90A0A0B1B0BD801C7018D839E83E7
:10080000AF83B8878D819E812A960FB6F894DEBF9C
:100810000FBECDBFCF91DF911F910F91FF90EF9051
:100820000895DF93CF9300D0CDB7DEB79A83898345
:100830000E94C5039C0189819A81FC013183208338
:100840000F900F90CF91DF910895DF93CF93CDB7A5
:10085000DEB789EB90E0FC01108288EB90E02CE0A1
:10086000FC012083CF91DF910895DF93CF9300D0D7
:10087000CDB7DEB78A838CEB90E024EAFC012083BD
:1008800000008CEB90E0FC0180818823D4F789EB99
:1008900090E0FC018081887F89838981883029F0FC
:1008A0008981803111F081E020C08BEB90E02A81BA
:1008B000FC0120838CEB90E024E8FC012083000005
:1008C0008CEB90E0FC0180818823D4F789EB90E0E9
:1008D000FC018081887F89838981883129F0898121
:1008E000803411F081E001C080E00F900F90CF9133
:1008F000DF910895DF93CF9300D0CDB7DEB78A8321
:100900008CEB90E024EAFC01208300008CEB90E06B
:10091000FC0180818823D4F789EB90E0FC01808181
:10092000887F89838981883021F08981803109F02D
:100930002EC08BEB90E02A81FC0120838CEB90E0B1
:1009400024E8FC01208300008CEB90E0FC01808116
:100950008823D4F789EB90E0FC018081887F89832C
:100960008981803219F08981883591F48CEB90E08F
:1009700024E9FC01208300008CEB90E0FC018081E5
:10098000882F90E0807190700097B1F70000B8CF89
:1009900000000F900F90CF91DF910895DF93CF93D8
:1009A0000F92CDB7DEB7898389810E9435040F90FD
:1009B000CF91DF910895DF93CF93CDB7DEB78CEB66
:1009C00090E024E9FC01208300008CEB90E0FC0126
:1009D0008081882F90E0807190700097B1F7CF915F
:1009E000DF910895DF93CF9300D0CDB7DEB78A8330
:1009F0008BEB90E02A81FC0120838CEB90E024E8D3
:100A0000FC01208300008CEB90E0FC0180818823B6
:100A1000D4F789EB90E0FC018081887F898389810C
:100A2000883211F081E001C080E00F900F90CF91EB
:100A3000DF910895DF93CF93CDB7DEB78CEB90E0D5
:100A400024ECFC01208300008CEB90E0FC01808111
:100A50008823D4F78BEB90E0FC018081CF91DF916C
:100A60000895DF93CF93CDB7DEB78CEB90E024E809
:100A7000FC01208300008CEB90E0FC018081882346
:100A8000D4F78BEB90E0FC018081CF91DF9108954A
:100A9000DF93CF93CDB7DEB787ED90E021E0FC0187
:100AA000208388ED90E020EAFC01208389E490E037
:100AB00022E1FC012083000089E490E0FC018081B8
:100AC000882F90E0817090700097B1F388ED90E0EE
:100AD00020E9FC01208380EE90E0FC01108210925E
:100AE000000182EE90E02CE0FC0120837894CF910D
:100AF000DF910895DF93CF93CDB7DEB780910001EA
:100B0000CF91DF910895DF93CF9300D000D0CDB780
:100B1000DEB79B838A836C8380910001882311F464
:100B20008FEF82C38FE590E0FC0180818983F89488
:100B30008C818093020189EE90E022E0FC01208309
:100B400088EE90E0FC018081882F90E080729070A8
:100B5000009709F44CC381EF90E0FC0120818A8169
:100B60009B81FC0120838A819B8101969B838A83E0
:100B700081EF90E0FC0120818A819B81FC01208330
:100B80008A819B8101969B838A8381EF90E0FC019F
:100B900020818A819B81FC0120838A819B8101962F
:100BA0009B838A8381EF90E0FC0120818A819B8175
:100BB000FC0120838A819B8101969B838A8381EF3C
:100BC00090E0FC0120818A819B81FC0120838A8145
:100BD0009B8101969B838A8381EF90E0FC012081B9
:100BE0008A819B81FC0120838A819B8101969B8362
:100BF0008A8381EF90E0FC0120818A819B81FC0146
:100C000020838A819B8101969B838A8381EF90E078
:100C1000FC0120818A819B81FC0120838A819B8148
:100C200001969B838A8381EF90E0FC0120818A8179
:100C30009B81FC0120838A819B8101969B838A830F
:100C400081EF90E0FC0120818A819B81FC0120835F
:100C50008A819B8101969B838A8381EF90E0FC01CE
:100C600020818A819B81FC0120838A819B8101965E
:100C70009B838A8381EF90E0FC0120818A819B81A4
:100C8000FC0120838A819B8101969B838A8381EF6B
:100C900090E0FC0120818A819B81FC0120838A8174
:100CA0009B8101969B838A8381EF90E0FC012081E8
:100CB0008A819B81FC0120838A819B8101969B8391
:100CC0008A8381EF90E0FC0120818A819B81FC0175
:100CD00020838A819B8101969B838A8381EF90E0A8
:100CE000FC0120818A819B81FC0120838A819B8178
:100CF00001969B838A8381EF90E0FC0120818A81A9
:100D00009B81FC0120838A819B8101969B838A833E
:100D100081EF90E0FC0120818A819B81FC0120838E
:100D20008A819B8101969B838A8381EF90E0FC01FD
:100D300020818A819B81FC0120838A819B8101968D
:100D40009B838A8381EF90E0FC0120818A819B81D3
:100D5000FC0120838A819B8101969B838A8381EF9A
:100D600090E0FC0120818A819B81FC0120838A81A3
:100D70009B8101969B838A8381EF90E0FC01208117
:100D80008A819B81FC0120838A819B8101969B83C0
:100D90008A8381EF90E0FC0120818A819B81FC01A4
:100DA00020838A819B8101969B838A8381EF90E0D7
:100DB000FC0120818A819B81FC0120838A819B81A7
:100DC00001969B838A8381EF90E0FC0120818A81D8
:100DD0009B81FC0120838A819B8101969B838A836E
:100DE00081EF90E0FC0120818A819B81FC012083BE
:100DF0008A819B8101969B838A8381EF90E0FC012D
:100E000020818A819B81FC0120838A819B810196BC
:100E10009B838A8381EF90E0FC0120818A819B8102
:100E2000FC0120838A819B8101969B838A8381EFC9
:100E300090E0FC0120818A819B81FC0120838A81D2
:100E40009B8101969B838A8381EF90E0FC01208146
:100E50008A819B81FC0120838A819B8101969B83EF
:100E60008A8381EF90E0FC0120818A819B81FC01D3
:100E700020838A819B8101969B838A8381EF90E006
:100E8000FC0120818A819B81FC0120838A819B81D6
:100E900001969B838A8381EF90E0FC0120818A8107
:100EA0009B81FC0120838A819B8101969B838A839D
:100EB00081EF90E0FC0120818A819B81FC012083ED
:100EC0008A819B8101969B838A8381EF90E0FC015C
:100ED00020818A819B81FC0120838A819B810196EC
:100EE0009B838A8381EF90E0FC0120818A819B8132
:100EF000FC0120838A819B8101969B838A8381EFF9
:100F000090E0FC0120818A819B81FC0120838A8101
:100F10009B8101969B838A8381EF90E0FC01208175
:100F20008A819B81FC0120838A819B8101969B831E
:100F30008A8381EF90E0FC0120818A819B81FC0102
:100F400020838A819B8101969B838A8381EF90E035
:100F5000FC0120818A819B81FC0120838A819B8105
:100F600001969B838A8381EF90E0FC0120818A8136
:100F70009B81FC0120838A819B8101969B838A83CC
:100F800081EF90E0FC0120818A819B81FC0120831C
:100F90008A819B8101969B838A8381EF90E0FC018B
:100FA00020818A819B81FC0120838A819B8101961B
:100FB0009B838A8381EF90E0FC0120818A819B8161
:100FC000FC0120838A819B8101969B838A8381EF28
:100FD00090E0FC0120818A819B81FC0120838A8131
:100FE0009B8101969B838A8381EF90E0FC012081A5
:100FF0008A819B81FC0120838A819B8101969B834E
:101000008A8381EF90E0FC0120818A819B81FC0131
:1010100020838A819B8101969B838A8381EF90E064
:10102000FC0120818A819B81FC0120838A819B8134
:1010300001969B838A8381EF90E0FC0120818A8165
:101040009B81FC0120838A819B8101969B838A83FB
:1010500081EF90E0FC0120818A819B81FC0120834B
:101060008A819B8101969B838A8381EF90E0FC01BA
:1010700020818A819B81FC0120838A819B8101964A
:101080009B838A8381EF90E0FC0120818A819B8190
:10109000FC0120838A819B8101969B838A8381EF57
:1010A00090E0FC0120818A819B81FC0120838A8160
:1010B0009B8101969B838A8381EF90E0FC012081D4
:1010C0008A819B81FC0120838A819B8101969B837D
:1010D0008A8381EF90E0FC0120818A819B81FC0161
:1010E00020838A819B8101969B838A8381EF90E094
:1010F000FC0120818A819B81FC0120838A819B8164
:1011000001969B838A8381EF90E0FC0120818A8194
:101110009B81FC0120838A819B8101969B838A832A
:1011200081EF90E0FC0120818A819B81FC0120837A
:101130008A819B8101969B838A8381EF90E0FC01E9
:1011400020818A819B81FC0120838A819B81019679
:101150009B838A8381EF90E0FC0120818A819B81BF
:10116000FC0120838A819B8101969B838A8381EF86
:1011700090E0FC0120818A819B81FC0120838A818F
:101180009B8101969B838A8381EF90E0FC01208103
:101190008A819B81FC0120838A819B8101969B83AC
:1011A0008A8381EF90E0FC0120818A819B81FC0190
:1011B00020838A819B8101969B838A8381EF90E0C3
:1011C000FC0120818A819B81FC0120838A819B8193
:1011D00001969B838A8388EE90E02BE6FC012083B6
:1011E0008FE590E02981FC01208380E41DC08FE51C
:1011F00090E02981FC01208380910201882311F471
:1012000080E012C080910001882311F48FEF0CC0A0
:101210008FE590E0FC0180818983F89489EE90E06D
:1012200022E0FC0120838CCC0F900F900F900F9048
:10123000CF91DF910895DF93CF9300D000D0CDB749
:10124000DEB79B838A836C8380910001882311F42D
:101250008FEF82C38FE590E0FC0180818983F89451
:101260008C818093030189EE90E021E0FC012083D2
:1012700088EE90E0FC018081882F90E08072907071
:10128000009709F44CC381EF90E02A813B81F9017A
:101290002081FC0120838A819B8101969B838A8324
:1012A00081EF90E02A813B81F9012081FC012083BC
:1012B0008A819B8101969B838A8381EF90E02A81BA
:1012C0003B81F9012081FC0120838A819B81019669
:1012D0009B838A8381EF90E02A813B81F901208101
:1012E000FC0120838A819B8101969B838A8381EF05
:1012F00090E02A813B81F9012081FC0120838A81D1
:101300009B8101969B838A8381EF90E02A813B81B8
:10131000F9012081FC0120838A819B8101969B83B6
:101320008A8381EF90E02A813B81F9012081FC01D1
:1013300020838A819B8101969B838A8381EF90E041
:101340002A813B81F9012081FC0120838A819B81D4
:1013500001969B838A8381EF90E02A813B81F9018A
:101360002081FC0120838A819B8101969B838A8353
:1013700081EF90E02A813B81F9012081FC012083EB
:101380008A819B8101969B838A8381EF90E02A81E9
:101390003B81F9012081FC0120838A819B81019698
:1013A0009B838A8381EF90E02A813B81F901208130
:1013B000FC0120838A819B8101969B838A8381EF34
:1013C00090E02A813B81F9012081FC0120838A8100
:1013D0009B8101969B838A8381EF90E02A813B81E8
:1013E000F9012081FC0120838A819B8101969B83E6
:1013F0008A8381EF90E02A813B81F9012081FC0101
:1014000020838A819B8101969B838A8381EF90E070
:101410002A813B81F9012081FC0120838A819B8103
:1014200001969B838A8381EF90E02A813B81F901B9
:101430002081FC0120838A819B8101969B838A8382
:1014400081EF90E02A813B81F9012081FC0120831A
:101450008A819B8101969B838A8381EF90E02A8118
:101460003B81F9012081FC0120838A819B810196C7
:101470009B838A8381EF90E02A813B81F90120815F
:10148000FC0120838A819B8101969B838A8381EF63
:1014900090E02A813B81F9012081FC0120838A812F
:1014A0009B8101969B838A8381EF90E02A813B8117
:1014B000F9012081FC0120838A819B8101969B8315
:1014C0008A8381EF90E02A813B81F9012081FC0130
:1014D00020838A819B8101969B838A8381EF90E0A0
:1014E0002A813B81F9012081FC0120838A819B8133
:1014F00001969B838A8381EF90E02A813B81F901E9
:101500002081FC0120838A819B8101969B838A83B1
:1015100081EF90E02A813B81F9012081FC01208349
:101520008A819B8101969B838A8381EF90E02A8147
:101530003B81F9012081FC0120838A819B810196F6
:101540009B838A8381EF90E02A813B81F90120818E
:10155000FC0120838A819B8101969B838A8381EF92
:1015600090E02A813B81F9012081FC0120838A815E
:101570009B8101969B838A8381EF90E02A813B8146
:10158000F9012081FC0120838A819B8101969B8344
:101590008A8381EF90E02A813B81F9012081FC015F
:1015A00020838A819B8101969B838A8381EF90E0CF
:1015B0002A813B81F9012081FC0120838A819B8162
:1015C00001969B838A8381EF90E02A813B81F90118
:1015D0002081FC0120838A819B8101969B838A83E1
:1015E00081EF90E02A813B81F9012081FC01208379
:1015F0008A819B8101969B838A8381EF90E02A8177
:101600003B81F9012081FC0120838A819B81019625
:101610009B838A8381EF90E02A813B81F9012081BD
:10162000FC0120838A819B8101969B838A8381EFC1
:1016300090E02A813B81F9012081FC0120838A818D
:101640009B8101969B838A8381EF90E02A813B8175
:10165000F9012081FC0120838A819B8101969B8373
:101660008A8381EF90E02A813B81F9012081FC018E
:1016700020838A819B8101969B838A8381EF90E0FE
:101680002A813B81F9012081FC0120838A819B8191
:1016900001969B838A8381EF90E02A813B81F90147
:1016A0002081FC0120838A819B8101969B838A8310
:1016B00081EF90E02A813B81F9012081FC012083A8
:1016C0008A819B8101969B838A8381EF90E02A81A6
:1016D0003B81F9012081FC0120838A819B81019655
:1016E0009B838A8381EF90E02A813B81F9012081ED
:1016F000FC0120838A819B8101969B838A8381EFF1
:1017000090E02A813B81F9012081FC0120838A81BC
:101710009B8101969B838A8381EF90E02A813B81A4
:10172000F9012081FC0120838A819B8101969B83A2
:101730008A8381EF90E02A813B81F9012081FC01BD
:1017400020838A819B8101969B838A8381EF90E02D
:101750002A813B81F9012081FC0120838A819B81C0
:1017600001969B838A8381EF90E02A813B81F90176
:101770002081FC0120838A819B8101969B838A833F
:1017800081EF90E02A813B81F9012081FC012083D7
:101790008A819B8101969B838A8381EF90E02A81D5
:1017A0003B81F9012081FC0120838A819B81019684
:1017B0009B838A8381EF90E02A813B81F90120811C
:1017C000FC0120838A819B8101969B838A8381EF20
:1017D00090E02A813B81F9012081FC0120838A81EC
:1017E0009B8101969B838A8381EF90E02A813B81D4
:1017F000F9012081FC0120838A819B8101969B83D2
:101800008A8381EF90E02A813B81F9012081FC01EC
:1018100020838A819B8101969B838A8381EF90E05C
:101820002A813B81F9012081FC0120838A819B81EF
:1018300001969B838A8381EF90E02A813B81F901A5
:101840002081FC0120838A819B8101969B838A836E
:1018500081EF90E02A813B81F9012081FC01208306
:101860008A819B8101969B838A8381EF90E02A8104
:101870003B81F9012081FC0120838A819B810196B3
:101880009B838A8381EF90E02A813B81F90120814B
:10189000FC0120838A819B8101969B838A8381EF4F
:1018A00090E02A813B81F9012081FC0120838A811B
:1018B0009B8101969B838A8381EF90E02A813B8103
:1018C000F9012081FC0120838A819B8101969B8301
:1018D0008A8381EF90E02A813B81F9012081FC011C
:1018E00020838A819B8101969B838A8381EF90E08C
:1018F0002A813B81F9012081FC0120838A819B811F
:1019000001969B838A8388EE90E02AE3FC01208382
:101910008FE590E02981FC01208380E41DC08FE5E4
:1019200090E02981FC01208380910301882311F438
:1019300080E012C080910001882311F48FEF0CC069
:101940008FE590E0FC0180818983F89489EE90E036
:1019500021E0FC0120838CCC0F900F900F900F9012
:10196000CF91DF910895DF93CF9300D00F92CDB741
:10197000DEB78B8380910001882311F48FEF76C04E
:101980008FE590E0FC0180818983F89489EE90E0F6
:1019900023E0FC01208380910401882399F088EEE4
:1019A00090E0FC018081882F90E080729070009719
:1019B00039F48FE590E02981FC0120838FEF56C038
:1019C0001092040184EE90E0FC0180818D5F8A8397
:1019D00088EE90E0FC018081882F90E0807290700A
:1019E000009781F081EF90E02B81FC01208388EE4D
:1019F00090E0FC018081882F90E0807290700097C9
:101A000021F12BC08FE590E02981FC01208384EE39
:101A100090E0FC0190818A81981729F481E08093FD
:101A200004018FEF23C080910001882311F48FEF10
:101A30001DC08FE590E0FC0180818983F89489EED8
:101A400090E023E0FC012083C3CF88EE90E02AE3FE
:101A5000FC0120831092010103C082E08093010108
:101A60008FE590E02981FC01208380E00F900F90AA
:101A70000F90CF91DF910895DF93CF930F92CDB761
:101A8000DEB78FE590E0FC0180818983F894809136
:101A900001018823D9F089EE90E023E0FC01208346
:101AA00004C081EF90E0FC01108288EE90E0FC0120
:101AB0008081882F90E080729070009791F788EE77
:101AC00090E02AE3FC012083109201018FE590E071
:101AD0002981FC0120830F90CF91DF9108951F92FF
:101AE0000F920FB60F9211242F938F939F93EF9322
:101AF000FF93DF93CF9300D0CDB7DEB781EE90E0B8
:101B0000FC018081898381EE90E0FC011082898153
:101B1000882F90E0887090700097C9F089EE90E06F
:101B2000FC0110828BEE90E021E0FC0120838CEE22
:101B300090E0FC0110828DEE90E022E1FC01208318
:101B400080EF90E028E0FC01208310920001898161
:101B5000882F90E084709070009709F445C08091C0
:101B60000001882309F440C0809101018A838A81A1
:101B7000882311F18A8181508A838A8180930101AF
:101B80008A818823C9F489EE90E023E0FC01208358
:101B900004C081EF90E0FC01108288EE90E0FC012F
:101BA0008081882F90E080729070009791F788EE86
:101BB00090E02AE3FC012083809102018A838A81DC
:101BC000882331F08A8181508A838A81809302013F
:101BD000809103018A838A81882331F08A81815030
:101BE0008A838A81809303010F900F90CF91DF91B8
:101BF000FF91EF919F918F912F910F900FBE0F90BA
:101C00001F901895DF93CF93CDB7DEB7000088EE15
:101C100090E0FC018081882F90E0817090700097A7
:101C2000B1F3CF91DF910895DF93CF93CDB7DEB7B6
:101C300088EE90E02EEFFC012083CF91DF91089594
:101C4000DF93CF93CDB7DEB7000088EE90E0FC01C4
:101C50008081882F90E0847090700097B1F3CF91CD
:101C6000DF910895DF93CF93CDB7DEB788EE90E094
:101C70002BEFFC012083CF91DF9108951F920F92EB
:101C80000FB60F921124EF92FF920F931F932F9391
:101C90003F934F935F936F937F938F939F93AF93F4
:101CA000BF93EF93FF93DF93CF93CDB7DEB7E19769
:101CB000DEBFCDBF89EE90E0FC01108288EE90E09F
:101CC000FC01808189878985882F90E088709070D9
:101CD000009709F4C0C281EF90E0FC0180818A87FF
:101CE00081EF90E0FC0180818B8781EF90E0FC0127
:101CF0008081882F90E09D878C8781EF90E0FC01A8
:101D00008081882F90E0982F88272C853D85822B15
:101D1000932B9D878C8781EF90E0FC018081882F39
:101D200090E09F878E8781EF90E0FC018081882F73
:101D300090E0982F88272E853F85822B932B9F87B5
:101D40008E8781EF90E0FC018081882F90E0998B55
:101D5000888B81EF90E0FC018081882F90E0982FA4
:101D6000882728893989822B932B998B888B88EE39
:101D700090E022EFFC0120838B85863009F0D6C0ED
:101D800081E891E09A8389831D828D81893030F0CA
:101D90008BEE90E021E2FC01208368C289819A8168
:101DA0009B8B8A8B8A899B898C01F801E590F49042
:101DB0008F01FD8AEC8A1B8B0A8B8C899D899F8BF6
:101DC0008E8B2E893F898C859D852817390731F0A8
:101DD00089819A8107969A8389835BC089819A81D8
:101DE00002969A83898389819A81998F888F888DB9
:101DF000998D8C01F801E590F4908F01FB8EEA8EAD
:101E0000198F088F8A8D9B8D9F8B8E8B2E893F8992
:101E10008E859F852817390731F089819A8105962B
:101E20009A83898336C089819A8102969A838983AD
:101E300089819A819D8F8C8F8C8D9D8D8C01F8016D
:101E4000E590F4908F01FF8EEE8E1D8F0C8F8E8D9E
:101E50009F8D98878F8389819A8102969A8389833F
:101E600089819A8199A388A388A199A1FC011491E1
:101E70001AA38AA18BA3888999898F3F910519F0AC
:101E800010F08FEF90E08E839E818BA1891728F050
:101E900006C08D818F5F8D8378CF8BA18E8388EE76
:101EA00090E0FC0180818D838D81882F90E085708A
:101EB00090700097A1F38D81882F90E084709070CE
:101EC000009709F0CEC18E81813108F080E18CA3AA
:101ED0008CA18D8317C081EF90E02F8138853EA3C0
:101EE0002DA32F8138852F5F3F4F38872F832DA15A
:101EF0003EA1F90114911FA32FA1FC0120838D8124
:101F000081508D838D81882331F79E818CA1F92F9B
:101F1000F81B8F2F8E830E94140E8E81882309F068
:101F2000BECF8CA1803109F4BACFA0C18B8585309A
:101F300059F40E94140E0E94020E83EE90E02C854C
:101F40002068FC01208392C18B85893009F066C02E
:101F50008A85882309F062C08C85809300010E94E5
:101F6000140E8CEA90E09C838B8381E08D8348C0C3
:101F700089EE90E02D81FC0120838B819C8199A7C3
:101F800088A78B819C8101969C838B8388A599A5CA
:101F9000FC0114911AA78AA58BA78BEE90E02BA5C4
:101FA000FC0120838BA5882341F18CEE90E02B81EE
:101FB0003C813DA72CA72B813C812F5F3F4F3C8369
:101FC0002B832CA53DA5F90114911EA72EA5FC017C
:101FD00020838DEE90E02B813C8138AB2FA72B81A5
:101FE0003C812F5F3F4F3C832B832FA538A9F901FC
:101FF000149119AB29A9FC0120838D818F5F8D83FA
:102000008D81853008F4B4CF8AEE90E02EE1FC019A
:1020100020838AEE90E0FC01108228C18B858830F5
:1020200071F48A85803859F40E94020E81EF90E0A5
:1020300020910001FC0120830E94140E17C18B85A2
:10204000882339F50E94020E1D828A858238A9F400
:1020500089EE90E02E85FC0120838BEE90E0FC0160
:102060008081882F90E080729070009711F081E05D
:102070008D8389EE90E0FC01108281EF90E02D814C
:10208000FC01208381EF90E0FC0110820E94140E7D
:10209000EDC08B85813019F08B858330C9F58A8539
:1020A0008230B1F58C859D85009791F58E858F776F
:1020B0008D838D81882361F18D81853048F50E9463
:1020C000140E89EE90E02D81FC0120838B858330F6
:1020D00031F48BEE90E021E2FC012083C7C08BEE4F
:1020E00090E029E1FC0120838AEE90E02D81422FCF
:1020F00050E021E030E0042E02C0220F331F0A948A
:10210000E2F7FC0120838AEE90E0FC011082AEC071
:102110008E859F85009709F05CC08A85813AD1F54C
:102120008B858130B9F580E48E8388EE90E0FC01E8
:1021300080818D838D81882F90E0857090700097CD
:10214000A1F38D81882F90E084709070009709F042
:102150008AC08E81813108F080E18CA38CA18D83AF
:1021600007C081EF90E0FC0110828D8181508D834A
:102170008D818823B1F79E818CA1F92FF81B8F2FB9
:102180008E830E94140E8E81882379F68CA1803173
:1021900061F26CC08A858132E1F48B858930C9F4A3
:1021A00080E48E838E81813108F080E18CA30E94CF
:1021B000200E0E94320E9E818CA1292F281B822F77
:1021C0008E838E81882371F70E94020E0E94140E66
:1021D0004DC08E859F858130910509F03CC08B856F
:1021E0008130C9F58A85813AB1F588898E8388EE78
:1021F00090E0FC0180818D838D81882F90E0857037
:1022000090700097A1F38D81882F90E0847090707A
:10221000009759F58E81813108F080E18CA38CA163
:102220008D8307C081EF90E0FC0110828D81815089
:102230008D838D818823B1F79E818CA1F92FF81BA6
:102240008F2F8E830E94140E8E81882381F68CA19D
:10225000803169F20BC08BEE90E021E2FC0120831B
:1022600005C0000003C0000001C00000E196DEBF11
:10227000CDBFCF91DF91FF91EF91BF91AF919F9132
:102280008F917F916F915F914F913F912F911F910E
:102290000F91FF90EF900F900FBE0F901F90189529
:1022A00097FB092E07260AD077FD04D00CD006D064
:1022B00000201AF4709561957F4F0895F6F7909578
:1022C00081959F4F0895AA1BBB1B51E107C0AA1F10
:1022D000BB1FA617B70710F0A61BB70B881F991FC7
:1022E0005A95A9F780959095BC01CD010895DC0120
:1022F00001C06D9341505040E0F70895F894FFCF2E
:00000001FF
