:100000000C94B6000C94D3000C94D3000C94D30041
:100010000C94D3000C94D3000C94D3000C94D30014
:100020000C94D3000C94D3000C94D3000C94D30004
:100030000C94D3000C94D3000C94D3000C94D300F4
:100040000C94D3000C94D3000C94D3000C94D300E4
:100050000C94D3000C94D3000C94D3000C94D300D4
:100060000C94D3000C943D0A0C94BC090C941A090E
:100070000C94D3000C94D3000C94D3000C94D300B4
:100080000C94D3000C94D3000C94D3000C94D300A4
:100090000C94D3000C94D3000C94D3000C94D30094
:1000A0000C94D3000C94D3000C94D3000C94D30084
:1000B0000C94D3000C94D3000C94D3000C94D30074
:1000C0000C94D3000C94D3000C94D3000C94D30064
:1000D0000C94D3000C94D3000C94D3000C94D30054
:1000E0000C94D3000C94D3000C94D3000C94D30044
:1000F0000C94D3000C94D3000C94D3000C94D30034
:100100000C94D3000C94D3000C94D3000C94D30023
:100110000C94D3000C94D3000C94D3000C94D30013
:100120000C94D3000C94D3000C94D3000C94D30003
:100130000C94D3000C942C010C94D3000C94D30099
:100140000C94D3000C94D3000C94D3000C94D300E3
:100150000C94D3000C94D3000C94D3000C94D300D3
:100160000C94180A0C9497090C943F0911241FBE93
:10017000CFEFDFE2DEBFCDBF10E2A0E0B0E2E0E50E
:10018000F0E202C005900D92AA30B107D9F712E251
:10019000AAE0B0E201C01D92A732B107E1F70E94C8
:1001A00038020C9426100C940000FC01818185FF1C
:1001B000FDCF608308950F931F93FC018B01041BF7
:1001C000150B2085318562857385C9010E94210C3C
:1001D000AB0186819781B801681B790B200F311F15
:1001E0002087318706831783808191819C01029F3C
:1001F000C001039F900D129F900D11242281338125
:10020000D9014A9F90014B9F300D5A9F300D112408
:10021000820F24813581A901649F9001659F300D73
:10022000749F300D1124820F1F910F9108950F9329
:10023000DF93CF930F92CDB7DEB72FB72983F89412
:100240001BBEFC0108ED04BF608389818FBF0F9046
:10025000CF91DF910F9108951F920F920FB60F92D9
:1002600011240F900FBE0F901F9018950F93DF93DE
:10027000CF930F92CDB7DEB78FB78983F8941BBEAB
:1002800023E083E590E0FC0108ED04BF2083898131
:100290008FBFE0E5F0E02BEC228380915000886076
:1002A0008093500090E009C08091530081FF05C009
:1002B000809153008260838391E08091510083FD9F
:1002C00003C0992389F3E8CF992331F720914000A7
:1002D0008FB78983F8941BBE287F236080E490E069
:1002E000FC0108ED04BF208389818FBF0F90CF915F
:1002F000DF910F910895DC011296ED91FC91139717
:1003000080810E9498040895DF93CF93CDB7DEB724
:100310002897CDBFDEBF82E08B838C8382E4898304
:100320008FE48A83CE0101968D839E838AE890E2D2
:10033000BE016D5F7F4F0E9460062896CDBFDEBF75
:10034000CF91DF9108956F927F928F929F92AF929B
:10035000BF92CF92DF92EF920F931F930E946D088E
:100360001092000610922006E0E46E2EE6E07E2E4B
:100370008AE0F30180838EE38093600677EF872E17
:1003800070E2972EC40162E042E02AE030E00AE029
:1003900010E0EE24CC240E94A70A67E2A62EB12C1E
:1003A000A80CB91CC50160E044E02AE030E0CC2490
:1003B000C3940E94A70A8AE890E2B5010E949C06B5
:1003C00085E491E266E044E12CE431E200E711E2E9
:1003D0000E94C102E0EAF0E0828181608283C40170
:1003E0000E9463040F9282E0EDB7FEB7818380E440
:1003F00096E066E040E020E006E610E0CC24DD2454
:10040000A12C58E0B52E38E0832E912C0E94FA03DF
:1004100080E1F301828384898160848B84E6E0E853
:10042000F1E082830F9080E498E06AE070E00E943F
:10043000A80483EC90E0E0E0F9E086A397A380E0D5
:1004400099E067E070E00E94A20480E099E061E03A
:1004500070E00E94E20478941F910F91EF90DF907A
:10046000CF90BF90AF909F908F907F906F900895A6
:100470009F92AF92BF92CF92DF92EF92FF920F9333
:100480001F93DF93CF93CDB7DEB76097CDBFDEBFAD
:100490000E9436010E94A30180E1E0E6F6E0858338
:1004A00082E0E0E4F6E0858381E090E080930F2233
:1004B0009093102217E0A12EB12CAC0EBD1E8E0120
:1004C0000F5F1F4FB0E9CB2EB1E0DB2EA0E6EA2E86
:1004D000A6E0FA2EF0E39F2E8AE890E20E9438050B
:1004E000892B81F0AB82BC828AE890E2B8014AE0B5
:1004F0000E94C205EB81FC8180810E949804C801A2
:100500000E94840188EE93E0F6013197F1F701979C
:10051000D9F7F701978280E00E949804DDCF80E050
:1005200090E008950F931F93CF93DF93DC016C93BA
:1005300011964C93119712962D933C931397149602
:100540001C92149715961C92159716961C92169746
:10055000E80140E020E030E00DC01296ED91FC9102
:100560001397E20FF31F89919991828393834F5FD1
:100570002A5F3F4F461788F3DF91CF911F910F916C
:100580000895FF920F931F93DC01F62E6C93119642
:100590004C93119712962D933C93139714961C929B
:1005A000149715961C92159716961C921697642F01
:1005B00070E050E020E030E00EC01296ED91FC912A
:1005C0001397E20FF31FC801861B970B8283938357
:1005D0005F5F2A5F3F4F060F171F5F1570F31F9174
:1005E0000F91FF9008950F931F93CF93DF93FC011A
:1005F0008B0160814681461710F080E035C085810F
:1006000026E0829F90011124C281D381C20FD31FA3
:1006100090E0019670E00E94350C85834F5F468321
:10062000D8018C91888311968C91119789831196AA
:100630008C919181981708F4998320E00FC0822F44
:1006400090E0AA81BB81A80FB91FF80142815381B4
:10065000480F591FFA0180818C932F5FD8011196A2
:100660008C91281760F381E0DF91CF911F910F915A
:1006700008950F931F93CF93DF93FC018B01468165
:10068000442311F480E02CC0848126E0829F9001F5
:100690001124C281D381C20FD31F90E060810196E3
:1006A00070E00E94350C8483415046838881F801B4
:1006B00080838981818320E00EC0822F90E0F80141
:1006C000A281B381A80FB91FEA81FB81E80FF91F4E
:1006D00080818C932F5FF8018181281770F381E06E
:1006E000DF91CF911F910F910895FC012681222364
:1006F00011F480E00895848190E06081019670E0BB
:100700000E94350C84832150268381E00895FC01EA
:1007100086810895FC014423F9F06630E8F587E00E
:1007200090E0062E02C0880F991F0A94E2F7828398
:1007300084E090E0062E02C0880F991F0A94E2F729
:100740008093B0009089222311F480E001C080E4FE
:10075000987F892B808B0BC06730F0F483E090E0AA
:10076000062E02C0880F991F0A94E2F7828383E065
:1007700090E002C0880F991F6A95E2F78093B0005D
:100780008089222311F490E001C090E4887F836087
:10079000892B808B81E0089580E00895882321F0E3
:1007A0008230A1F080E00895E0E8F1E060938001FC
:1007B00089E084834423E1F06E5F618381E0858377
:1007C000809184018061822B848310C0E0E8F1E095
:1007D000628389E08683442359F06E5F638381E0FE
:1007E0008783809186018061822B868381E00895D2
:1007F00081E008956F927F928F92AF92BF92CF92D5
:10080000DF92EF92FF920F931F93DF93CF93CDB7B9
:10081000DEB7342FF22E3801182D4E2D232F0E94D3
:100820008A038823B9F08F2DB3014E2D96010E94C3
:10083000CE03882379F01066F5011383888990E050
:10084000880F991F880F991F019786A397A381E0AE
:10085000808301C080E0CF91DF911F910F91FF90C5
:10086000EF90DF90CF90BF90AF908F907F906F9080
:100870000895FC016066638350E0440F551F440FE8
:10088000551F4150504046A357A381E080830895EF
:10089000DC01E0E8F1E0428383E08683606A13963E
:1008A0006C9313978FEF9FEF96968D939C939797EA
:1008B00080E111968C9311972C930895FC0181850A
:1008C00080958170089580931B2290931C22089537
:1008D0000F931F93182F062F80911B2290911C229B
:1008E00060E80E948C0A80911B2290911C22612F4B
:1008F0000E948C0A80911B2290911C22602F0E94E2
:100900008C0A100F1F7780911B2290911C22612F5F
:100910000E948C0A1F910F910895982F87FD02C0A5
:10092000462F01C09195842F692F0E946804089575
:1009300060E041E00E948D04089564E045E00E947B
:100940008D040895FC018081807F862B808308952B
:10095000FC018081807F862B80830895FC0181814A
:10096000887F862B81830895FC018181887F862B77
:1009700081830895FC01838180718062862B83834B
:100980000895FC01838180718062862B83830895A2
:10099000FC018181607F862B81830895FC01818128
:1009A0006073862B81830895FC018181607F60954F
:1009B000862381830895FC0181816073609586237D
:1009C00081830895FC0186818C7F862B8683089520
:1009D000FC0186818C7F862B86830895FC018681AD
:1009E000837F862B86830895FC018681837F862BF7
:1009F00086830895FC0187818C7F862B87830895E9
:100A0000FC0187818C7F862B87830895FC01878179
:100A1000837F862B87830895FC018781837F862BC4
:100A200087830895FC0187818F7C862B87830895B7
:100A3000FC0187818F73862B87830895FC01808159
:100A4000807F80838CE081870895FC018081807F96
:100A500080838CE081870895FC01E95BFF4F608310
:100A600071830895FC01E75BFF4F608371830895F4
:100A7000FC01EB59FF4F2081332727FD3095C90139
:100A80000895FC01683050F405ACF6ADE02DE60F9A
:100A9000F11DEB59FF4F80818F5F8083089502968F
:100AA0000E942C08811181E008950F931F93CF932A
:100AB000DF93DC01DD96CD91DC91DE978E010B5941
:100AC0001F4FF8018081882331F557968C915797F5
:100AD000C55BDF4F8883CB54D04054968C9154979C
:100AE000FE01E45BFF4F80834081FE01E35BFF4F2B
:100AF00080819181BD0150E00E944D0D81E0F8019F
:100B00008083C95BDF4FE881F981C754D0403097BB
:100B100011F0CE010995DF91CF911F910F910895AA
:100B2000CF93DF93FC01EB019C012F5B3F4FD90179
:100B30008D919C91009711F480E021C0DC018C9193
:100B40008883D9012D913C91D90111968C911197EF
:100B5000481718F411964C9304C0D90111968C9142
:100B600089834981EF5BFF4F0190F081E02D628125
:100B700073818A819B8150E00E944D0D81E0DF915D
:100B8000CF910895CF93DF93EC01DB01CB59DF4F79
:100B90008881C556D040882341F1C55BDF4F8881ED
:100BA000CB54D0408C93FE01E45BFF4F808148170B
:100BB00020F411964C93119704C0808111968C9368
:100BC000119711964C911197FE01E35BFF4F6081E5
:100BD000718112968C91129713969C9150E00E940D
:100BE0004D0DCB59DF4F188281E0DF91CF910895F1
:100BF000DC01DD96ED91FC91DE97808191810E9470
:100C00008C0A0895FC01878D90A102960E94A60788
:100C10000895FC01878D90A102960E9465070895B2
:100C2000CF93DF93EC01009751F0188219828A81EB
:100C30009B81009711F00E94F50C1A821B82DF91B4
:100C4000CF9108950F931F93CF93DF93FC01EF5B38
:100C5000FF4FC081D1810CC01C810D81CE010E944B
:100C60001006CE010E94F50C212F302FC901EC0196
:100C7000209791F7DF91CF911F910F9108950F93D6
:100C80001F938C01DC01DD96ED91FC91DE97808154
:100C9000918160E00E94DE08D801DD96ED91FC9123
:100CA000DE97E75BFF4F20813181E954F040211549
:100CB000310519F0CF01F90109951F910F910895A0
:100CC000CF92DF92FF920F931F93CF93DF938C010C
:100CD000EB01F98092E0C92ED12CC00ED11EC601C5
:100CE0000E942C088823F9F484E18F1510F484E124
:100CF000F82E9801245E3F4F6A817B81C9014F2DF8
:100D000050E00E944D0DF8018081918161E00E94C8
:100D1000DE086881C6014F2D0E943408882311F433
:100D200081E002C0789480E0DF91CF911F910F9114
:100D3000FF90DF90CF9008950F931F938C01FC01DB
:100D400061937193CF010E9408078FE396E0D80169
:100D5000D9968D939C93DA9788EF95E0D7968D93EB
:100D60009C93D89785E595E0DB968D939C93DC97D3
:100D700081E495E0DD968D939C93DE97F801FF96D4
:100D800000831183095B1F4FF801119211928F01AB
:100D90001082118204501040D8011D921C92045000
:100DA0001040F801119211928F01108211820354A8
:100DB0001040F801E35BFF4F0F5A1F4F0083118370
:100DC0000C5E1F4FD8011C9205561040D801ED91C2
:100DD000FC91078F10A389E096E081A392A382E0A3
:100DE00096E083A394A30A591F4FC80160E070E006
:100DF00047E050E00E94560D1F910F910895DC01CD
:100E0000DB96ED91FC91DC97309709F009950895F8
:100E1000FC01118E168A15AA16AA17AA10AE11AED9
:100E200012AE13AE14AE84E186A717A610AA11AABB
:100E300013AA14AA15AE16AE0895CF93DF93EC0152
:100E4000898D823071F0833018F48130D9F505C076
:100E50008330A9F08430B1F524C06F8B688F82E0B5
:100E60001EC0653130F0198ECE0164E00E94FF068D
:100E700029C06D8B888D860F888F83E010C09D8977
:100E800091509D8B888D860F888F8C89FE01E80F8D
:100E9000F11D60838F5F8C8B9923A1F484E0898F8F
:100EA00011C0888D8095888F681739F4E9ADFAAD47
:100EB000309739F0CE01099504C0CE0165E00E945B
:100EC000FF06198EDF91CF910895CF93DF93EC0148
:100ED000862F81508E3F18F0CE0167E012C0898DB9
:100EE0006A3C59F4882321F0CE0161E00E94FF069C
:100EF00081E0898F1C8A1E8A26C0882329F4CE01AE
:100F000062E00E94FF061FC06C3519F481E08E8BF1
:100F10001AC08E898823A1F01E8A633051F0643094
:100F200018F4623069F407C0643039F0653041F478
:100F300006C06CE505C06AEC03C060E001C06FEF5D
:100F4000CE010E941D07DF91CF910895DC01D2965A
:100F50006C91D297662309F073C09E968C919E97F0
:100F6000813111F1823130F48F3051F0803109F04C
:100F70005FC00EC0823199F1833109F059C038C089
:100F80009F966C919F97D1966C93D19780E12CC0DE
:100F9000D0966C91D097D1968C91D197860FD1969F
:100FA0008C93D19781E120C0D396ED91FC91D49799
:100FB0006191D1968C91D197860FD1968C93D197D0
:100FC000D396ED93FC93D497D0968C91D097815083
:100FD000D0968C93D0978823C1F482E105C0D19636
:100FE0006C91D197609583E19E968C939E970DC0EE
:100FF00084E19E968C939E97D796ED91FC91D8971D
:10100000309749F1CD01099508956C3561F06D3542
:1010100018F4662369F014C06A3C19F06F3F81F43C
:1010200009C082E008C083E0D2968C93D2970BC0AF
:1010300084E001C085E0D2968C93D2976CE503C022
:10104000D2961C92D297D596ED91FC91D697309777
:1010500011F0CD010995089520E0FC0186A58431A9
:1010600009F021E0822F08950F931F93CF93DF9310
:10107000EC018EA5843111F08FEF2AC08DA99EA9B5
:10108000892B11F48EEF24C0453110F08DEF20C074
:101090006FA748AB8E01065E1F4F00D000D080E0E6
:1010A00090E2EDB7FEB781839283038314830E949D
:1010B0005D0D0BAB1CAB1AAA8FE08EA70F900F90A3
:1010C0000F900F90EDA9FEA9CE016AEC099580E082
:1010D000DF91CF911F910F9108958DEF9CE0809348
:1010E0004520909346208DEF80933D2085EF9CE036
:1010F00080934720909348208CEF80933E2085EE8C
:101100009CE08093492090934A208BEF80933F206E
:1011100085EC9CE080934B2090934C208AEF809349
:10112000402085E89CE080934D2090934E2029EF4D
:101130002093412087ED93E080934F20909350209F
:101140002093422083E096E0809351209093522098
:101150002093432081E090E080935320909354208B
:1011600081E08093442080EA98E080930C20909363
:101170000D2080E496E080930E2090930F2038E0BD
:101180003093102024E0209311201092122080EA46
:1011900099E080931A2090931B2080E696E080933C
:1011A0001C2090931D2030931E2020931F2082E04E
:1011B00080932020E0E8F6E081830895DC01139617
:1011C0008C911397882301F1662379F01496ED91A1
:1011D000FC91159784818F7E84831696ED91FC9106
:1011E00017971A968C91858308951696ED91FC9128
:1011F00017971A968C911A9786831496ED91FC9105
:1012000015978481806184830895E82FF0E0EE0FC4
:10121000FF1FEB5AFF4D0190F081E02D85A188233F
:1012200041F023A134A12115310519F0CF01F901B5
:10123000099508951F920F920FB60F9211242F93C4
:101240003F934F935F936F937F938F939F93AF934E
:10125000BF93EF93FF9380E00E940509FF91EF9108
:10126000BF91AF919F918F917F916F915F914F91BE
:101270003F912F910F900FBE0F901F9018951F92C6
:101280000F920FB60F9211242F933F934F935F93BA
:101290006F937F938F939F93AF93BF93EF93FF933E
:1012A00082E00E940509FF91EF91BF91AF919F915C
:1012B0008F917F916F915F914F913F912F910F90FF
:1012C0000FBE0F901F90189545960E94E90B089548
:1012D0000B960E94E90B08950F931F93CF93DF9312
:1012E000C82FD0E0CC0FDD1FCB5ADF4DE881F9814C
:1012F00085A18823B9F4CF010B960E94E90BE88100
:10130000F981892B39F40480F581E02D83818C7F6C
:10131000838308C004811581CF010B960E949D0B29
:10132000F8018083DF91CF911F910F9108951F9253
:101330000F920FB60F9211242F933F934F935F9309
:101340006F937F938F939F93AF93BF93EF93FF938D
:1013500082E00E946C09FF91EF91BF91AF919F9144
:101360008F917F916F915F914F913F912F910F904E
:101370000FBE0F901F9018951F920F920FB60F92ED
:1013800011242F933F934F935F936F937F938F938A
:101390009F93AF93BF93EF93FF9380E00E946C09FC
:1013A000FF91EF91BF91AF919F918F917F916F913D
:1013B0005F914F913F912F910F900FBE0F901F9013
:1013C000189545960E949D0B08951F93CF93DF9328
:1013D000C82FD0E0CC0FDD1FCB5ADF4DA881B981DB
:1013E0001496ED91FC911597108195968C91959797
:1013F000882351F09196ED91FC9192973097A1F04E
:10140000CD01612F099510C0CD014596612F0E9435
:101410004A0BE881F98121A132A12115310521F082
:10142000CF01612FF9010995DF91CF911F910895A7
:101430001F920F920FB60F9211242F933F934F9349
:101440005F936F937F938F939F93AF93BF93EF932C
:10145000FF9382E00E94E509FF91EF91BF91AF9168
:101460009F918F917F916F915F914F913F912F91BC
:101470000F900FBE0F901F9018951F920F920FB6EE
:101480000F9211242F933F934F935F936F937F930A
:101490008F939F93AF93BF93EF93FF9380E00E944E
:1014A000E509FF91EF91BF91AF919F918F917F914E
:1014B0006F915F914F913F912F910F900FBE0F90C1
:1014C0001F90189545960E94ED0B08950B960E946B
:1014D000ED0B089545960E94BF0B0895CF93DF93BF
:1014E000EC01EC81FD8183818C7F8383CE010B969F
:1014F0000E94780B282F8B81882321F0EE81FF81B9
:101500008A858583EC81FD8183818C7F81608383E3
:10151000822FDF91CF910895DF93CF930F92CDB7B4
:10152000DEB7FC01698385A1882329F00480F58159
:10153000E02D608308C0CF01BE016F5F7F4F41E0A7
:1015400050E00E946E0A0F90CF91DF910895AF9204
:10155000BF92CF92DF92EF92FF920F931F93CF93A0
:10156000DF93EC015801DE2C1F8E18A219A21AA2DB
:101570001BA21CA21EA26883062F10E0D80153E014
:10158000AA0FBB1F5A95E1F7A01BB10BFC013496C3
:10159000A45FBF4D97E00D9001929150E1F7E42ECA
:1015A000FF24E982FA82DB82CC2019F081E08DA34E
:1015B0000BC01DA2CE010B96B9010E94080CCE01F2
:1015C0004596B5010E94080C000F111F0B5A1F4DC4
:1015D000D801CD93DC93EE81FF8188858183EE81F4
:1015E000FF8189858283DD2041F0EE81FF818A853C
:1015F0008183EE81FF818A858683F894EC81FD8169
:1016000083E08583EC81FD8183818F7C806183838E
:10161000DD2011F4CC2031F0EC81FD818381837FCA
:1016200084608383AC81BD81F701EE0FFF1FEB5B0C
:10163000FF4D808116968C93AC81BD818181179678
:101640008C93EC81FD8197812DE330E2E20EF31E55
:10165000D7018C918295807F892B8783EC81FD81D6
:10166000848180618483EC81FD81848188608483AE
:101670008091A2008160E0EAF0E082837894DF91BB
:10168000CF911F910F91FF90EF90DF90CF90BF907F
:10169000AF9008951F93CF93DF93EC01162F6885C9
:1016A000798581E090E00E94210C4C815D81840F5E
:1016B000951F2A813B818217930711F480E014C0A3
:1016C0008E819F8101968E839F83E881F981E40F4B
:1016D000F51F10838C819D816885798501960E9414
:1016E000210C8C839D8381E0DF91CF911F91089520
:1016F000CF92DF92EF92FF920F931F93CF93DF93DE
:101700006C017B018A01C0E0D0E00AC0F701EC0F58
:10171000FD1FC60160810E944A0B882321F021969B
:10172000C017D10798F3CE01DF91CF911F910F9190
:10173000FF90EF90DF90CF900895CF93DF93EC016F
:101740002A813B818C819D818217930711F4E0E00F
:1017500012C0E881F981E20FF31FE0816885798585
:10176000C90101960E94210C8A839B838E819F81EF
:1017700001978E839F838E2FDF91CF910895CF9213
:10178000DF92EF92FF920F931F93CF93DF937C0131
:101790006B01FC01668177818A016417750708F483
:1017A0008B01C0E0D0E008C0C7010E949D0BF6018C
:1017B000EC0FFD1F80832196C017D107A8F3C80145
:1017C000DF91CF911F910F91FF90EF90DF90CF901D
:1017D0000895FC01868197810895FC01208531855B
:1017E00086819781281B390BC90108950F931F9398
:1017F0008C01FC01808191810E94F50CF80110821E
:10180000118212821382148215821F910F91089502
:10181000EF92FF920F931F938C017B01CB010E94EB
:10182000480CF801808391831282138214821582FE
:1018300016821782E086F1861F910F91FF90EF903C
:101840000895AA1BBB1B51E107C0AA1FBB1FA61707
:10185000B70710F0A61BB70B881F991F5A95A9F759
:1018600080959095BC01CD01089597FB092E072620
:101870000AD077FD04D0E5DF06D000201AF4709579
:1018800061957F4F0895F6F7909581959F4F089544
:10189000CF93DF93BC018230910510F462E070E0D9
:1018A000A0911F22B0912022ED01E0E0F0E040E0A5
:1018B00050E021C0888199818617970769F48A8151
:1018C0009B81309719F08283938304C080931F22F9
:1018D00090932022FE0134C06817790738F441152F
:1018E000510519F08417950708F4AC01FE018A81AF
:1018F0009B819C01E9012097E9F641155105A9F169
:10190000CA01861B970B049708F4BA01E0E0F0E0E7
:101910002AC08D919C91119784179507F9F464174B
:10192000750781F412968D919C911397309719F059
:101930008283938304C080931F2290932022FD0111
:1019400032964FC0CA01861B970BFD01E80FF91FA5
:101950006193719302978D939C9343C0FD018281A3
:1019600093819C01D9011097A1F680911D2290913D
:101970001E22892B41F480910520909106208093AE
:101980001D2290931E22409107205091082041155E
:10199000510541F44DB75EB780910320909104202A
:1019A000481B590B20911D2230911E222417350708
:1019B000B0F4CA01821B930B8617970780F0AB0126
:1019C0004E5F5F4F8417950750F0420F531F4093AF
:1019D0001D2250931E22F9016193719302C0E0E031
:1019E000F0E0CF01DF91CF910895CF93DF9300977F
:1019F00009F450C0EC0122971A821B82A0911F2289
:101A0000B0912022109709F140E050E0AC17BD07DB
:101A100008F1AA83BB83FE0121913191E20FF31FEC
:101A2000AE17BF0779F48D919C911197280F391F3C
:101A30002E5F3F4F2883398312968D919C91139787
:101A40008A839B834115510571F4C0931F22D09363
:101A5000202220C012968D919C911397AD01009782
:101A600011F0DC01D3CFFA01C283D38321913191EC
:101A7000E20FF31FCE17DF0769F488819981280FE1
:101A8000391F2E5F3F4FFA01208331838A819B816A
:101A900082839383DF91CF910895FB01DC0102C023
:101AA00001900D9241505040D8F70895DC0101C0DB
:101AB0006D9341505040E0F70895A0E0B0E0E3E6B8
:101AC000FDE00C94FF0FFE013596619171918091BC
:101AD000232290912422AF010E94720D2096E2E011
:101AE0000C941B10ABE0B0E0E8E7FDE00C94EF0FC6
:101AF0003C012B015A01FC0116821782838181FD72
:101B000003C06FEF7FEFC6C19AE0892E1E010894D3
:101B1000211C311CF3012381F20123FD859123FF58
:101B200081912F01882309F4B2C1853239F423FD54
:101B3000859123FF81912F01853229F490E0B30133
:101B40000E94650FE7CF982FFF24EE249924FFE130
:101B5000FF15D0F09B3269F09C3228F4903259F096
:101B6000933291F40EC09D3249F0903369F441E014
:101B700024C052E0F52A84E0F82A28C098E0F92A27
:101B800025C0E0E1FE2A22C0F7FC29C0892F80533E
:101B90008A3070F4F6FE05C0989C902C1124980EA3
:101BA00015C0E89CE02C1124E80EF0E2FF2A0EC0DC
:101BB0009E3229F4F6FC6BC140E4F42A07C09C363F
:101BC00019F450E8F52A02C0983649F4F20123FDD1
:101BD000959123FF91912F01992309F0B8CF892F77
:101BE0008554833018F08052833038F444E050E05C
:101BF000A40EB51E5FE359830FC0933631F09337BF
:101C000079F0933509F056C020C0F50180818983B1
:101C100042E050E0A40EB51E610101E010E012C0E8
:101C2000F501C080D180F6FC03C06FEF7FEF02C0EA
:101C3000692D70E042E050E0A40EB51EC6010E947E
:101C40005A0F8C015FE7F52214C0F501C080D180E6
:101C5000F6FC03C06FEF7FEF02C0692D70E042E039
:101C600050E0A40EB51EC6010E944F0F8C0150E833
:101C7000F52AF3FE07C01AC080E290E0B3010E948B
:101C8000650FEA948E2D90E008171907A8F30EC08F
:101C9000F601F7FC8591F7FE81916F0190E0B301A9
:101CA0000E94650FE110EA940150104001151105E2
:101CB00079F7EAC0943611F0993669F5F7FE08C055
:101CC000F501208131814281538184E090E00AC096
:101CD000F501808191819C01442737FD4095542F67
:101CE00082E090E0A80EB91E9FE6F92257FF09C0D6
:101CF00050954095309521953F4F4F4F5F4FE0E80D
:101D0000FE2ACA01B901A1012AE030E00E94910F28
:101D1000D82ED21840C0953729F41F2D1F7E2AE0F7
:101D200030E01DC01F2D197F9F3661F0903720F4E1
:101D3000983509F0ACC00FC0903739F0983709F0EA
:101D4000A6C004C028E030E00AC0106114FD146091
:101D500020E130E004C014FD166020E132E017FFFE
:101D600008C0F501608171818281938144E050E077
:101D700008C0F50180819181BC0180E090E042E0E3
:101D800050E0A40EB51EA1010E94910FD82ED218CA
:101D90008FE7F82EF122F6FE0BC05EEFF522D91484
:101DA00038F4F4FE07C0F2FC05C08FEEF82202C042
:101DB0001D2D01C0192DF4FE0DC0FE01ED0DF11D0C
:101DC0008081803319F499EEF92208C01F5FF2FE7A
:101DD00005C003C08F2D867809F01F5F0F2DF3FC1F
:101DE00014C0F0FE0FC01E1510F09D2C0BC09D2CD2
:101DF0009E0C911A1E2D06C080E290E0B3010E9455
:101E0000650F1F5F1E15C0F304C01E1510F4E11A04
:101E100001C0EE2404FF0FC080E390E0B3010E94F4
:101E2000650F02FF1DC001FD03C088E790E00EC0F2
:101E300088E590E00BC0802F867891F001FF02C00A
:101E40008BE201C080E2F7FC8DE290E0B3010E94DA
:101E5000650F06C080E390E0B3010E94650F9A947D
:101E6000D914C0F3DA94F101ED0DF11D808190E0F9
:101E7000B3010E94650FDD20A9F706C080E290E063
:101E8000B3010E94650FEA94EE20C1F743CEF3013F
:101E900066817781CB012B96E2E10C940B10FC015B
:101EA0000590615070400110D8F7809590958E0F85
:101EB0009F1F0895FC016150704001900110D8F7F8
:101EC000809590958E0F9F1F08950F931F93CF932A
:101ED000DF938C01EB018B8181FF1BC082FF0DC062
:101EE0002E813F818C819D812817390764F4E88118
:101EF000F9810193E883F98306C0E885F985802F8D
:101F00000995892B31F48E819F8101968E839F8361
:101F100002C00FEF1FEFC801DF91CF911F910F910A
:101F20000895FA01AA27283051F1203181F1E8946F
:101F30006F936E7F6E5F7F4F8F4F9F4FAF4FB1E0BC
:101F40003ED0B4E03CD0670F781F891F9A1FA11DB7
:101F5000680F791F8A1F911DA11D6A0F711D811DB8
:101F6000911DA11D20D009F468943F912AE0269F7D
:101F700011243019305D3193DEF6CF010895462FDC
:101F80004770405D4193B3E00FD0C9F7F6CF462FBD
:101F90004F70405D4A3318F0495D31FD4052419326
:101FA00002D0A9F7EACFB4E0A695979587957795E3
:101FB0006795BA95C9F700976105710508959B016A
:101FC000AC010A2E06945795479537952795BA95F3
:101FD000C9F7620F731F841F951FA01D08952F92CC
:101FE0003F924F925F926F927F928F929F92AF92A9
:101FF000BF92CF92DF92EF92FF920F931F93CF93F6
:10200000DF93CDB7DEB7CA1BDB0B0FB6F894DEBF8C
:102010000FBECDBF09942A88398848885F846E84B2
:102020007D848C849B84AA84B984C884DF80EE80FC
:10203000FD800C811B81AA81B981CE0FD11D0FB605
:10204000F894DEBF0FBECDBFED010895F894FFCF29
:0A2050002573002000272200000085
:00000001FF
