:100000000C94F4000C94B4020C9415010C9415019A
:100010000C9415010C9415010C9415010C94150108
:100020000C9415010C9415010C9415010C941501F8
:100030000C9415010C9415010C9415010C941501E8
:100040000C9415010C9415010C9415010C941501D8
:100050000C9415010C9415010C9415010C941501C8
:100060000C9415010C9486110C9430100C94E80D2E
:100070000C945D110C9407100C94110E0C94150146
:100080000C9415010C9415010C9415010C94150198
:100090000C9415010C9415010C9415010C94150188
:1000A0000C9415010C9415010C9415010C94150178
:1000B0000C9415010C9415010C9415010C94150168
:1000C0000C9415010C9415010C9415010C94150158
:1000D0000C9415010C9415010C9415010C94150148
:1000E0000C9415010C9415010C94E2100C948C0FD7
:1000F0000C948C0E0C94B9100C94630F0C94B50EE8
:100100000C9415010C9415010C9415010C94150117
:100110000C9415010C9415010C9415010C94150107
:100120000C9415010C9415010C9415010C941501F7
:100130000C9415010C9415010C9415010C941501E7
:100140000C9415010C9415010C9415010C941501D7
:100150000C9415010C9415010C9415010C941501C7
:100160000C9434110C94DE0F0C943A0E0C940B1179
:100170000C94B50F0C94630E0C9415010C9415019E
:100180000C9415010C9415010C9415010C94150197
:100190000C9415010C9415010C9415010C94150187
:1001A0000C9415010C9415010C9415010C94150177
:1001B0000C9415010C9415010C9415010C94150167
:1001C0000C9415010C9415010C9415010C94150157
:1001D0000C9415010C9415010C9415010C949010BD
:1001E0000C943A0F0C94DE0E11241FBECFEFDFE506
:1001F000DEBFCDBF00E00CBF10E2A0E0B0E2E4E063
:10020000FFE200E00BBF02C007900D92AA30B107D9
:10021000D9F718E2AAE0B0E201C01D92AA3BB107EB
:10022000E1F70E94EB020C9480170C945F0280E2CD
:1002300096E008958330B1F084303CF4813061F071
:10024000823074F4882351F015C0853079F0853000
:100250005CF0863079F40CC082E0089581E0089566
:1002600084E0089588E0089580E1089580E208958B
:1002700080E4089580E80895EF92FF921F9390E242
:10028000E92E96E0F92EF70114810E941A01182731
:10029000F70114831F91FF90EF90089584E00E946E
:1002A0003C0181E00E943C0182E00E943C0183E02D
:1002B0000E943C0180E00E943C0185E00E943C01DC
:1002C00086E00E943C0187E00E943C010895EF9285
:1002D000FF921F9320E2E22E26E0F22EF701168114
:1002E0000E941A01182BF70116831F91FF90EF90BF
:1002F000089584E00E94670181E00E94670182E026
:100300000E94670183E00E94670180E00E9467010C
:1003100085E00E94670186E00E94670187E00E94F5
:1003200067010895EF92FF921F9330E2E32E36E0CB
:10033000F32EF70115810E941A01182BF70115837E
:100340001F91FF90EF90089584E00E94920181E058
:100350000E94920182E00E94920183E00E94920139
:1003600080E00E94920185E00E94920186E00E9456
:10037000920187E00E9492010895FF920F931F93CC
:1003800000E216E0F801F18084E00E941A01F82AE8
:10039000F801F182F18081E00E941A01F82AF80147
:1003A000F182F18082E00E941A01F82AF801F182BC
:1003B000F18083E00E941A01F82AF801F182F180AD
:1003C00080E00E941A01F82AF801F182F18085E0AC
:1003D0000E941A01F82AF801F182F18086E00E9459
:1003E0001A01F82AF801F182F18087E00E941A01CF
:1003F000F82AF801F1821F910F91FF9008950F9351
:10040000DF93CF930F92CDB7DEB72FB72983F89440
:100410001BBEFC0108ED04BF608389818FBF0F9074
:10042000CF91DF910F9108950F93DF93CF930F92A8
:10043000CDB7DEB786E00E9467018FB78983F89455
:100440001BBE23E083E590E0FC0108ED04BF2083A0
:1004500089818FBFE0E5F0E02BEC22838091500092
:1004600088608093500090E009C08091530081FF24
:1004700005C0809153008260838391E08091510098
:1004800083FD03C0992389F3E8CF992331F72091A5
:1004900040008FB78983F8941BBE287F236080E4D7
:1004A00090E0FC0108ED04BF208389818FBF86E0C6
:1004B0000E9492010F90CF91DF910F9108951F92AA
:1004C0000F920FB60F920BB60F9211242F933F93FA
:1004D0004F935F936F937F938F939F93AF93BF934C
:1004E000CF93DF93EF93FF93F894C0E9D1E083E0DB
:1004F0000E94670188EE93E0FE013197F1F70197C2
:10050000D9F782E00E94670188EE93E0FE013197FF
:10051000F1F70197D9F781E00E94670188EE93E037
:10052000FE013197F1F70197D9F783E00E9492011C
:1005300088EE93E0FE013197F1F70197D9F782E059
:100540000E94920188EE93E0FE013197F1F7019746
:10055000D9F781E00E94920188EE93E0FE01319785
:10056000F1F70197D9F7C3CF1F920F920FB60F92F1
:100570000BB60F9211242F933F934F935F936F937A
:100580007F938F939F93AF93BF93CF93DF93EF931B
:10059000FF93F894C0E9D1E083E00E94670188EE00
:1005A00093E0FE013197F1F70197D9F782E00E94BD
:1005B000670188EE93E0FE013197F1F70197D9F7D3
:1005C00081E00E94670188EE93E0FE013197F1F728
:1005D0000197D9F7E1CFEF92FF920F931F93DF932B
:1005E000CF93CDB7DEB7C153D140CDBFDEBF0E94A0
:1005F000BD010E94790184E00E9492010E941402D0
:100600007894E0E0F6E081E0818382E0818384E019
:10061000818388E0818380E181830E94E50C0E94D0
:100620006E138E010F5F1F4FC8010E9465080E9464
:10063000BF080E94A105C80162E04DE155E02AE132
:1006400035E00E94EA06C80165E045EC58E024EC7C
:1006500038E00E94EA0688E893E120E931E0F901F8
:100660003197F1F70197D9F784E00E94670100E024
:1006700010E07E010894E11CF11CC7010E949C0758
:10068000C7010E942A070F5F1F4F83E1093818072F
:10069000A0F3F89480E00E943C0182E00E943C01BB
:1006A00083E00E943C01789400E010E0E6CFFC017A
:1006B000118E81E0868B08950F931F93DF93CF9364
:1006C000CDB7DEB76A97CDBFDEBF8C01FC0186894E
:1006D000833091F0843030F4813091F0823009F031
:1006E00071C029C0853009F46BC0853008F455C04D
:1006F000863009F067C002C081E065C084E063C055
:1007000089ED90E20E94C709882309F05BC0F801D7
:1007100085898A8381918983EB83FC8389ED90E2CB
:10072000BE016F5F7F4F0E94D80AC80147960E94A2
:10073000881382E042C0CE0107968B839C8389EDAB
:1007400090E20E94B009892BF9F089ED90E2BE0198
:100750006F5F7F4F44E10E943A0AEB81FC81808108
:10076000813019F4F801118E29C04A8198012F5F58
:100770003F4FC901BF0150E00E94BE148A81F801B9
:10078000858B83E0868B1FC0C80147960E947D132E
:100790008F349105B8F084E010C08091040690E198
:1007A0008927E0E0F6E08483F801818D8F5F818FF7
:1007B000883010F085E002C081E0F801868B02C02D
:1007C00082E001C083E06A96CDBFDEBFCF91DF91AA
:1007D0001F910F9108950F931F93DF93CF9300D034
:1007E00000D0CDB7DEB78C018DE691E20E945C03AC
:1007F000813019F08230D1F416C0C8010E946D0713
:100800008823A1F48EE691E28B839C8380918221E0
:100810008A8388E08983C801BE016F5F7F4F0E9491
:100820008407882319F086E08093832180918321B7
:100830008630E9F487E891E20E94D5068823B9F072
:100840008EE691E28B839C834996BE016F5F7F4F5A
:100850000E948706882359F087E780936D218A815B
:10086000809382211092862181E0809383212696B5
:10087000CDBFDEBFCF91DF911F910F910895CF9330
:10088000DF93EB0187E891E20E94D506843021F4E2
:1008900087E891E20E94C30687E891E2BE010E94C8
:1008A0004106DF91CF910895AF92BF92CF92EF9220
:1008B0000F931F9386E4A82E81E2B82EC50166E04F
:1008C00047E02AE030E00AE010E0EE24E394CC2494
:1008D000C3940E94F41189ED90E2B5010E94140BBB
:1008E00086E08093832187E891E264E044E12EE88A
:1008F00031E206EA11E20E940F061F910F91EF907C
:10090000CF90BF90AF9008950F931F93DF93CF9335
:10091000CDB7DEB76A97CDBFDEBF8C01CE0107969B
:100920008B839C838DE390E20E94B009892BC1F0F8
:100930008DE390E2BE016F5F7F4F44E10E943A0A6F
:1009400099E09983882331F481E08A83EB81FC81EB
:100950008FEF8083C801BE016F5F7F4F0E948407C5
:100960006A96CDBFDEBFCF91DF911F910F910895A1
:10097000DF93CF9300D000D0CDB7DEB7FB0181E08D
:10098000898382E08A83828193818B839C838DE338
:1009900090E2BE016F5F7F4F0E94D80A84E0898396
:1009A0002696CDBFDEBFCF91DF910895AF92BF9263
:1009B000CF92EF920F931F938AEAA82E80E2B82E6F
:1009C000C50160E044E02AE030E00AE010E0EE24F7
:1009D000E394CC24C3940E94F4118DE390E2B5011A
:1009E0000E94140B1F910F91EF90CF90BF90AF908A
:1009F0000895DF93CF93CDB7DEB76A97CDBFDEBF43
:100A0000CE0107968B839C8384E894E20E94B00910
:100A1000892B51F084E894E2BE016F5F7F4F44E17F
:100A20000E943A0A84E089836A96CDBFDEBFCF91E7
:100A3000DF9108950E94F9040895DF93CF93CDB715
:100A4000DEB76A97CDBFDEBF9C01FB010280F38158
:100A5000E02D8081843531F48F8381818887828184
:100A600089870DC080818D3471F48F838081888760
:100A70008181898781818093AC281092AD2884E0A0
:100A8000898383E026C080818434A9F48F83E2E9DE
:100A9000F8E2DE01189680818C93818111968C9307
:100AA00011973496129688E2EA3AF807A1F784E0A3
:100AB00089838DE00EC08DE48F839FE4988784E561
:100AC00089879A8782E58B8780818C8784E08983F8
:100AD00086E08A83CE0107968B839C83C901BE0181
:100AE0006F5F7F4F0E9484076A96CDBFDEBFCF91B4
:100AF000DF9108950F931F93DF93CF93CDB7DEB7A8
:100B00002997CDBFDEBF2091AC2829836C8321E0DB
:100B10002D839E012F5F3F4F2E833F838E010C5FFD
:100B20001F4FB8010E94840784E894E2B8010E9434
:100B3000D80A2996CDBFDEBFCF91DF911F910F91CB
:100B40000895CF92EF920F931F931092AC281092BA
:100B5000AD281092AE281092AF281092A8281092BB
:100B6000A928E0E9F8E210821182128213823496F9
:100B700088E2E83AF807B9F78EE898E20E9488130D
:100B800086E695E264E044E02AE030E00AE010E026
:100B9000EE24CC24C3940E94F411E0E8F6E081E155
:100BA000818380E1858381E0868384E894E266E640
:100BB00075E20E94140B1F910F91EF90CF90089552
:100BC0000F931F93CF93DF93DC016C9311964C939B
:100BD000119712962D933C93139714961C92149789
:100BE00015961C92159716961C921697E80140E0F0
:100BF00020E030E00DC01296ED91FC911397E20FCA
:100C0000F31F89919991828393834F5F2A5F3F4FAE
:100C1000461788F3DF91CF911F910F910895FF92AE
:100C20000F931F93DC01F62E6C9311964C93119742
:100C300012962D933C93139714961C921497159625
:100C40001C92159716961C921697642F70E050E030
:100C500020E030E00EC01296ED91FC911397E20F68
:100C6000F31FC801861B970B828393835F5F2A5F04
:100C70003F4F060F171F5F1570F31F910F91FF90E5
:100C800008950F931F93CF93DF93FC018B01608135
:100C90004681461710F080E035C0858126E0829FAE
:100CA00090011124C281D381C20FD31F90E001961D
:100CB00070E00E94A61385834F5F4683D8018C9114
:100CC000888311968C911197898311968C919181CB
:100CD000981708F4998320E00FC0822F90E0AA8132
:100CE000BB81A80FB91FF80142815381480F591FDA
:100CF000FA0180818C932F5FD80111968C9128176F
:100D000060F381E0DF91CF911F910F9108950F93D0
:100D10001F93CF93DF93FC018B014681442311F491
:100D200080E02CC0848126E0829F90011124C28142
:100D3000D381C20FD31F90E06081019670E00E94C2
:100D4000A6138483415046838881F801808389817A
:100D5000818320E00EC0822F90E0F801A281B38150
:100D6000A80FB91FEA81FB81E80FF91F80818C93DE
:100D70002F5FF8018181281770F381E0DF91CF9117
:100D80001F910F910895FC012681222311F480E028
:100D90000895848190E06081019670E00E94A6131E
:100DA00084832150268381E00895FC018681089583
:100DB000813011F480E00895853011F481E00895C8
:100DC000823039F0833029F08A3011F08FEF0895A6
:100DD00084E00895CF92DF92EF92FF920F931F93DA
:100DE0008C01862F7A0169010E94D806992787FD18
:100DF0009095FC01E65BFF4FEE0FFF1FE00FF11F28
:100E0000E082F182FC01E15BFF4FEE0FFF1FE00F7C
:100E1000F11FC082D1822BE130E0AC01429FC001C2
:100E2000439F900D529F900D1124F801E80FF91F78
:100E3000E555FF4F81559F4F800F911F8083918310
:100E4000339781E080831F910F91FF90EF90DF90A7
:100E5000CF900895EF92FF920F931F93CF93DF935C
:100E60008C01EC01C256DF4F48EAE42EF12CE80E6B
:100E7000F91EE881F981309711F0C8011995229681
:100E8000CE15DF05B1F7DF91CF911F910F91FF9044
:100E9000EF9008950F931F93CF93DF93EC018B0195
:100EA000FB0180810E94D80687FD12C0E82FFF2732
:100EB000E7FDF095E65BFF4FEE0FFF1FEC0FFD1F08
:100EC0000190F081E02D309719F0CE01B80119950D
:100ED000DF91CF911F910F910895CF93DF93EC0194
:100EE00087960E94C709882349F4CE01815D9E4FF1
:100EF0000E947D1320E030E0039710F421E030E001
:100F0000822FDF91CF9108950F931F93CF93DF939B
:100F1000EC018B01815D9E4F0E947D13039710F4BD
:100F200080E005C0CE018796B8010E94D80ADF9103
:100F3000CF911F910F9108954F925F926F927F9280
:100F40008F929F92AF92BF92CF92DF92EF92FF92D9
:100F50000F931F93DF93CF93CDB7DEB76A97CDBFC3
:100F6000DEBF6C01CE0107968B839C83FBEAEF2EDC
:100F7000F12CEC0CFD1C00E010E0EBE16E2E712C6E
:100F800072E0472E552453944E010894811C911C05
:100F9000069DD001079DB00D169DB00D1124AC0D1E
:100FA000BD1D68EAA62EB12CAA0EBB1EF5018081DC
:100FB0008823B9F4F70120813181F90180814982C8
:100FC000A655BF4F8C918A834A818B819C81B90140
:100FD00050E00E94BE14F5015082C601B4010E9487
:100FE0004A070F5F1F4F8BE190E0E80EF91E0530B6
:100FF000110571F66A96CDBFDEBFCF91DF911F91CB
:101000000F91FF90EF90DF90CF90BF90AF909F90A7
:101010008F907F906F905F904F90089580910A20FD
:1010200090910B20009721F0815D9E4F0E948813C4
:101030000895EF92FF920F931F93CF93DF93EC01EC
:1010400000910A2010910B2001151105B9F1C55B23
:10105000DF4F8881CB54D0400E94D80687FD15C051
:10106000282F332727FD30958BE190E0289F7001D2
:10107000299FF00C389FF00C1124F801EE0DFF1D94
:10108000E855FF4F8081882321F4CB59DF4F188228
:1010900015C0C70187559F4F080F191FCE01B80112
:1010A00044E10E943A0A882349F0E0910A20F09135
:1010B0000B20EE0DFF1DE855FF4F1082DF91CF9101
:1010C0001F910F91FF90EF900895CF92EF920F93A1
:1010D0001F93CF93DF93EC01FC01EC56FF4FDC0133
:1010E000A555BF4F20E030E04BE150E01082118267
:1010F00012861386249FC001259F900D349F900D6A
:10110000112481559F4F8C0F9D1F8D939C93119798
:101110002F5F3F4F32965B962530310539F7CE0170
:1011200065E045E02FEF30E00FEF10E0EE24CC2437
:10113000C3940E94F4118E01095D1F4FC801BE01C6
:101140000E94140BC80169E178E00E94A409C8015B
:101150006EE078E00E94AA0980910A2090910B200D
:10116000815D9E4F0E948813C0930A20D0930B206C
:10117000DF91CF911F910F91EF90CF900895109232
:101180007B2810927C2808950895DF93CF93CDB7E4
:10119000DEB76097CDBFDEBFAC01FB010280F381FB
:1011A000E02D8081843571F48F83818188878281ED
:1011B000898784E0898385E08A83CE0107968B83C3
:1011C0009C8330C090819E01295F3F4F9130A1F4F4
:1011D00084E089832B833C8388E08A839F83F8940F
:1011E000D9011196FA01E357FF4F87E001900D9264
:1011F0008150E1F7789416C088E58F838DE4888765
:1012000085E4898787E48A8781E48B8780818C875E
:1012100081818D8782818E8784E0898388E08A83BB
:101220002B833C83CA01BE016F5F7F4F0E948407FE
:101230006096CDBFDEBFCF91DF9108950F931F93CE
:10124000DF93CF93CDB7DEB76A97CDBFDEBF8C01FA
:10125000CE0107968B839C8386E092E20E94B009C0
:10126000892BD9F0C8010E946D078823B1F486E06C
:1012700092E2BE016F5F7F4F44E10E943A0A8823E9
:1012800021F48FEF8F8381E08A8387E08983C8010F
:10129000BE016F5F7F4F0E9484078AE992E20E943D
:1012A000D5068823B9F086E092E20E94C709882318
:1012B00089F48AE992E28E010F5F1F4FB8010E9404
:1012C0008706882339F082E0898386E092E2B801BC
:1012D0000E94D80A6A96CDBFDEBFCF91DF911F91E1
:1012E0000F9108958AE992E20E9441060895AF9213
:1012F000BF92CF92EF920F931F9383E7A82E82E2C3
:10130000B82EC50161E044E02AE030E00AE010E0D8
:10131000EE24E394CC24C3940E94F41186E092E27C
:10132000B5010E94140B8AE992E266E044E121EAE9
:1013300032E205EC12E20E940F061F910F91EF902E
:10134000CF90BF90AF900895FC01E95BFF4F6083A1
:1013500071830895FC01E75BFF4F608371830895FB
:10136000FC01EB59FF4F2081332727FD3095C90140
:101370000895FC01683050F405ACF6ADE02DE60FA1
:10138000F11DEB59FF4F80818F5F80830895029696
:101390000E94A40C811181E008950F931F93CF93B5
:1013A000DF93DC01DD96CD91DC91DE978E010B5948
:1013B0001F4FF8018081882331F557968C915797FC
:1013C000C55BDF4F8883CB54D04054968C915497A3
:1013D000FE01E45BFF4F80834081FE01E35BFF4F32
:1013E00080819181BD0150E00E94BE1481E0F8012E
:1013F0008083C95BDF4FE881F981C754D0403097C3
:1014000011F0CE011995DF91CF911F910F910895A1
:10141000CF93DF93FC01EB019C012F5B3F4FD90180
:101420008D919C91009711F480E021C0DC018C919A
:101430008883D9012D913C91D90111968C911197F6
:10144000481718F411964C9304C0D90111968C9149
:1014500089834981EF5BFF4F0190F081E02D62812C
:1014600073818A819B8150E00E94BE1481E0DF91EC
:10147000CF910895CF93DF93EC01DB01CB59DF4F80
:101480008881C556D040882341F1C55BDF4F8881F4
:10149000CB54D0408C93FE01E45BFF4F8081481712
:1014A00020F411964C93119704C0808111968C936F
:1014B000119711964C911197FE01E35BFF4F6081EC
:1014C000718112968C91129713969C9150E00E9414
:1014D000BE14CB59DF4F188281E0DF91CF91089580
:1014E000DC01DD96ED91FC91DE97808191810E9477
:1014F000D9110895FC01878D90A102960E941E0CBF
:101500000895FC01878D90A102960E94DD0B08953D
:10151000CF93DF93EC01009751F0188219828A81F2
:101520009B81009711F00E9466141A821B82DF9142
:10153000CF9108950F931F93CF93DF93FC01EF5B3F
:10154000FF4FC081D1810CC01C810D81CE010E9452
:10155000880ACE010E946614212F302FC901EC01A8
:10156000209791F7DF91CF911F910F9108950F93DD
:101570001F938C01DC01DD96ED91FC91DE9780815B
:10158000918160E00E94AC0DD801DD96ED91FC9157
:10159000DE97E75BFF4F20813181E954F040211550
:1015A000310519F0CF01F90119951F910F91089597
:1015B000CF92DF92FF920F931F93CF93DF938C0113
:1015C000EB01F98092E0C92ED12CC00ED11EC601CC
:1015D0000E94A40C8823F9F484E18F1510F484E1AF
:1015E000F82E9801245E3F4F6A817B81C9014F2DFF
:1015F00050E00E94BE14F8018081918161E00E9458
:10160000AC0D6881C6014F2D0E94AC0C882311F4EB
:1016100081E002C0789480E0DF91CF911F910F911B
:10162000FF90DF90CF9008950F931F938C01FC01E2
:1016300061937193CF010E94800B87EB9AE0D801F0
:10164000D9968D939C93DA9780E79AE0D7968D93FD
:101650009C93D8978DEC99E0DB968D939C93DC97C7
:1016600089EB99E0DD968D939C93DE97F801FF96C8
:1016700000831183095B1F4FF801119211928F01B2
:101680001082118204501040D8011D921C92045007
:101690001040F801119211928F01108211820354AF
:1016A0001040F801E35BFF4F0F5A1F4F0083118377
:1016B0000C5E1F4FD8011C9205561040D801ED91C9
:1016C000FC91078F10A381E89AE081A392A38AE797
:1016D0009AE083A394A30A591F4FC80160E070E009
:1016E00047E050E00E94C7141F910F910895DC015C
:1016F000DB96ED91FC91DC97309709F019950895F0
:10170000FC01118E168A15AA16AA17AA10AE11AEE0
:1017100012AE13AE14AE84E186A717A610AA11AAC2
:1017200013AA14AA15AE16AE0895CF93DF93EC0159
:10173000898D823071F0833018F48130D9F505C07D
:101740008330A9F08430B1F524C06F8B688F82E0BC
:101750001EC0653130F0198ECE0164E00E94770B17
:1017600029C06D8B888D860F888F83E010C09D897E
:1017700091509D8B888D860F888F8C89FE01E80F94
:10178000F11D60838F5F8C8B9923A1F484E0898F96
:1017900011C0888D8095888F681739F4E9ADFAAD4E
:1017A000309739F0CE01199504C0CE0165E00E9452
:1017B000770B198EDF91CF910895CF93DF93EC01D2
:1017C000862F81508E3F18F0CE0167E012C0898DC0
:1017D0006A3C59F4882321F0CE0161E00E94770B26
:1017E00081E0898F1C8A1E8A26C0882329F4CE01B5
:1017F00062E00E94770B1FC06C3519F481E08E8B7C
:101800001AC08E898823A1F01E8A633051F064309B
:1018100018F4623069F407C0643039F0653041F47F
:1018200006C06CE505C06AEC03C060E001C06FEF64
:10183000CE010E94950BDF91CF910895DC01D296E5
:101840006C91D297662309F073C09E968C919E97F7
:10185000813111F1823130F48F3051F0803109F053
:101860005FC00EC0823199F1833109F059C038C090
:101870009F966C919F97D1966C93D19780E12CC0E5
:10188000D0966C91D097D1968C91D197860FD196A6
:101890008C93D19781E120C0D396ED91FC91D497A0
:1018A0006191D1968C91D197860FD1968C93D197D7
:1018B000D396ED93FC93D497D0968C91D09781508A
:1018C000D0968C93D0978823C1F482E105C0D1963D
:1018D0006C91D197609583E19E968C939E970DC0F5
:1018E00084E19E968C939E97D796ED91FC91D89724
:1018F000309749F1CD01199508956C3561F06D353A
:1019000018F4662369F014C06A3C19F06F3F81F443
:1019100009C082E008C083E0D2968C93D2970BC0B6
:1019200084E001C085E0D2968C93D2976CE503C029
:10193000D2961C92D297D596ED91FC91D69730977E
:1019400011F0CD011995089520E0FC0186A58431A0
:1019500009F021E0822F08950F931F93CF93DF9317
:10196000EC018EA5843111F08FEF2AC08DA99EA9BC
:10197000892B11F48EEF24C0453110F08DEF20C07B
:101980006FA748AB8E01065E1F4F00D00F9280E01C
:1019900090E2EDB7FEB781839283038314830E94A4
:1019A000CE140BAB1CAB1AAA8FE08EA70F900F9032
:1019B0000F900F90EDA9FEA9CE016AEC199580E079
:1019C000DF91CF911F910F9108958DEF9CE080934F
:1019D000F6219093F7218DEF8093D12085EF9CE045
:1019E0008093F8219093F9218CEF8093D22085EE9B
:1019F0009CE08093FA219093FB218BEF8093D3207E
:101A000085EC9CE08093FC219093FD218AEF8093EC
:101A1000D42085E89CE08093FE219093FF2129EF5C
:101A20002093D52087ED93E08093002290930122AC
:101A30002093D62083E096E08093022290930322A5
:101A40002093D72081E090E0809304229093052298
:101A500081E08093D82080EA98E080930C209093D6
:101A60000D2020E436E020930E2030930F20A8E0D4
:101A7000A093102074E0709311201092122080EB3C
:101A800098E0809313209093142020931520309396
:101A9000162060E86093172050E450931820E0E28D
:101AA000E093192080EA99E080931A2090931B20FC
:101AB00020E636E020931C2030931D20A0931E20AA
:101AC00070931F2040E14093202080EB99E08093A9
:101AD0002120909322202093232030932420609370
:101AE000252050932620E093272080EA9AE08093D7
:101AF000282090932920E0E8F6E0E0932A20F09354
:101B00002B20A0932C2070932D2040932E2080EB2F
:101B10009AE080932F2090933020E0933120F0932F
:101B2000322060933320509334204093352080EA54
:101B30009BE0809336209093372080EA96E0809354
:101B4000382090933920A0933A2070933B20409303
:101B50003C2082E081830895DC0113968C911397D9
:101B6000882301F1662379F01496ED91FC91159785
:101B700084818F7E84831696ED91FC9117971A9637
:101B80008C91858308951696ED91FC9117971A967E
:101B90008C911A9786831496ED91FC911597848108
:101BA000806184830895E82FF0E0EE0FFF1FE05876
:101BB000F74D0190F081E02D85A1882341F023A10C
:101BC00034A12115310519F0CF01F90119950895B6
:101BD0001F920F920FB60F920BB60F9211242F93F4
:101BE0003F934F935F936F937F938F939F93AF93A5
:101BF000BF93EF93FF9380E00E94D30DFF91EF918D
:101C0000BF91AF919F918F917F916F915F914F9114
:101C10003F912F910F900BBE0F900FBE0F901F9012
:101C200018951F920F920FB60F920BB60F921124B8
:101C30002F933F934F935F936F937F938F939F93D4
:101C4000AF93BF93EF93FF9381E00E94D30DFF9179
:101C5000EF91BF91AF919F918F917F916F915F9124
:101C60004F913F912F910F900BBE0F900FBE0F9091
:101C70001F9018951F920F920FB60F920BB60F92EE
:101C800011242F933F934F935F936F937F938F9381
:101C90009F93AF93BF93EF93FF9382E00E94D30D86
:101CA000FF91EF91BF91AF919F918F917F916F9134
:101CB0005F914F913F912F910F900BBE0F900FBEF0
:101CC0000F901F9018951F920F920FB60F920BB6A0
:101CD0000F9211242F933F934F935F936F937F93B2
:101CE0008F939F93AF93BF93EF93FF9383E00E94F3
:101CF000D30DFF91EF91BF91AF919F918F917F9104
:101D00006F915F914F913F912F910F900BBE0F906C
:101D10000FBE0F901F9018951F920F920FB60F9243
:101D20000BB60F9211242F933F934F935F936F93B2
:101D30007F938F939F93AF93BF93EF93FF9384E031
:101D40000E94D30DFF91EF91BF91AF919F918F9121
:101D50007F916F915F914F913F912F910F900BBEAB
:101D60000F900FBE0F901F9018951F920F920FB6F5
:101D70000F920BB60F9211242F933F934F935F93C3
:101D80006F937F938F939F93AF93BF93EF93FF9343
:101D900085E00E94D30DFF91EF91BF91AF919F918C
:101DA0008F917F916F915F914F913F912F910F9004
:101DB0000BBE0F900FBE0F901F9018951F920F92A1
:101DC0000FB60F920BB60F9211242F933F934F93A0
:101DD0005F936F937F938F939F93AF93BF93EF9393
:101DE000FF9386E00E94D30DFF91EF91BF91AF91D9
:101DF0009F918F917F916F915F914F913F912F9123
:101E00000F900BBE0F900FBE0F901F901895459628
:101E10000E94361308950B960E94361308950F936F
:101E20001F93CF93DF93C82FD0E0CC0FDD1FC05896
:101E3000D74DE881F98185A18823B9F4CF010B96AC
:101E40000E943613E881F981892B39F40480F581E9
:101E5000E02D83818C7F838308C004811581CF01AD
:101E60000B960E94EA12F8018083DF91CF911F91B7
:101E70000F9108951F920F920FB60F920BB60F920B
:101E800011242F933F934F935F936F937F938F937F
:101E90009F93AF93BF93EF93FF9386E00E940F0F42
:101EA000FF91EF91BF91AF919F918F917F916F9132
:101EB0005F914F913F912F910F900BBE0F900FBEEE
:101EC0000F901F9018951F920F920FB60F920BB69E
:101ED0000F9211242F933F934F935F936F937F93B0
:101EE0008F939F93AF93BF93EF93FF9385E00E94EF
:101EF0000F0FFF91EF91BF91AF919F918F917F91C4
:101F00006F915F914F913F912F910F900BBE0F906A
:101F10000FBE0F901F9018951F920F920FB60F9241
:101F20000BB60F9211242F933F934F935F936F93B0
:101F30007F938F939F93AF93BF93EF93FF9384E02F
:101F40000E940F0FFF91EF91BF91AF919F918F91E1
:101F50007F916F915F914F913F912F910F900BBEA9
:101F60000F900FBE0F901F9018951F920F920FB6F3
:101F70000F920BB60F9211242F933F934F935F93C1
:101F80006F937F938F939F93AF93BF93EF93FF9341
:101F900083E00E940F0FFF91EF91BF91AF919F914E
:101FA0008F917F916F915F914F913F912F910F9002
:101FB0000BBE0F900FBE0F901F9018951F920F929F
:101FC0000FB60F920BB60F9211242F933F934F939E
:101FD0005F936F937F938F939F93AF93BF93EF9391
:101FE000FF9382E00E940F0FFF91EF91BF91AF919D
:101FF0009F918F917F916F915F914F913F912F9121
:102000000F900BBE0F900FBE0F901F9018951F9250
:102010000F920FB60F920BB60F9211242F933F938E
:102020004F935F936F937F938F939F93AF93BF93E0
:10203000EF93FF9381E00E940F0FFF91EF91BF910B
:10204000AF919F918F917F916F915F914F913F9150
:102050002F910F900BBE0F900FBE0F901F901895F1
:102060001F920F920FB60F920BB60F9211242F935F
:102070003F934F935F936F937F938F939F93AF9310
:10208000BF93EF93FF9380E00E940F0FFF91EF91BA
:10209000BF91AF919F918F917F916F915F914F9180
:1020A0003F912F910F900BBE0F900FBE0F901F907E
:1020B000189545960E94EA1208951F93CF93DF93D7
:1020C000C82FD0E0CC0FDD1FC058D74DA881B981F3
:1020D0001496ED91FC911597108195968C9195979A
:1020E000882351F09196ED91FC9192973097A1F051
:1020F000CD01612F199510C0CD014596612F0E9429
:102100009712E881F98121A132A12115310521F031
:10211000CF01612FF9011995DF91CF911F9108959A
:102120001F920F920FB60F920BB60F9211242F939E
:102130003F934F935F936F937F938F939F93AF934F
:10214000BF93EF93FF9386E00E945D10FF91EF91A4
:10215000BF91AF919F918F917F916F915F914F91BF
:102160003F912F910F900BBE0F900FBE0F901F90BD
:1021700018951F920F920FB60F920BB60F92112463
:102180002F933F934F935F936F937F938F939F937F
:10219000AF93BF93EF93FF9385E00E945D10FF9193
:1021A000EF91BF91AF919F918F917F916F915F91CF
:1021B0004F913F912F910F900BBE0F900FBE0F903C
:1021C0001F9018951F920F920FB60F920BB60F9299
:1021D00011242F933F934F935F936F937F938F932C
:1021E0009F93AF93BF93EF93FF9384E00E945D10A2
:1021F000FF91EF91BF91AF919F918F917F916F91DF
:102200005F914F913F912F910F900BBE0F900FBE9A
:102210000F901F9018951F920F920FB60F920BB64A
:102220000F9211242F933F934F935F936F937F935C
:102230008F939F93AF93BF93EF93FF9383E00E949D
:102240005D10FF91EF91BF91AF919F918F917F9121
:102250006F915F914F913F912F910F900BBE0F9017
:102260000FBE0F901F9018951F920F920FB60F92EE
:102270000BB60F9211242F933F934F935F936F935D
:102280007F938F939F93AF93BF93EF93FF9382E0DE
:102290000E945D10FF91EF91BF91AF919F918F913F
:1022A0007F916F915F914F913F912F910F900BBE56
:1022B0000F900FBE0F901F9018951F920F920FB6A0
:1022C0000F920BB60F9211242F933F934F935F936E
:1022D0006F937F938F939F93AF93BF93EF93FF93EE
:1022E00081E00E945D10FF91EF91BF91AF919F91AE
:1022F0008F917F916F915F914F913F912F910F90AF
:102300000BBE0F900FBE0F901F9018951F920F924B
:102310000FB60F920BB60F9211242F933F934F934A
:102320005F936F937F938F939F93AF93BF93EF933D
:10233000FF9380E00E945D10FF91EF91BF91AF91FC
:102340009F918F917F916F915F914F913F912F91CD
:102350000F900BBE0F900FBE0F901F9018954596D3
:102360000E943A1308950B960E943A1308954596D9
:102370000E940C130895CF93DF93EC01EC81FD8153
:1023800083818C7F8383CE010B960E94C512282FF8
:102390008B81882321F0EE81FF818A858583EC8102
:1023A000FD8183818C7F81608383822FDF91CF9138
:1023B0000895DF93CF930F92CDB7DEB7FC01698309
:1023C00085A1882329F00480F581E02D608308C071
:1023D000CF01BE016F5F7F4F41E050E00E94BB1113
:1023E0000F90CF91DF910895AF92BF92CF92DF927D
:1023F000EF92FF920F931F93CF93DF93EC0158015D
:10240000DE2C1F8E18A219A21AA21BA21CA21EA2A9
:102410006883062F10E0D80153E0AA0FBB1F5A951E
:10242000E1F7A01BB10BFC013496A45FBF4D97E010
:102430000D9001929150E1F7E42EFF24E982FA8297
:10244000DB82CC2019F081E08DA30BC01DA2CE0150
:102450000B96B9010E945513CE014596B5010E9415
:102460005513000F111F0058174DD801CD93DC9361
:10247000EE81FF8188858183EE81FF81898582835A
:10248000DD2041F0EE81FF818A858183EE81FF812D
:102490008A858683F894EC81FD8183E08583EC81D5
:1024A000FD8183818F7C80618383DD2011F4CC20CA
:1024B00031F0EC81FD818381837F84608383AC81F3
:1024C000BD81F701EE0FFF1FEA50FE4D8081169689
:1024D0008C93AC81BD81818117968C93EC81FD81B9
:1024E000978121ED30E2E20EF31ED7018C918295A7
:1024F000807F892B8783EC81FD8184818061848347
:10250000EC81FD818481886084838091A200816058
:10251000E0EAF0E082837894DF91CF911F910F91F0
:10252000FF90EF90DF90CF90BF90AF9008951F93F2
:10253000CF93DF93EC01162F6885798581E090E0D9
:102540000E9492134C815D81840F951F2A813B81EB
:102550008217930711F480E014C08E819F81019649
:102560008E839F83E881F981E40FF51F10838C81AE
:102570009D816885798501960E9492138C839D8345
:1025800081E0DF91CF911F910895CF92DF92EF927A
:10259000FF920F931F93CF93DF936C017B018A010E
:1025A000C0E0D0E00AC0F701EC0FFD1FC60160815A
:1025B0000E949712882321F02196C017D10798F323
:1025C000CE01DF91CF911F910F91FF90EF90DF909F
:1025D000CF900895CF93DF93EC012A813B818C81CA
:1025E0009D818217930711F4E0E012C0E881F98120
:1025F000E20FF31FE08168857985C90101960E9489
:1026000092138A839B838E819F8101978E839F8300
:102610008E2FDF91CF910895CF92DF92EF92FF92AC
:102620000F931F93CF93DF937C016B01FC016681B5
:1026300077818A016417750708F48B01C0E0D0E048
:1026400008C0C7010E94EA12F601EC0FFD1F80834B
:102650002196C017D107A8F3C801DF91CF911F9130
:102660000F91FF90EF90DF90CF900895FC0186814D
:1026700097810895FC012085318586819781281BEB
:10268000390BC90108950F931F938C01FC018081C0
:1026900091810E946614F8011082118212821382C5
:1026A000148215821F910F910895EF92FF920F935C
:1026B0001F938C017B01CB010E94B913F801808329
:1026C0009183128213821482158216821782E08609
:1026D000F1861F910F91FF90EF900895E0E0F8E0F0
:1026E0008FEF9FEF86A397A387E080830895E0E0B4
:1026F000F8E020A131A1C9010895DC01E0E0F8E093
:1027000020A131A18D919C91281B390BC9010895FD
:10271000FC01A0E0B8E090968D919C919197808308
:1027200091830895AA1BBB1B51E107C0AA1FBB1FC1
:10273000A617B70710F0A61BB70B881F991F5A954D
:10274000A9F780959095BC01CD01089597FB092EBE
:1027500007260AD077FD04D0E5DF06D000201AF462
:10276000709561957F4F0895F6F7909581959F4FED
:102770000895CF93DF93BC018230910510F462E09D
:1027800070E0A091B228B091B328ED01E0E0F0E054
:1027900040E050E021C0888199818617970769F44D
:1027A0008A819B81309719F08283938304C0809340
:1027B000B2289093B328FE0134C06817790738F423
:1027C0004115510519F08417950708F4AC01FE0175
:1027D0008A819B819C01E9012097E9F64115510509
:1027E000A9F1CA01861B970B049708F4BA01E0E02F
:1027F000F0E02AC08D919C91119784179507F9F408
:102800006417750781F412968D919C9113973097F8
:1028100019F08283938304C08093B2289093B328E5
:10282000FD0132964FC0CA01861B970BFD01E80FD0
:10283000F91F6193719302978D939C9343C0FD019F
:10284000828193819C01D9011097A1F68091B028D3
:102850009091B128892B41F4809105209091062018
:102860008093B0289093B128409107205091082080
:102870004115510541F44DB75EB780910320909109
:102880000420481B590B2091B0283091B1282417FF
:102890003507B0F4CA01821B930B8617970780F0A7
:1028A000AB014E5F5F4F8417950750F0420F531FE7
:1028B0004093B0285093B128F9016193719302C0FD
:1028C000E0E0F0E0CF01DF91CF910895CF93DF9367
:1028D000009709F450C0EC0122971A821B82A09144
:1028E000B228B091B328109709F140E050E0AC173E
:1028F000BD0708F1AA83BB83FE0121913191E20F4C
:10290000F31FAE17BF0779F48D919C911197280F93
:10291000391F2E5F3F4F2883398312968D919C91EA
:1029200013978A839B834115510571F4C093B22894
:10293000D093B32820C012968D919C911397AD012E
:10294000009711F0DC01D3CFFA01C283D383219128
:102950003191E20FF31FCE17DF0769F48881998167
:10296000280F391F2E5F3F4FFA01208331838A8160
:102970009B8182839383DF91CF910895FB01DC01DA
:1029800002C001900D9241505040D8F70895DC01EB
:1029900001C06D9341505040E0F70895DF93CF930D
:1029A000CDB7DEB7FE013696619171918091B62860
:1029B0009091B728AF010E94E014CF91DF91089564
:1029C0002F923F924F925F926F927F928F929F923F
:1029D000AF92BF92CF92DF92EF92FF920F931F932D
:1029E000DF93CF93CDB7DEB72B97CDBFDEBF3C01D2
:1029F0002B015A01FC0116821782838181FD03C0DD
:102A00006FEF7FEFC6C19AE0892E1E010894211C4A
:102A1000311CF3012381F20123FD859123FF819174
:102A20002F01882309F4B2C1853239F423FD859141
:102A300023FF81912F01853229F490E0B3010E9498
:102A4000F616E7CF982FFF24EE249924FFE1FF1517
:102A5000D0F09B3269F09C3228F4903259F09332D6
:102A600091F40EC09D3249F0903369F441E024C0E6
:102A700052E0F52A84E0F82A28C098E0F92A25C017
:102A8000E0E1FE2A22C0F7FC29C0892F80538A305A
:102A900070F4F6FE05C0989C902C1124980E15C079
:102AA000E89CE02C1124E80EF0E2FF2A0EC09E32D2
:102AB00029F4F6FC6BC140E4F42A07C09C3619F4F3
:102AC00050E8F52A02C0983649F4F20123FD9591A9
:102AD00023FF91912F01992309F0B8CF892F8554B5
:102AE000833018F08052833038F444E050E0A40E74
:102AF000B51E5FE359830FC0933631F0933779F0F9
:102B0000933509F056C020C0F5018081898342E0E9
:102B100050E0A40EB51E610101E010E012C0F50105
:102B2000C080D180F6FC03C06FEF7FEF02C0692D3B
:102B300070E042E050E0A40EB51EC6010E94EB1604
:102B40008C015FE7F52214C0F501C080D180F6FC4E
:102B500003C06FEF7FEF02C0692D70E042E050E0EC
:102B6000A40EB51EC6010E94E0168C0150E8F52A9D
:102B7000F3FE07C01AC080E290E0B3010E94F6168F
:102B8000EA948E2D90E008171907A8F30EC0F601FD
:102B9000F7FC8591F7FE81916F0190E0B3010E94EF
:102BA000F616E110EA94015010400115110579F76D
:102BB000EAC0943611F0993669F5F7FE08C0F501C0
:102BC000208131814281538184E090E00AC0F50187
:102BD000808191819C01442737FD4095542F82E0EC
:102BE00090E0A80EB91E9FE6F92257FF09C0509544
:102BF0004095309521953F4F4F4F5F4FE0E8FE2ABB
:102C0000CA01B901A1012AE030E00E942217D82EA2
:102C1000D21840C0953729F41F2D1F7E2AE030E0DE
:102C20001DC01F2D197F9F3661F0903720F4983515
:102C300009F0ACC00FC0903739F0983709F0A6C042
:102C400004C028E030E00AC0106114FD146020E1E7
:102C500030E004C014FD166020E132E017FF08C028
:102C6000F501608171818281938144E050E008C068
:102C7000F50180819181BC0180E090E042E050E06C
:102C8000A40EB51EA1010E942217D82ED2188FE7DC
:102C9000F82EF122F6FE0BC05EEFF522D91438F4BF
:102CA000F4FE07C0F2FC05C08FEEF82202C01D2D15
:102CB00001C0192DF4FE0DC0FE01ED0DF11D808146
:102CC000803319F499EEF92208C01F5FF2FE05C0A7
:102CD00003C08F2D867809F01F5F0F2DF3FC14C001
:102CE000F0FE0FC01E1510F09D2C0BC09D2C9E0CED
:102CF000911A1E2D06C080E290E0B3010E94F616E4
:102D00001F5F1E15C0F304C01E1510F4E11A01C0A8
:102D1000EE2404FF0FC080E390E0B3010E94F6169A
:102D200002FF1DC001FD03C088E790E00EC088E5EA
:102D300090E00BC0802F867891F001FF02C08BE2FB
:102D400001C080E2F7FC8DE290E0B3010E94F6162C
:102D500006C080E390E0B3010E94F6169A94D9145D
:102D6000C0F3DA94F101ED0DF11D808190E0B30123
:102D70000E94F616DD20A9F706C080E290E0B301BC
:102D80000E94F616EA94EE20C1F743CEF301668165
:102D90007781CB012B96CDBFDEBFCF91DF911F9105
:102DA0000F91FF90EF90DF90CF90BF90AF909F90EA
:102DB0008F907F906F905F904F903F902F900895ED
:102DC000FC010590615070400110D8F780959095F6
:102DD0008E0F9F1F0895FC016150704001900110FB
:102DE000D8F7809590958E0F9F1F08950F931F938E
:102DF000CF93DF938C01EB018B8181FF1BC082FF9E
:102E00000DC02E813F818C819D812817390764F484
:102E1000E881F9810193E883F98306C0E885F985A3
:102E2000802F1995892B31F48E819F8101968E8395
:102E30009F8302C00FEF1FEFC801DF91CF911F9159
:102E40000F910895FA01AA27283051F1203181F11C
:102E5000E8946F936E7F6E5F7F4F8F4F9F4FAF4FA2
:102E6000B1E03ED0B4E03CD0670F781F891F9A1FB5
:102E7000A11D680F791F8A1F911DA11D6A0F711D69
:102E8000811D911DA11D20D009F468943F912AE075
:102E9000269F11243019305D3193DEF6CF0108955D
:102EA000462F4770405D4193B3E00FD0C9F7F6CF8E
:102EB000462F4F70405D4A3318F0495D31FD405256
:102EC000419302D0A9F7EACFB4E0A69597958795EC
:102ED00077956795BA95C9F70097610571050895CB
:102EE0009B01AC010A2E0694579547953795279577
:102EF000BA95C9F7620F731F841F951FA01D08950F
:042F0000F894FFCF73
:0A2F04002573002000BA2800000029
:00000001FF
