:100000000C94E0000C94F2000C94F2000C94F200BA
:100010000C94F2000C94F2000C94F2000C94F20098
:100020000C94F2000C94F2000C9458050C94A50565
:100030000C94F2000C94F2000C94F2000C94F20078
:100040000C94F2000C94F2000C94F2000C94F20068
:100050000C94F2000C94F2000C94F2000C94F20058
:100060000C94F2000C94F2000C94F2000C94F20048
:100070000C94F2000C94F2000C94F2000C94F20038
:100080000C94F2000C94F2000C94F2000C94F20028
:100090000C94F2000C94F2000C94F2000C94F20018
:1000A0000C94F2000C94F2000C94F2000001000099
:1000B000F500120002000007014200220000490181
:1000C0001C00210000190109002201006501150032
:1000D000210100390109000300007A01040103092C
:1000E000047E01100203090490012E01C12601C003
:1000F0000601C126001201000200000010C0168097
:100100000400010102000109024200020100C032A4
:10011000090400000203000000092111010001226E
:100120001C000705810317000207050203020008EF
:10013000090401000103000000092111010001224E
:1001400015000705830320000106ABFF0A0002A18A
:10015000017508150026FF00951709018102950217
:1001600009029102C00631FF0974A15375081500F8
:1001700026FF00952009758102C0040309041003BD
:100180004D00660067004E0061006D0065000000D4
:100190002E035400650065006E0073007900200096
:1001A0005200610077002000480049004400200010
:1001B0004500780061006D0070006C006500000073
:1001C00011241FBECFEFDAE0DEBFCDBF12E0A0E00A
:1001D000B1E001C01D92A73AB107E1F70E94E50224
:1001E0000C945D070C940000CF92DF92EF92FF9287
:1001F0000F931F93CF93DF93082FE92E8EEE0E946B
:100200008E038823F9F08AEA0E94E5038FEE0E94AC
:10021000DA031E2DCBE0D0E00E94F603E82EFF2487
:10022000F801F182E0820E94F603D82ECC24EC285B
:10023000FD28F801E192F1928F01219769F720E002
:1002400030E002C021E030E0C901DF91CF911F9181
:100250000F91FF90EF90DF90CF90089580E091E0B4
:10026000E7EAF1E0DF019C011D9221503040E1F707
:1002700080E8E6E2F1E0DF011D928A95E9F710924D
:10028000A601109209011092080110920701109224
:10029000220110922301109224011092250180E284
:1002A00091E00E948003109205018AE091E00E9493
:1002B000F40008952F923F924F925F926F927F9237
:1002C0008F929F92AF92BF92CF92DF92EF92FF9266
:1002D0000F931F93CF93DF93B6E22B2EB1E03B2E0B
:1002E000A7EA6A2EA1E07A2EEE24FF248701AA2431
:1002F000BB24650120E030E0C0E0D0E0F0E44F2E08
:10030000512CF101819191911F01B2010E94360798
:100310004C01C60FD71FF30181919191A191B19129
:100320003F01AC01BD01E6E076956795579547958D
:10033000EA95D1F7A40EB51EC61ED71E280D391D8D
:100340008F739070A070B070E80EF91E0A1F1B1F0B
:10035000F6EA2F16F1E03F06A1F6C90160E470E06D
:100360000E9436076C0F7D1F709308016093070190
:1003700086E016950795F794E7948A95D1F7EA0CED
:10038000FB1C0C1D1D1DE0922201F0922301009325
:10039000240110932501DF91CF911F910F91FF90C0
:1003A000EF90DF90CF90BF90AF909F908F907F9015
:1003B0006F905F904F903F902F900895EF92FF9233
:1003C0000F931F93CF93DF93909105019923A1F48D
:1003D00091E090930501809306018EEE0E948E03BA
:1003E000882309F051C084EF0E94E5038EE20E9449
:1003F000E5030E94DD03A7C0913009F04CC08EEEEA
:100400000E948E03882309F03FC086EF0E94E50317
:100410008FEE0E94DA0380910901C82FD0E00E947C
:10042000F603182F0E940004CC0FDD1FCA5DDE4FBB
:10043000312F20E090E0822B932B99838883809149
:10044000090190E001968F739070809309010E94DA
:10045000DD038EEE0E948E038823B1F484EF0E94A8
:10046000E503809106018295880F880F807C8C5C63
:100470000E94E5030E94DD0380E291E00E94800378
:1004800082E08093050166C01092050180E291E050
:100490000E94800366C0923009F05AC08EEE0E941E
:1004A0008E03882309F05DC086EF0E94E5038FEE7E
:1004B0000E94DA03E091A601CE2FD0E00E94F6035D
:1004C000182F0E94F603E82E0E940004FE01EE0F92
:1004D000FF1FEE0FFF1FE955FE4F212F30E040E0D8
:1004E00050E0A90133272227FF2400E010E0102F5D
:1004F0000F2DFE2CEE242E293F29402B512B90E06E
:10050000A0E0B0E0282B392B4A2B5B2B6091060131
:1005100088E090E0861B910904C056954795379571
:1005200027958A95D2F720833183428353830E9493
:10053000DD038091A60190E001968F739070809307
:10054000A6011092050180E291E00E94800302C0A2
:100550001092050180E291E00E94800320E030E0EB
:1005600002C021E030E0C901DF91CF911F910F91CE
:10057000FF90EF90089580910501882341F480E277
:1005800091E00E946F0323E0893E9207C8F48091B6
:100590000501813039F480E291E00E946F038F34CD
:1005A000910570F480910501823061F480E291E060
:1005B0000E946F0321E031E08739930720F402C0E5
:1005C00021E001C020E0822F0895CF92DF92EF92C8
:1005D000FF920F931F93DF93CF93CDB7DEB7699749
:1005E0000FB6F894DEBF0FBECDBF80E880936100E8
:1005F000109261000E9488030E940F040E9463030E
:100600000E942E018FEF9BE7A2E981509040A0400D
:10061000E1F700C00000CE0101960E94800383E054
:1006200090E00E94DE018E010D5F1F4F35E0C32E6A
:1006300026E1D22E94E0E92EF12CEC0EFD1EC8012D
:1006400061E00E94290418162CF58B81813051F449
:10065000DB82D701EAE0F1E086E101900D92815062
:10066000E1F714C08230B1F4CB820E945A0180912C
:100670000701909108019C838D83809122019091C4
:100680002301209124012E839F838887C80162E380
:100690000E9457040E94BB02813089F683E090E0FB
:1006A0000E94DE018130910551F6E091A601F0E053
:1006B000EE0FFF1FEE0FFF1FE955FE4F1082118254
:1006C00012821382BCCF1092800085E0809381005B
:1006D00008952091840030918500C90108952091EA
:1006E00084003091850040E050E0FC0180819181E0
:1006F000A0E0B0E0281B390B4A0B5B0BC901089541
:100700002091840030918500FC013183208308957D
:100710001092B9008CE08093B800089594EA909309
:10072000BC009091BC0097FFFCCF9091B900987FDE
:10073000983011F0903199F48093BB0084E8809355
:10074000BC008091BC0087FFFCCF9091B900987FDE
:10075000983139F081E0903429F480E0089581E007
:10076000089580E0089544EA34E824E94093BC0009
:100770009091BC0097FFFCCF9091B900987F983082
:1007800011F0903199F78093BB003093BC009091A9
:10079000BC0097FFFCCF9091B900987F903211F088
:1007A000983539F42093BC009091BC0094FDFCCFA7
:1007B000DDCF08950E948E03089584E98093BC00E4
:1007C0008091BC0084FDFCCF08958093BB0084E839
:1007D0008093BC008091BC0087FFFCCF9091B90052
:1007E000987F81E0983209F480E0089584EC80934A
:1007F000BC008091BC0087FFFCCF8091BB000895B6
:1008000084E88093BC008091BC0087FFFCCF80917E
:10081000BB0008958091E80080FFFCCF089581E03F
:100820008093D70080EA8093D80082E189BD09B423
:1008300000FEFDCF80E98093D8001092E000109276
:1008400000018CE08093E20078940895809100018B
:100850000895FC0180910001882319F18FB7F89465
:100860006093020192E09093E9002091E80025FD59
:100870000CC08FBF809102018823A9F080910001F4
:10088000882399F08FB7F894EECF9091F100908380
:100890009091F10091839BE69093E8008FBF82E0F6
:1008A00008958FEF089580E008958FEF0895CF9316
:1008B000DF9320910001222309F499C02FB7F89407
:1008C0006093030131E03093E9004091E80045FD79
:1008D0000EC02FBF20910301222309F486C020916E
:1008E0000001222309F483C02FB7F894ECCFFC0158
:1008F00031913093F100DC0111968C918093F100DD
:10090000EF01219681818093F100DE0111968981AA
:100910008093F100FD01319611968C918093F10046
:10092000DF01119681818093F100FD0131961196CE
:100930008C918093F100DF01119681818093F10009
:10094000FD01319611968C918093F100DF01119693
:1009500081818093F100FD01319611968C918093F5
:10096000F100DF01119681818093F100FD01319644
:1009700011968C918093F100DF0111968181809313
:10098000F100FD01319611968C918093F100DF0109
:10099000119681818093F100FD01319611968C9121
:1009A0008093F100DF01119681818093F100FD01B8
:1009B000319611968C918093F100DF01119681811F
:1009C0008093F100FD01319611968C9111978093DF
:1009D000F10081818093F10082818093F1008AE3AC
:1009E0008093E8002FBF87E103C080E001C08FEF54
:1009F000DF91CF91089590910001992309F43DC0B2
:100A00009FB7F89423E02093E9002091040122236A
:100A100041F02091E80025FD02C09FBF2EC010923A
:100A200004012091E4002D5F33E04091E80045FD92
:100A300012C09FBF9091E400921721F481E080934F
:100A400004011BC0909100019923C9F09FB7F8944D
:100A50003093E900EACF8093F1008091E80085FDB2
:100A600006C08AE38093E8001092010103C082E08F
:100A7000809301019FBF80E008958FEF08958FEF6D
:100A800008958FB7F89490910101992379F093E03C
:100A90009093E90002C01092F1009091E80095FD5A
:100AA000FACF9AE39093E800109201018FBF089566
:100AB0001F920F920FB60F9211248F939F938091E4
:100AC000E1001092E10083FF0FC01092E90091E075
:100AD0009093EB001092EC0092E19093ED0098E07F
:100AE0009093F0001092000182FF28C080910001D5
:100AF000882321F180910101882391F08150809316
:100B00000101882369F483E08093E90002C0109218
:100B1000F1008091E80085FDFACF8AE38093E80038
:100B200080910201882319F0815080930201809105
:100B30000301882319F08150809303019F918F91C5
:100B40000F900FBE0F901F9018951F920F920FB627
:100B50000F921124EF92FF920F931F932F933F93C5
:100B60004F935F936F937F938F939F93AF93BF93B5
:100B7000EF93FF93DF93CF930F92CDB7DEB7109231
:100B8000E9008091E80083FF56C14091F100509147
:100B9000F1000091F10010E02091F100922F80E02F
:100BA000082B192B8091F100E82EFF242091F100F1
:100BB000922F80E0E82AF92A2091F10030E060913C
:100BC000F100962F80E0282B392B82EF8093E800EC
:100BD000563009F053C083EB90E0AC0145505040D3
:100BE000FC0137976591749160177107C9F4FA0198
:100BF000659174916E157F0599F44E5F5F4FFA0110
:100C0000859194914E5F5F4FFA0144912F3F3105DA
:100C100019F010F02FEF30E0241750F4422F08C0E5
:100C20000796495F5F4FF0E0823F9F07C9F603C117
:100C3000AEEF2091E80030E0B90165707070611589
:100C40007105B9F322FDFAC0542F413108F050E18B
:100C50009C01652F07C0F9012F5F3F4FE491E0939E
:100C6000F10061506623B9F7850F911D451BA093D4
:100C7000E8004423F1F65031E1F2E0C0553049F488
:100C80008EEF8093E8000E940A0400680093E3005E
:100C9000D5C0593031F5442309F06DC000930001EF
:100CA0008EEF8093E80041E08BEE90E04093E90006
:100CB000FC010196E491E093EB00EE2369F09C01C6
:100CC0002F5F3F4FFC0184918093EC00C901019696
:100CD000F90124912093ED004F5F453039F78EE103
:100CE00045C0583051F4403809F045C00E940A040C
:100CF000809100018093F10073C05523B1F44983C2
:100D00000E940A044981423851F4E092E90090912E
:100D1000EB0081E095FF80E01092E90001C080E0E7
:100D20008093F1001092F1005BC0513011F053300C
:100D300011F5423001F501151105E9F46E2D6F77BB
:100D4000862F81508430B8F48EEF8093E800609352
:100D5000E900533009F46FC089E18093EB0081E032
:100D600090E002C0880F991F6A95E2F78093EA002D
:100D70001092EA0063C0E114F104B1F5413A19F5AB
:100D8000513009F058C047E15EEF8091E80090E0F3
:100D90009C012570307021153105B9F382FD4EC0DC
:100DA000842F413108F080E1982F03C01092F100A8
:100DB00091509923D9F7481B5093E800442329F711
:100DC000803119F33BC04132B1F55930A1F5809122
:100DD000E80082FFFCCF8BEF8093E8000E940A04BA
:100DE0008EEF8093E8002AC0F1E0EF16F10419F5C8
:100DF000513009F5413AF9F43EEF8091E80090E076
:100E0000AC014570507041155105B9F382FD16C013
:100E1000822F213108F080E1982F03C01092F10059
:100E200091509923D9F7281B3093E800222329F702
:100E3000803119F303C081E28093EB000F90CF91D2
:100E4000DF91FF91EF91BF91AF919F918F917F9132
:100E50006F915F914F913F912F911F910F91FF9053
:100E6000EF900F900FBE0F901F90189597FB092ED3
:100E700007260AD077FD04D00CD006D000201AF443
:100E8000709561957F4F0895F6F7909581959F4FE6
:100E90000895AA1BBB1B51E107C0AA1FBB1FA617C1
:100EA000B70710F0A61BB70B881F991F5A95A9F713
:0E0EB00080959095BC01CD010895F894FFCF78
:00000001FF
