:100000000C94B6000C9490030C94D3000C94D30081
:100010000C94D3000C94D3000C94D3000C94D30014
:100020000C94D3000C94D3000C94D3000C94D30004
:100030000C94D3000C94D3000C94D3000C94D300F4
:100040000C94D3000C94D3000C94D3000C94D300E4
:100050000C94D3000C94D3000C94D3000C94D300D4
:100060000C94D3000C9453090C94D2080C943008CF
:100070000C94D3000C94D3000C94D3000C94D300B4
:100080000C94D3000C94D3000C94D3000C94D300A4
:100090000C94D3000C94D3000C94D3000C94D30094
:1000A0000C94D3000C94D3000C94D3000C94D30084
:1000B0000C94D3000C94D3000C94D3000C94D30074
:1000C0000C94D3000C94D3000C94D3000C94D30064
:1000D0000C94D3000C94D3000C94D3000C94D30054
:1000E0000C94D3000C94D3000C94D3000C94D30044
:1000F0000C94D3000C94D3000C94D3000C94D30034
:100100000C94D3000C94D3000C94D3000C94D30023
:100110000C94D3000C94D3000C94D3000C94D30013
:100120000C94D3000C94D3000C94D3000C94D30003
:100130000C94D3000C94D3000C94D3000C94D300F3
:100140000C94D3000C94D3000C94D3000C94D300E3
:100150000C94D3000C94D3000C94D3000C94D300D3
:100160000C942E090C94AD080C94550811241FBE54
:10017000CFEFDFE2DEBFCDBF10E2A0E0B0E2E4EB04
:10018000FEE102C005900D92A032B107D9F711E24D
:10019000A0E2B0E201C01D92AF3AB107E1F70E94C0
:1001A000E9030C94580F0C949703AC01DC01E3E4D1
:1001B000F1E28BE001900D928150E1F7CA010895C0
:1001C000DF93CF93CDB7DEB72897CDBFDEBFDE017B
:1001D0001196E2E9F0E288E001900D928150E1F79A
:1001E00029813A814B815C816D817E818F819885E7
:1001F0002896CDBFDEBFCF91DF910895AC01DC0121
:10020000EAE9F0E28AE901900D928150E1F7CA0132
:100210000895AC01DC01E4E3F1E28FE001900D927E
:100220008150E1F7CA0108954F925F926F927F92D9
:100230008F929F92AF92BF92CF92DF92EF92FF92F6
:100240000F931F93DF93CF93CDB7DEB7CA59D0403A
:10025000CDBFDEBF2C01DC010D911C91C80160E017
:1002600070E20E947E0C009709F069C0D2011496DA
:10027000ED91FC911597708016968D919C91179732
:100280000E94500C982E892EF201808591850E9443
:10029000500CB82EA92ED2011C968D919C911D97C1
:1002A0000E94500CD82EC92EF201868597850E9497
:1002B000500CF82EE92ED20152968D919C915397B5
:1002C0000E94500C182F092FF201848995890E94F1
:1002D000500C212F302FA90173E0440F551F7A9540
:1002E000E1F7220F331F420F531F480F591F40934E
:1002F0004C2150934D21F0924A21E0924B21D09213
:100300004821C0924921B0924621A0924721909263
:100310004421809245217092432170923421E5E37B
:10032000F1E29092352180923621B0923721A3825A
:10033000D0923921C582F0923B21E78208C1C801E1
:1003400067E070E20E947E0C009709F08BC0D2013A
:1003500012968D919C9113970E94500C182F092F83
:10036000F201848195810E94500C212F302F890148
:1003700053E0000F111F5A95E1F7220F331F020FB0
:10038000131F080F191FD20118968D919C91199770
:100390000E94500C782E692EF201828593850E946E
:1003A000500C5C01D2011E968D919C911F970E946A
:1003B000500C982E892EF201808991890E94500C50
:1003C0006C01D20154968D919C9155970E94500CCE
:1003D000F82EE92EF201868997890E94500C2F2D64
:1003E0003E2DA901B3E0440F551FBA95E1F7220F46
:1003F000331F420F531F480F591F409398205093AB
:100400009920892D982D9C01F3E0220F331FFA9536
:10041000E1F7880F991F280F391F2C0D3D1D2093E0
:10042000962030939720872D962D9C0173E0220F04
:10043000331F7A95E1F7880F991F280F391F2A0D6E
:100440003B1D20939420309395200093922010938D
:10045000932040933D2150933E2100933F211093E0
:10046000402175C0C8016EE070E20E947E0C0097CA
:1004700009F06DC0D20116968D919C9117970E943C
:10048000500C7C01982E8F2CF201848195810E9462
:10049000500C8130910541F4F4E0EF16F10444F082
:1004A00024E0E22EF12C04C02CEF3FEFE20EF31E0D
:1004B00062018C0185E0000F111F8A95E1F70C0F96
:1004C0001D1F05511040AA24BB242BC00894A11C59
:1004D000B11CD6018D919C910E94500CF801808333
:1004E0009183D60112968D919C9113970E94500C86
:1004F000F80182839383D60114968D919C91159770
:100500000E94500CF80184839583D60116968D9134
:100510009C9117970E94500CF80186839783085F7F
:100520001F4F28E030E0C20ED31EAE14BF0474F299
:1005300099828A82AAE9B0E2FE0131968AE90190A5
:100540000D928150E1F79092412180924221C6564E
:10055000DF4FCDBFDEBFCF91DF911F910F91FF9095
:10056000EF90DF90CF90BF90AF909F908F907F9053
:100570006F905F904F900895482F80911520909133
:1005800016200197B1F48091222090912320FC0144
:10059000EE0FFF1FEC5DFF4D2CE430E22083318332
:1005A0000196809322209093232010921520109280
:1005B00016204C3221F04E3211F04A3219F580915A
:1005C000202090912120FC01E45BFF4D10822091BE
:1005D0002220309123200196809320209093212087
:1005E000F901EE0FFF1FEC5DFF4D845B9F4D808393
:1005F00091832F5F3F4F20932220309323204A3056
:1006000031F510C04A3071F0809120209091212066
:10061000FC01E45BFF4D4083019680932020909382
:1006200021200895E0912020F0912120E45BFF4DEE
:10063000108281E090E080932220909323201092FA
:1006400020201092212084E290E20E94140108955B
:10065000E0E6F6E08181806181838181806281832F
:100660000895E0E6F6E0858180618583858180627A
:1006700085830895E0E6F6E0868180618683868141
:10068000806286830895E0E6F6E0848190E1892720
:100690008483848190E289278483089590916506FC
:1006A000813011F080E201C080E1892BE0E6F6E0C4
:1006B0008583089590916606813011F080E201C033
:1006C00080E1892BE0E6F6E0868308959091640648
:1006D000813011F080E201C080E18927E0E6F6E098
:1006E0008483089580E696E00895813011F080E2D9
:1006F000089580E108950F93DF93CF930F92CDB7C4
:10070000DEB72FB72983F8941BBEFC0108ED04BFA8
:10071000608389818FBF0F90CF91DF910F910895F2
:100720001F920F920FB60F921124F894FFCF1F92D1
:100730000F920FB60F921124F894FFCF0F93DF930F
:10074000CF930F92CDB7DEB780E00E945A038FB7E8
:100750008983F8941BBE23E083E590E0FC0108ED5B
:1007600004BF208389818FBFE0E5F0E02BEC22837A
:100770008091500088608093500090E009C0809183
:10078000530081FF05C0809153008260838391E014
:100790008091510083FD03C0992389F3E8CF992309
:1007A00031F7209140008FB78983F8941BBE287FD2
:1007B000236080E490E0FC0108ED04BF2083898180
:1007C0008FBF80E00E944E030F90CF91DF910F9179
:1007D00008959F92AF92BF92CF92DF92EF92FF92D5
:1007E0000F931F93DF93CF93CDB7DEB7CE5AD04090
:1007F000CDBFDEBF0E949E030E94280380E090E0F0
:100800000E943A030E9483073BE1A32EB12CAC0E59
:10081000BD1EC50160E044E02AE030E00AE010E0DF
:10082000EE24E394CC24C3940E94BD090E942803C3
:1008300080E090E00E943A038E010E5B1F4FC801DA
:10084000B5010E94B20583E00E945A0322E0922E75
:10085000BB24B39497E0E92EF12CEC0EFD1E81E44D
:10086000D82EA02EC12E8E010F5F1F4F9982BA8203
:10087000EB82FC82F701D0828A2D9C2DB8010E9468
:100880007605F4CFFC01E95BFF4F60837183089527
:10089000FC01E75BFF4F608371830895FC01EB5916
:1008A000FF4F2081332727FD3095C9010895FC01B2
:1008B000683050F405ACF6ADE02DE60FF11DEB59B4
:1008C000FF4F80818F5F8083089502960E944207C8
:1008D000811181E008950F931F93CF93DF93DC0183
:1008E000DD96CD91DC91DE978E010B591F4FF801FB
:1008F0008081882331F557968C915797C55BDF4FE0
:100900008883CB54D04054968C915497FE01E45B7D
:10091000FF4F80834081FE01E35BFF4F8081918127
:10092000BD0150E00E946E0C81E0F8018083C95B3C
:10093000DF4FE881F981C754D040309711F0CE01E4
:100940000995DF91CF911F910F910895CF93DF9378
:10095000FC01EB019C012F5B3F4FD9018D919C91D4
:10096000009711F480E021C0DC018C918883D901CB
:100970002D913C91D90111968C911197481718F43B
:1009800011964C9304C0D90111968C9189834981A9
:10099000EF5BFF4F0190F081E02D628173818A81CE
:1009A0009B8150E00E946E0C81E0DF91CF91089511
:1009B000CF93DF93EC01DB01CB59DF4F8881C55624
:1009C000D040882341F1C55BDF4F8881CB54D040B4
:1009D0008C93FE01E45BFF4F8081481720F4119651
:1009E0004C93119704C0808111968C9311971196A6
:1009F0004C911197FE01E35BFF4F6081718112966C
:100A00008C91129713969C9150E00E946E0CCB59DA
:100A1000DF4F188281E0DF91CF910895DC01DD96F0
:100A2000ED91FC91DE97808191810E94A209089549
:100A3000FC01878D90A102960E94BC060895FC01DE
:100A4000878D90A102960E947B060895CF93DF9335
:100A5000EC01009751F0188219828A819B810097DE
:100A600011F00E94F80B1A821B82DF91CF9108953A
:100A70000F931F93CF93DF93FC01EF5BFF4FC08178
:100A8000D1810CC01C810D81CE010E942605CE01B2
:100A90000E94F80B212F302FC901EC01209791F70C
:100AA000DF91CF911F910F9108950F931F938C01A8
:100AB000DC01DD96ED91FC91DE978081918160E013
:100AC0000E94F407D801DD96ED91FC91DE97E75B7B
:100AD000FF4F20813181E954F0402115310519F093
:100AE000CF01F90109951F910F910895CF92DF92DF
:100AF000FF920F931F93CF93DF938C01EB01F9804B
:100B000092E0C92ED12CC00ED11EC6010E94420710
:100B10008823F9F484E18F1510F484E1F82E98010C
:100B2000245E3F4F6A817B81C9014F2D50E00E94B6
:100B30006E0CF8018081918161E00E94F407688168
:100B4000C6014F2D0E944A07882311F481E002C09C
:100B5000789480E0DF91CF911F910F91FF90DF900B
:100B6000CF9008950F931F938C01FC0161937193B3
:100B7000CF010E941E0685E595E0D801D9968D9398
:100B80009C93DA978EE095E0D7968D939C93D897B7
:100B90008BE694E0DB968D939C93DC9787E594E05D
:100BA000DD968D939C93DE97F801FF960083118369
:100BB000095B1F4FF801119211928F01108211826F
:100BC00004501040D8011D921C9204501040F801AE
:100BD000119211928F011082118203541040F8017A
:100BE000E35BFF4F0F5A1F4F008311830C5E1F4FB3
:100BF000D8011C9205561040D801ED91FC91078F49
:100C000010A38FE195E081A392A388E195E083A3EF
:100C100094A30A591F4FC80160E070E047E050E01C
:100C20000E94770C1F910F910895DC01DB96ED91E6
:100C3000FC91DC97309709F009950895FC01118E1D
:100C4000168A15AA16AA17AA10AE11AE12AE13AEC6
:100C500014AE84E186A717A610AA11AA13AA14AA93
:100C600015AE16AE0895CF93DF93EC01898D8230D7
:100C700071F0833018F48130D9F505C08330A9F0C4
:100C80008430B1F524C06F8B688F82E01EC065315F
:100C900030F0198ECE0164E00E94150629C06D8BDC
:100CA000888D860F888F83E010C09D8991509D8B21
:100CB000888D860F888F8C89FE01E80FF11D608377
:100CC0008F5F8C8B9923A1F484E0898F11C0888D6C
:100CD0008095888F681739F4E9ADFAAD309739F00F
:100CE000CE01099504C0CE0165E00E941506198E5B
:100CF000DF91CF910895CF93DF93EC01862F815040
:100D00008E3F18F0CE0167E012C0898D6A3C59F41D
:100D1000882321F0CE0161E00E94150681E0898FD1
:100D20001C8A1E8A26C0882329F4CE0162E00E9414
:100D300015061FC06C3519F481E08E8B1AC08E89A0
:100D40008823A1F01E8A633051F0643018F46230B9
:100D500069F407C0643039F0653041F406C06CE5D1
:100D600005C06AEC03C060E001C06FEFCE010E94D5
:100D70003306DF91CF910895DC01D2966C91D29722
:100D8000662309F073C09E968C919E97813111F174
:100D9000823130F48F3051F0803109F05FC00EC0E5
:100DA000823199F1833109F059C038C09F966C9116
:100DB0009F97D1966C93D19780E12CC0D0966C917F
:100DC000D097D1968C91D197860FD1968C93D1974D
:100DD00081E120C0D396ED91FC91D4976191D19699
:100DE0008C91D197860FD1968C93D197D396ED9312
:100DF000FC93D497D0968C91D0978150D0968C93B9
:100E0000D0978823C1F482E105C0D1966C91D19727
:100E1000609583E19E968C939E970DC084E19E968B
:100E20008C939E97D796ED91FC91D897309749F186
:100E3000CD01099508956C3561F06D3518F4662380
:100E400069F014C06A3C19F06F3F81F409C082E078
:100E500008C083E0D2968C93D2970BC084E001C087
:100E600085E0D2968C93D2976CE503C0D2961C9203
:100E7000D297D596ED91FC91D697309711F0CD0190
:100E80000995089520E0FC0186A5843109F021E050
:100E9000822F08950F931F93CF93DF93EC018EA5BC
:100EA000843111F08FEF2AC08DA99EA9892B11F4EE
:100EB0008EEF24C0453110F08DEF20C06FA748ABF6
:100EC0008E01065E1F4F00D000D087E190E2EDB7A3
:100ED000FEB781839283038314830E948F0C0BAB34
:100EE0001CAB1AAA8FE08EA70F900F900F900F9057
:100EF000EDA9FEA9CE016AEC099580E0DF91CF91C2
:100F00001F910F9108958DEF9CE08093872190931E
:100F100088218DEF80937F2185EF9CE0809389214C
:100F200090938A218CEF8093802185EE9CE08093C2
:100F30008B2190938C218BEF8093812185EC9CE019
:100F400080938D2190938E218AEF8093822185E872
:100F50009CE080938F219093902129EF209383210F
:100F600087ED93E0809391219093922120938421A7
:100F700083E096E0809393219093942120938521A0
:100F800081E090E0809395219093962181E0809379
:100F9000862180EA98E080934E2190934F2180E44F
:100FA00096E0809350219093512138E03093522164
:100FB00024E0209353211092542180EA99E08093F9
:100FC0005C2190935D2180E696E080935E21909372
:100FD0005F21309360212093612182E08093622120
:100FE000E0E8F6E081830895DC0113968C91139775
:100FF000882301F1662379F01496ED91FC91159701
:1010000084818F7E84831696ED91FC9117971A96B2
:101010008C91858308951696ED91FC9117971A96F9
:101020008C911A9786831496ED91FC911597848183
:10103000806184830895E82FF0E0EE0FFF1FE956EA
:10104000FE4D0190F081E02D85A1882341F023A180
:1010500034A12115310519F0CF01F9010995089541
:101060001F920F920FB60F9211242F933F934F931D
:101070005F936F937F938F939F93AF93BF93EF9300
:10108000FF9380E00E941B08FF91EF91BF91AF9109
:101090009F918F917F916F915F914F913F912F9190
:1010A0000F900FBE0F901F9018951F920F920FB6C2
:1010B0000F9211242F933F934F935F936F937F93DE
:1010C0008F939F93AF93BF93EF93FF9382E00E9420
:1010D0001B08FF91EF91BF91AF919F918F917F91ED
:1010E0006F915F914F913F912F910F900FBE0F9095
:1010F0001F90189545960E94FF0A08950B960E942E
:10110000FF0A08950F931F93CF93DF93C82FD0E06A
:10111000CC0FDD1FC956DE4DE881F98185A18823FA
:10112000B9F4CF010B960E94FF0AE881F981892B5F
:1011300039F40480F581E02D83818C7F838308C09E
:1011400004811581CF010B960E94B30AF8018083B8
:10115000DF91CF911F910F9108951F920F920FB6BB
:101160000F9211242F933F934F935F936F937F932D
:101170008F939F93AF93BF93EF93FF9382E00E946F
:101180008208FF91EF91BF91AF919F918F917F91D5
:101190006F915F914F913F912F910F900FBE0F90E4
:1011A0001F9018951F920F920FB60F9211242F9334
:1011B0003F934F935F936F937F938F939F93AF93DF
:1011C000BF93EF93FF9380E00E948208FF91EF911D
:1011D000BF91AF919F918F917F916F915F914F914F
:1011E0003F912F910F900FBE0F901F90189545962D
:1011F0000E94B30A08951F93CF93DF93C82FD0E0C6
:10120000CC0FDD1FC956DE4DA881B9811496ED9132
:10121000FC911597108195968C919597882351F0A4
:101220009196ED91FC9192973097A1F0CD01612FAD
:10123000099510C0CD014596612F0E94600AE88192
:10124000F98121A132A12115310521F0CF01612FB2
:10125000F9010995DF91CF911F9108951F920F9287
:101260000FB60F9211242F933F934F935F936F9379
:101270007F938F939F93AF93BF93EF93FF9382E0FE
:101280000E94FB08FF91EF91BF91AF919F918F91C9
:101290007F916F915F914F913F912F910F900FBE72
:1012A0000F901F9018951F920F920FB60F92112456
:1012B0002F933F934F935F936F937F938F939F935E
:1012C000AF93BF93EF93FF9380E00E94FB08FF91E1
:1012D000EF91BF91AF919F918F917F916F915F91AE
:1012E0004F913F912F910F900FBE0F901F90189527
:1012F00045960E94030B08950B960E94030B0895D8
:1013000045960E94D50A0895CF93DF93EC01EC81B6
:10131000FD8183818C7F8383CE010B960E948E0A90
:10132000282F8B81882321F0EE81FF818A85858398
:10133000EC81FD8183818C7F81608383822FDF91AB
:10134000CF910895DF93CF930F92CDB7DEB7FC0115
:10135000698385A1882329F00480F581E02D6083CD
:1013600008C0CF01BE016F5F7F4F41E050E00E9497
:1013700084090F90CF91DF910895AF92BF92CF92E1
:10138000DF92EF92FF920F931F93CF93DF93EC01C5
:101390005801DE2C1F8E18A219A21AA21BA21CA291
:1013A0001EA26883062F10E0D80153E0AA0FBB1FCE
:1013B0005A95E1F7A01BB10BFC013496A25BBE4D20
:1013C00097E00D9001929150E1F7E42EFF24E9821D
:1013D000FA82DB82CC2019F081E08DA30BC01DA224
:1013E000CE010B96B9010E941E0BCE014596B501A8
:1013F0000E941E0B000F111F09561E4DD801CD93E0
:10140000DC93EE81FF8188858183EE81FF81898570
:101410008283DD2041F0EE81FF818A858183EE8128
:10142000FF818A858683F894EC81FD8183E0858342
:10143000EC81FD8183818F7C80618383DD2011F4C9
:10144000CC2031F0EC81FD818381837F84608383B4
:10145000AC81BD81F701EE0FFF1FE957FE4D808182
:1014600016968C93AC81BD81818117968C93EC810B
:10147000FD8197812FE731E2E20EF31ED7018C91B7
:101480008295807F892B8783EC81FD8184818061B7
:101490008483EC81FD818481886084838091A200B3
:1014A0008160E0EAF0E082837894DF91CF911F9130
:1014B0000F91FF90EF90DF90CF90BF90AF90089585
:1014C0001F93CF93DF93EC01162F6885798581E018
:1014D00090E00E94370B4C815D81840F951F2A811B
:1014E0003B818217930711F480E014C08E819F81A5
:1014F00001968E839F83E881F981E40FF51F1083A5
:101500008C819D816885798501960E94370B8C833B
:101510009D8381E0DF91CF911F910895CF92DF925B
:10152000EF92FF920F931F93CF93DF936C017B0198
:101530008A01C0E0D0E00AC0F701EC0FFD1FC60130
:1015400060810E94600A882321F02196C017D1078C
:1015500098F3CE01DF91CF911F910F91FF90EF9003
:10156000DF90CF900895CF93DF93EC012A813B81E8
:101570008C819D818217930711F4E0E012C0E8810D
:10158000F981E20FF31FE08168857985C901019631
:101590000E94370B8A839B838E819F8101978E8364
:1015A0009F838E2FDF91CF910895CF92DF92EF929C
:1015B000FF920F931F93CF93DF937C016B01FC018C
:1015C000668177818A016417750708F48B01C0E092
:1015D000D0E008C0C7010E94B30AF601EC0FFD1F5E
:1015E00080832196C017D107A8F3C801DF91CF915E
:1015F0001F910F91FF90EF90DF90CF900895FC0125
:10160000868197810895FC012085318586819781A7
:10161000281B390BC90108950F931F938C01FC01FE
:10162000808191810E94F80BF80110821182128250
:101630001382148215821F910F910895EF92FF92E9
:101640000F931F938C017B01CB010E944B0BF80180
:1016500080839183128213821482158216821782EC
:10166000E086F1861F910F91FF90EF900895AA1BDD
:10167000BB1B51E107C0AA1FBB1FA617B70710F07D
:10168000A61BB70B881F991F5A95A9F780959095AF
:10169000BC01CD010895CF93DF93BC018230910549
:1016A00010F462E070E0A091A721B091A821ED01B3
:1016B000E0E0F0E040E050E021C0888199818617A9
:1016C000970769F48A819B81309719F0828393830D
:1016D00004C08093A7219093A821FE0134C068170D
:1016E000790738F44115510519F08417950708F466
:1016F000AC01FE018A819B819C01E9012097E9F6FA
:1017000041155105A9F1CA01861B970B049708F4EE
:10171000BA01E0E0F0E02AC08D919C911197841706
:101720009507F9F46417750781F412968D919C91D1
:101730001397309719F08283938304C08093A72175
:101740009093A821FD0132964FC0CA01861B970BCA
:10175000FD01E80FF91F6193719302978D939C939C
:1017600043C0FD01828193819C01D9011097A1F6AC
:101770008091A5219091A621892B41F480911C2074
:1017800090911D208093A5219093A62140911E2029
:1017900050911F204115510541F44DB75EB780911E
:1017A0001A2090911B20481B590B2091A5213091A4
:1017B000A62124173507B0F4CA01821B930B8617A4
:1017C000970780F0AB014E5F5F4F8417950750F08D
:1017D000420F531F4093A5215093A621F901619315
:1017E000719302C0E0E0F0E0CF01DF91CF91089566
:1017F000CF93DF93009709F450C0EC0122971A822F
:101800001B82A091A721B091A821109709F140E077
:1018100050E0AC17BD0708F1AA83BB83FE012191FC
:101820003191E20FF31FAE17BF0779F48D919C91B0
:101830001197280F391F2E5F3F4F28833983129647
:101840008D919C9113978A839B834115510571F467
:10185000C093A721D093A82120C012968D919C916E
:101860001397AD01009711F0DC01D3CFFA01C283C9
:10187000D38321913191E20FF31FCE17DF0769F473
:1018800088819981280F391F2E5F3F4FFA012083ED
:1018900031838A819B8182839383DF91CF910895E5
:1018A000FC0188279927E89421912032E9F3293017
:1018B00010F02E30C8F32B3241F02D3239F46894F9
:1018C00004C00E94870C820F911D219120532A3061
:1018D000C0F31EF4909581959F4F0895FB01DC01A4
:1018E00002C001900D9241505040D8F70895DC019C
:1018F00001C06D9341505040E0F70895FB01DC01B9
:101900008D91019080190110D9F3990B08957AE017
:10191000979F902D879F802D910D11240895A0E011
:10192000B0E0E5E9FCE00C94310FFE0135966191E1
:1019300071918091AB219091AC21AF010E94A40CD8
:101940002096E2E00C944D0FABE0B0E0EAEAFCE058
:101950000C94210F3C012B015A01FC0116821782C5
:10196000838181FD03C06FEF7FEFC6C19AE0892EAE
:101970001E010894211C311CF3012381F20123FD77
:10198000859123FF81912F01882309F4B2C185320B
:1019900039F423FD859123FF81912F01853229F4AC
:1019A00090E0B3010E94970EE7CF982FFF24EE241A
:1019B0009924FFE1FF15D0F09B3269F09C3228F4A6
:1019C000903259F0933291F40EC09D3249F0903329
:1019D00069F441E024C052E0F52A84E0F82A28C0E6
:1019E00098E0F92A25C0E0E1FE2A22C0F7FC29C0D0
:1019F000892F80538A3070F4F6FE05C0989C902C95
:101A00001124980E15C0E89CE02C1124E80EF0E299
:101A1000FF2A0EC09E3229F4F6FC6BC140E4F42A82
:101A200007C09C3619F450E8F52A02C0983649F4EC
:101A3000F20123FD959123FF91912F01992309F044
:101A4000B8CF892F8554833018F08052833038F412
:101A500044E050E0A40EB51E5FE359830FC09336F7
:101A600031F0933779F0933509F056C020C0F50175
:101A70008081898342E050E0A40EB51E610101E03F
:101A800010E012C0F501C080D180F6FC03C06FEFFA
:101A90007FEF02C0692D70E042E050E0A40EB51E59
:101AA000C6010E948C0E8C015FE7F52214C0F5017F
:101AB000C080D180F6FC03C06FEF7FEF02C0692DBC
:101AC00070E042E050E0A40EB51EC6010E94810EF7
:101AD0008C0150E8F52AF3FE07C01AC080E290E0BE
:101AE000B3010E94970EEA948E2D90E00817190713
:101AF000A8F30EC0F601F7FC8591F7FE81916F0106
:101B000090E0B3010E94970EE110EA94015010405A
:101B10000115110579F7EAC0943611F0993669F587
:101B2000F7FE08C0F501208131814281538184E0B4
:101B300090E00AC0F501808191819C01442737FD26
:101B40004095542F82E090E0A80EB91E9FE6F9223E
:101B500057FF09C050954095309521953F4F4F4F05
:101B60005F4FE0E8FE2ACA01B901A1012AE030E096
:101B70000E94C30ED82ED21840C0953729F41F2DCD
:101B80001F7E2AE030E01DC01F2D197F9F3661F0B7
:101B9000903720F4983509F0ACC00FC0903739F079
:101BA000983709F0A6C004C028E030E00AC01061F0
:101BB00014FD146020E130E004C014FD166020E143
:101BC00032E017FF08C0F501608171818281938145
:101BD00044E050E008C0F50180819181BC0180E0C3
:101BE00090E042E050E0A40EB51EA1010E94C30E99
:101BF000D82ED2188FE7F82EF122F6FE0BC05EEF3A
:101C0000F522D91438F4F4FE07C0F2FC05C08FEEBB
:101C1000F82202C01D2D01C0192DF4FE0DC0FE01D9
:101C2000ED0DF11D8081803319F499EEF92208C081
:101C30001F5FF2FE05C003C08F2D867809F01F5F7D
:101C40000F2DF3FC14C0F0FE0FC01E1510F09D2CDC
:101C50000BC09D2C9E0C911A1E2D06C080E290E0B8
:101C6000B3010E94970E1F5F1E15C0F304C01E151E
:101C700010F4E11A01C0EE2404FF0FC080E390E0ED
:101C8000B3010E94970E02FF1DC001FD03C088E74B
:101C900090E00EC088E590E00BC0802F867891F030
:101CA00001FF02C08BE201C080E2F7FC8DE290E010
:101CB000B3010E94970E06C080E390E0B3010E943A
:101CC000970E9A94D914C0F3DA94F101ED0DF11D39
:101CD000808190E0B3010E94970EDD20A9F706C035
:101CE00080E290E0B3010E94970EEA94EE20C1F7E3
:101CF00043CEF30166817781CB012B96E2E10C9410
:101D00003D0FFC010590615070400110D8F780959F
:101D100090958E0F9F1F0895FC01615070400190B7
:101D20000110D8F7809590958E0F9F1F08950F93FF
:101D30001F93CF93DF938C01EB018B8181FF1BC03D
:101D400082FF0DC02E813F818C819D81281739072C
:101D500064F4E881F9810193E883F98306C0E8859A
:101D6000F985802F0995892B31F48E819F81019609
:101D70008E839F8302C00FEF1FEFC801DF91CF91C9
:101D80001F910F910895FA01AA27283051F12031AF
:101D900081F1E8946F936E7F6E5F7F4F8F4F9F4FFF
:101DA000AF4FB1E03ED0B4E03CD0670F781F891F41
:101DB0009A1FA11D680F791F8A1F911DA11D6A0F0F
:101DC000711D811D911DA11D20D009F468943F91C2
:101DD0002AE0269F11243019305D3193DEF6CF01C1
:101DE0000895462F4770405D4193B3E00FD0C9F787
:101DF000F6CF462F4F70405D4A3318F0495D31FDF4
:101E00004052419302D0A9F7EACFB4E0A695979546
:101E1000879577956795BA95C9F70097610571051C
:101E200008959B01AC010A2E069457954795379566
:101E30002795BA95C9F7620F731F841F951FA01DC0
:101E400008952F923F924F925F926F927F928F925E
:101E50009F92AF92BF92CF92DF92EF92FF920F9339
:101E60001F93CF93DF93CDB7DEB7CA1BDB0B0FB643
:101E7000F894DEBF0FBECDBF09942A883988488800
:101E80005F846E847D848C849B84AA84B984C88496
:101E9000DF80EE80FD800C811B81AA81B981CE0F8D
:101EA000D11D0FB6F894DEBF0FBECDBFED01089572
:041EB000F894FFCFD4
:101EB400244750524D43002447505654470024476A
:101EC400504753560001002573002000AF21000045
:00000001FF
