:100000000C94F4000C940D010C940D010C940D0152
:100010000C940D010C940D010C940D010C940D0128
:100020000C940D010C940D010C940D010C940D0118
:100030000C940D010C940D010C940D010C940D0108
:100040000C940D010C940D010C940D010C940D01F8
:100050000C940D010C940D010C940D010C940D01E8
:100060000C940D010C940D010C940D010C940D01D8
:100070000C940D010C940D010C940D010C940D01C8
:100080000C940D010C940D010C940D010C940D01B8
:100090000C940D010C940D010C940D010C940D01A8
:1000A0000C940D010C940D010C940D010C940D0198
:1000B0000C940D010C940D010C940D010C940D0188
:1000C0000C940D010C940D010C940D010C940D0178
:1000D0000C940D010C940D010C940D010C940D0168
:1000E0000C940D010C940D010C940D010C940D0158
:1000F0000C940D010C940D010C940D010C940D0148
:100100000C940D010C940D010C940D010C940D0137
:100110000C940D010C940D010C940D010C940D0127
:100120000C940D010C940D010C940D010C940D0117
:100130000C940D010C940D010C940D010C940D0107
:100140000C940D010C940D010C940D010C940D01F7
:100150000C940D010C940D010C940D010C940D01E7
:100160000C940D010C940D010C940D010C940D01D7
:100170000C940D010C940D010C940D010C940D01C7
:100180000C940D010C940D010C940D010C940D01B7
:100190000C940D010C940D010C940D010C940D01A7
:1001A0000C940D010C940D010C940D010C940D0197
:1001B0000C940D010C940D010C940D010C940D0187
:1001C0000C940D010C940D010C940D010C940D0177
:1001D0000C940D010C940D010C940D010C940D0167
:1001E0000C940D010C940D0111241FBECFEFDFE51F
:1001F000DEBFCDBF00E00CBF10E2A0E0B0E2E4E95A
:10020000F3E000E00BBF02C007900D92A030B107F1
:10021000D9F70E947A010C94C8010C940000109246
:10022000000610922006109240061092600682E0AE
:100230008093800680EE8093A00608958230B1F00E
:10024000833028F4882341F0813029F50BC08330B6
:1002500089F08F3F01F515C0809184068260E0E847
:10026000F6E00DC08091A406806207C08091A406CC
:10027000806403C08091A4068068E0EAF6E084838D
:10028000089580E00E941E0181E00E941E0182E02C
:100290000E941E01EFCF08958230B1F0833028F420
:1002A000882341F0813029F50BC0833089F08F3FDE
:1002B00001F515C0809184068D7FE0E8F6E00DC061
:1002C0008091A4068F7D07C08091A4068F7B03C018
:1002D0008091A4068F77E0EAF6E08483089580E0B9
:1002E0000E944C0181E00E944C0182E00E944C017E
:1002F000EFCF0895CF93DF9310920006109220065F
:10030000109240061092600682E08093800680EE94
:100310008093A006C9E1D0E081E00E941E0188E838
:1003200093E1FE013197F1F70197D9F782E00E943E
:100330001E0188E893E1FE013197F1F70197D9F7A3
:1003400083E00E941E0188E893E1FE013197F1F7F6
:100350000197D9F780E00E941E0188E893E1FE0131
:100360003197F1F70197D9F780E00E944C0181E0C5
:100370000E944C0182E00E944C0183E00E944C01EB
:1003800088E893E1FE013197F1F70197D9F7C4CFDF
:04039000F894FFCF0F
:00000001FF
