:100000000C943E000C945B000C945B000C945B0021
:100010000C945B000C945B000C945B000C945B00F4
:100020000C945B000C945B000C945B000C945B00E4
:100030000C945B000C945B000C945B000C945B00D4
:100040000C945B000C945B000C945B000C945B00C4
:100050000C9467170C944E180C94BD170C945B000D
:100060000C945B000C945B000C945B000C945B00A4
:100070000C9492170C9479180C94171811241FBE25
:10008000CFEFD0E1DEBFCDBF11E0AEE0B1E001C007
:100090001D92A53DB107E1F711E0A0E0B1E0E0E07D
:1000A000FFE302C005900D92AE30B107D9F70E9470
:1000B0004A090C947E1F0C940000DF93CF9300D06C
:1000C000CDB7DEB79A8389831092740189819A81B2
:1000D00090930F0180930E0181E080937F0188E06F
:1000E0008093800185E891E0909382018093810163
:1000F00088E30E94B6128AE20E942E1385E00E94D5
:100100002E1382E10E942E130E94171388E30E948F
:10011000B61283E10E942E1380E00E942E130E94EB
:1001200017130F900F90CF91DF910895DF93CF9326
:1001300000D0CDB7DEB79A83898389819A81FC018B
:1001400082819381FC0180818430D9F589819A81F3
:10015000FC01828193810196FC0180818130A1F4B0
:1001600081E094E0909386018093850187E891E097
:100170000E94280180910E0190910F012FE731E03C
:10018000B9010E9462061DC089819A81FC018281A9
:1001900093810196FC018081823099F482E094E0A1
:1001A000909386018093850187E891E00E94E600A4
:1001B00080910E0190910F012FE731E0B9010E946B
:1001C00062060F900F90CF91DF910895DF93CF9348
:1001D00000D0CDB7DEB79A83898380917401882FD0
:1001E00090E0880F991F885C9E4FFC01208131812F
:1001F00089819A81FC013183208389819A810296C9
:1002000020917401222F30E0265F3F4F220F331FD1
:10021000285C3E4FF90120813181FC01318320832C
:1002200089819A81049620917401222F30E02C5EFE
:100230003F4F220F331F285C3E4FF901208131814F
:10024000FC01318320830F900F90CF91DF910895AF
:10025000DF93CF93CDB7DEB760970FB6F894DEBFCC
:100260000FBECDBF988B8F871A8219821C821B828A
:100270001E821D8218861F821A8619861C861B867E
:100280001E861D8687C08D859E85880F991F885C78
:100290009E4FFC01808191812AE030E0B9010E94EB
:1002A000F81D9B01C90129813A81820F931F9A830E
:1002B00089838D859E850A96880F991F885C9E4F3D
:1002C000FC01808191812AE030E0B9010E94F81D93
:1002D0009B01C9012B813C81820F931F9C838B83DF
:1002E0008D859E854496880F991F885C9E4FFC01E2
:1002F000808191812AE030E0B9010E94F81D9B01C4
:10030000C9012D813E81820F931F9E838D838D8530
:100310009E85880F991F885C9E4FFC01808191818A
:100320002AE030E0B9010E94F81D2F813885820F44
:10033000931F98878F838D859E850A96880F991FB6
:10034000885C9E4FFC01808191812AE030E0B901F8
:100350000E94F81D29853A85820F931F9A87898705
:100360008D859E854496880F991F885C9E4FFC0161
:10037000808191812AE030E0B9010E94F81D2B852F
:100380003C85820F931F9C878B878D859E85019668
:100390009E878D878D859E858A3091050CF473CF5D
:1003A0008F8198852AE030E0B9010E94F81D9B01F9
:1003B00089819A81280F391F8F859889FC013183A3
:1003C00020838F8598899C012E5F3F4F89859A8570
:1003D0004AE050E0BA010E94F81DAB018B819C817C
:1003E000840F951FF901918380838F8598899C01E3
:1003F0002C5F3F4F8B859C854AE050E0BA010E94FC
:10040000F81DAB018D819E81840F951FF9019183A9
:10041000808360960FB6F894DEBF0FBECDBFCF913C
:10042000DF910895DF93CF9300D0CDB7DEB7198267
:100430001A8288E30E94B61281E00E942E1389E39B
:100440000E940A130E94561389830E9456138A83BE
:1004500080917401882F90E02981222F30E0A9013A
:100460000024569547950794569547950794542F21
:10047000402D2A8126952695222F30E02F7030704E
:10048000242B352B880F991F885C9E4FFC013183EC
:1004900020830E94561389830E9456138A83809179
:1004A0007401882F90E02981222F30E0A9010024D7
:1004B000569547950794569547950794542F402D88
:1004C0002A8126952695222F30E02F703070242B1C
:1004D000352B0A96880F991F885C9E4FFC0131834B
:1004E00020830E94561389830E946D138A83809112
:1004F0007401882F90E02981222F30E0A901002487
:10050000569547950794569547950794542F402D37
:100510002A8126952695222F30E02F703070242BCB
:10052000352B4496880F991F885C9E4FFC013183C0
:1005300020830E94171380917401882F90E0880F08
:10054000991F885C9E4FFC0180819181807098701A
:100550000097B9F080917401882F90E02091740188
:10056000222F30E0220F331F285C3E4FF9012081FB
:100570003181306F880F991F885C9E4FFC01318359
:10058000208380917401882F90E00A96880F991F2C
:10059000885C9E4FFC0180819181807098700097EB
:1005A000D1F080917401882F90E020917401222F66
:1005B00030E0265F3F4F220F331F285C3E4FF9018A
:1005C00020813181306F0A96880F991F885C9E4F79
:1005D000FC013183208380917401882F90E0449640
:1005E000880F991F885C9E4FFC01808191818070EB
:1005F00098700097D1F080917401882F90E020913D
:100600007401222F30E02C5E3F4F220F331F285CF5
:100610003E4FF90120813181306F4496880F991F38
:10062000885C9E4FFC013183208380917401893066
:1006300030F4809174018F5F8093740102C0109236
:1006400074010F900F90CF91DF910895DF93CF93B6
:1006500000D0CDB7DEB79A83898389819A81909340
:10066000AC018093AB0181E08093AF0189EB91E015
:100670009093B2018093B10185E991E00E94F40367
:100680008DEA91E00E944D12109291010F900F900F
:10069000CF91DF910895DF93CF9300D0CDB7DEB730
:1006A0009A83898389819A81FC0182819381FC01EB
:1006B0008081833009F093C089819A81FC01828115
:1006C00093810196FC0180818230C1F482E08093A5
:1006D000B9018AEB91E025E931E0B9014CE050E045
:1006E0000E94751F8DE08093B0018091AB019091C5
:1006F000AC012FEA31E0B9010E94620689819A813A
:10070000FC01828193810196FC0180818330C9F4D0
:1007100083E08093B9018AEB91E021EA31E0B901ED
:100720004AE050E00E94751F8BE08093B0018091F9
:10073000AB019091AC012FEA31E0B9010E94620651
:100740004EC089819A81FC01828193810196FC01CE
:100750008081813009F043C081E08093B9018091AC
:10076000930190919401892F990F990B8093BA016D
:1007700080919301909194018093BB018091B50188
:100780009091B601A091B701B091B801CD01AA270F
:10079000BB278093BC018091B5019091B601A091D7
:1007A000B701B091B801892F9A2FAB2FBB27809347
:1007B000BD018091B5019091B601A091B701B091B2
:1007C000B8018093BE0186E08093B0018091AB01B7
:1007D0009091AC012FEA31E0B9010E9462060F90BE
:1007E0000F90CF91DF910895EF92FF920F931F9397
:1007F000DF93CF9300D000D0CDB7DEB79C838B833F
:100800001A8219828EEE0E94B6128AEA0E942E1374
:100810008FEE0E940A131A82198234C089819A814C
:10082000880F991F2B813C818901080F191F0E9495
:100830005613882F90E0F8019183808389819A81F3
:10084000880F991F2B813C818901080F191F89810D
:100850009A81880F991F2B813C81820F931FFC0185
:10086000E080F1800E945613882F90E0982F88270F
:100870008E299F29F8019183808389819A8101962D
:100880009A83898389819A818B3091053CF20F90FC
:100890000F900F900F90CF91DF911F910F91FF90CC
:1008A000EF900895EF92FF920F931F93DF93CF93F2
:1008B00000D0CDB7DEB79A838983809191018823D8
:1008C000B1F481E0809391018981809392018EEE51
:1008D0000E94711284EF0E942E138EE20E942E134A
:1008E0000E9417138DEA91E00E944D1289C08091F9
:1008F0009101813091F58EEE0E94711286EF0E9477
:100900002E138FEE0E940A130E945613882F90E038
:10091000182F00270E946D13882F90E0802B912BB9
:1009200090939401809393018EEE0E94711284EF54
:100930000E942E13809192018295880F880F807CEF
:100940008C5C0E942E130E9417138DEA91E00E9486
:100950004D1282E08093910153C0809191018230C9
:1009600009F04CC08EEE0E94711286EF0E942E1389
:100970008FEE0E940A130E945613882F90E0A0E089
:10098000B0E08C01FF24EE240E945613882F90E0E3
:10099000A0E0B0E0BA2FA92F982F8827E82AF92ADB
:1009A0000A2B1B2B0E946D13882F90E0A0E0B0E073
:1009B0008E299F29A02BB12B20919201222F30E06C
:1009C00048E050E0BA01621B730B9B0104C0B6956E
:1009D000A795979587952A95D2F78093B50190931F
:1009E000B601A093B701B093B8010E9417131092FB
:1009F00091018DEA91E00E944D1202C01092910186
:100A00008DEA91E00E944D120F900F90CF91DF91EF
:100A10001F910F91FF90EF900895DF93CF93CDB783
:100A2000DEB780919101882351F48DEA91E00E9414
:100A30000D1221E08738920710F081E01BC08091F1
:100A40009101813049F48DEA91E00E940D128E32BD
:100A5000910510F081E00EC080919101823049F43F
:100A60008DEA91E00E940D128E3C910510F081E01C
:100A700001C080E0CF91DF910895DF93CF9300D044
:100A8000CDB7DEB79A83898389819A819093CE010D
:100A90008093CD010F900F90CF91DF910895DF9358
:100AA000CF9300D0CDB7DEB79A83898389819A81AD
:100AB000FC0182819381FC018081823031F5898142
:100AC0009A81FC01828193810196FC0180818130B1
:100AD000E1F489819A81FC01828193810296FC0173
:100AE0008081882F90E0982F88279C0189819A81A6
:100AF000FC01828193810396FC018081882F90E024
:100B00009070822B932B0E948A050F900F90CF91AB
:100B1000DF910895DF93CF93CDB7DEB72B970FB654
:100B2000F894DEBF0FBECDBF9B878A878A859B85E1
:100B3000892F99278695382F37708A859B850024C1
:100B4000880F991F001C880F991F001C892F902D5A
:100B5000282F27708A859B859695879596958795EA
:100B600096958795982F97708A85877041E8498375
:100B700041E04A8344E04B8347E44C833D832E832A
:100B80009F8388878FEF89878091CD019091CE01D7
:100B90009E012F5F3F4FB90149E050E00E945D1573
:100BA0002B960FB6F894DEBF0FBECDBFCF91DF916D
:100BB0000895DF93CF9300D000D0CDB7DEB79A83EE
:100BC00089837C836B8389819A812B813C81FC01A1
:100BD0003183208389819A8102960E940D0F898139
:100BE0009A81FC0112AE11AE89819A8124E238E02B
:100BF000FC0130AF27AB89819A8122E438E0FC0107
:100C000034AF23AF89819A8125E039E0FC0136AF0A
:100C100025AF89819A81CF9629813A81FC01318360
:100C2000208389819A81895B9F4FFC011182108208
:100C300089819A818B5B9F4FFC011182108289818F
:100C40009A818F5B9F4FFC011182108289819A816A
:100C50008D5B9F4FFC011182108289819A81FC017A
:100C60008081918123E038E0FC0137A726A78981A4
:100C70009A81FC018081918129813A81FC0135A70B
:100C800024A70F900F900F900F90CF91DF910895B0
:100C9000DF93CF9300D000D0CDB7DEB79A8389839E
:100CA0007C836B8389819A81895B9F4F2B813C81F7
:100CB000FC01318320830F900F900F900F90CF9104
:100CC000DF910895DF93CF9300D000D00F92CDB77E
:100CD000DEB79B838A837D836C838C819D81FC013D
:100CE000818189838A819B8102960E948E1188234B
:100CF00011F080E024C08981853110F084E189837E
:100D00008A819B814C962C813D81F90142815381DE
:100D10002981222F30E0BA01A9010E94751F8A8122
:100D20009B8102962C813D81F9012081622F4981AE
:100D30000E94A211882311F481E001C080E00F908D
:100D40000F900F900F900F90CF91DF910895DF9348
:100D5000CF9300D000D000D0CDB7DEB79E838D8377
:100D6000F8948D819E810E9417079A8389838D81D3
:100D70009E818F5B9F4FFC0180819181009719F4C8
:100D800080E090E04BC08D819E818F5B9F4FFC0186
:100D900080819181FC01848195819C838B838D81ED
:100DA0009E818F5B9F4FFC01808191810E94A307F0
:100DB0008D819E818F5B9F4FFC01808191810E947C
:100DC000DC1E8D819E818F5B9F4F2B813C81FC01BE
:100DD000318320838D819E818F5B9F4FFC018081B9
:100DE0009181009739F48D819E818D5B9F4FFC012D
:100DF000118210828D819E818B5B9F4FFC018081CF
:100E000091819C01215030408D819E818B5B9F4F51
:100E1000FC0131832083789489819A8126960FB6CC
:100E2000F894DEBF0FBECDBFCF91DF910895DF9361
:100E3000CF9300D000D0CDB7DEB79C838B838B815E
:100E40009C818F5B9F4FFC0180819181009719F4F9
:100E500080E090E05EC086E090E00E94421E9A83AF
:100E6000898389819A81009719F480E090E051C0CC
:100E70008B819C818F5B9F4FFC0180819181FC0164
:100E8000208189819A81FC0120838B819C818F5BE9
:100E90009F4FFC0180819181FC01218189819A8190
:100EA000FC01218389819A81FC018181882F90E056
:100EB0000E94421E9C0189819A81FC013383228316
:100EC00089819A81FC0182819381009739F489811B
:100ED0009A810E94DC1E80E090E01BC089819A818B
:100EE000FC01828193812B813C812F5B3F4FF90173
:100EF00020813181F9014281538129813A81F901AF
:100F00002181222F30E0BA01A9010E94751F898139
:100F10009A810F900F900F900F90CF91DF910895CD
:100F2000DF93CF9300D0CDB7DEB79A8389838981D1
:100F30009A818B5B9F4FFC01808191810F900F9074
:100F4000CF91DF910895DF93CF9300D0CDB7DEB777
:100F50009A83898389819A810097E1F089819A81B6
:100F6000FC01108289819A81FC01118289819A8118
:100F7000FC0182819381009739F089819A81FC017B
:100F8000828193810E94DC1E89819A81FC011382F7
:100F9000128201C000000F900F90CF91DF91089551
:100FA000DF93CF9300D000D000D0CDB7DEB79E83C3
:100FB0008D838D819E818F5B9F4FFC01808191810C
:100FC0009A83898313C089819A819C838B838981C9
:100FD0009A81FC01848195819A8389838B819C818C
:100FE0000E94A3078B819C810E94DC1E89819A81CB
:100FF000009749F726960FB6F894DEBF0FBECDBF17
:10100000CF91DF9108950F931F93DF93CF9300D07B
:10101000CDB7DEB79A83898389819A81FC0184A543
:1010200095A58C010E5F1F4F89819A810E94F11551
:10103000282FC801622F0E94500F0F900F90CF9160
:10104000DF911F910F910895DF93CF9300D00F92FE
:10105000CDB7DEB79A8389836B8389819A81FC013E
:1010600085AD96ADFC01808191816B810E944E1708
:1010700089819A810E948A100F900F900F90CF91D2
:10108000DF910895DF93CF9300D000D000D0CDB78B
:10109000DEB79E838D8386E090E00E94421E9A8395
:1010A000898389819A81009709F4A5C089819A81F1
:1010B000FC01158214828D819E81FC012789898122
:1010C0009A81FC0120838D819E81FC012489898184
:1010D0009A81FC01218389819A81FC018181882F79
:1010E00090E00E94421E9C0189819A81FC01338319
:1010F000228389819A81FC0182819381009729F45E
:1011000089819A810E94DC1E77C089819A81FC01C5
:10111000828193814D815E8129813A81F90121810A
:10112000222F30E0BA01A9010E94751F8D819E8196
:10113000FC0185AD96AD9C838B838B819C818F5BFD
:101140009F4FFC0180819181009749F48B819C81A4
:101150008F5B9F4F29813A81FC01318320838B81F2
:101160009C818D5B9F4FFC0180819181009751F4A0
:101170008B819C818D5B9F4F29813A81FC0131835A
:10118000208315C08B819C818D5B9F4FFC018081EA
:10119000918129813A81FC01358324838B819C8153
:1011A0008D5B9F4F29813A81FC01318320838B81A4
:1011B0009C818B5B9F4FFC01808191819C012F5F03
:1011C0003F4F8B819C818B5B9F4FFC013183208340
:1011D0008B819C81895B9F4FFC018081918100976D
:1011E00059F08B819C81895B9F4FFC0180819181AB
:1011F000FC01099501C0000026960FB6F894DEBFE9
:101200000FBECDBFCF91DF910895DF93CF9300D074
:101210000F92CDB7DEB79A8389836B830F900F90BF
:101220000F90CF91DF910895DF93CF93CDB7DEB7C5
:10123000F8948BE290E02BE230E0F90120812F7DE1
:10124000FC0120838BE290E02BE230E0F901208169
:101250002061FC0120837894CF91DF910895DF9382
:10126000CF93CDB7DEB7F8948BE290E02BE230E07D
:10127000F90120812F7EFC0120838BE290E02BE29C
:1012800030E0F90120812062FC0120837894CF9125
:10129000DF910895EF920F931F93DF93CF93CDB714
:1012A000DEB7CF5AD0400FB6F894DEBF0FBECDBF29
:1012B0008AE290E020E7FC01208381E290E021E0D7
:1012C000FC0120830E9484130E942F09CE01059601
:1012D00060E044E02AE030E00AE010E0EE24E3942D
:1012E0000E941C14CE018B599F4F9E012B5F3F4FD4
:1012F000B9010E94D905CE01C59661E042E024E122
:1013000030E005E010E0EE240E941C140E94140955
:10131000CE018B599F4F0E945D00CE018B599F4F8C
:101320000E942603CE01C5960E94850ACE01C5966D
:101330000E943D050E94F111CE0182559F4F0E94EF
:101340004D120E94140982E290E022E230E0F9019D
:1013500020812160FC01208382E06AE773E00E9423
:10136000720C81E063E172E00E94720C83E090E015
:101370000E945204A6C0CE018B599F4F0E94A7061F
:101380009A83898389819A81009709F4A3C089810E
:101390009A81FC018181882349F489819A810E9484
:1013A000A30789819A810E94DC1E8BC089819A8162
:1013B000FC0182819381FC0180818130C9F482E249
:1013C00090E022E230E0F90120812E7FFC012083B1
:1013D0000E94140989819A810E942B0B82E290E07D
:1013E00022E230E0F90120812160FC01208361C00C
:1013F00089819A81FC0182819381FC018081823004
:10140000C9F482E290E022E230E0F90120812E7FEF
:10141000FC0120830E942F0989819A810E944F0537
:1014200082E290E022E230E0F90120812160FC01BB
:1014300020833FC089819A81FC0182819381FC01D4
:1014400080818330B9F482E290E022E230E0F90159
:1014500020812E7FFC01208389819A810E944B0389
:1014600082E290E022E230E0F90120812160FC017B
:1014700020831FC089819A81FC0182819381FC01B4
:1014800080818430B1F482E290E022E230E0F90120
:1014900020812E7FFC01208389819A810E94960001
:1014A00082E290E022E230E0F90120812160FC013B
:1014B000208389819A810E94A30789819A810E9451
:1014C000DC1ECE018B599F4F0E949007009709F0B8
:1014D00052CF01C00000CE0182559F4F0E940D12D5
:1014E0008832910538F00E941202CE0182559F4F3A
:1014F0000E944D120E940D058130910521F483E078
:1015000090E00E9452040000DCCF0F931F93DF9302
:10151000CF93CDB7DEB760970FB6F894DEBF0FBE9E
:10152000CDBF988B8F878F8598899093D0018093BA
:10153000CF0181E061E041E028E008E00E94960CE4
:1015400080E090E0A8E4B2E489839A83AB83BC8313
:1015500069817A818B819C8120E030E04AE753E405
:101560000E94781ADC01CB018D839E83AF83B887FC
:1015700011E06D817E818F81988520E030E040E828
:101580005FE30E94D21B88230CF010E0112329F0A6
:1015900081E090E09A87898746C011E06D817E8165
:1015A0008F81988520E03FEF4FE757E40E94721B40
:1015B00018160CF010E0112361F169817A818B819A
:1015C0009C8120E030E040E251E40E94781ADC0186
:1015D000CB01BC01CD010E94A418DC01CB019A878C
:1015E000898712C089E190E09C878B878B859C85D9
:1015F0008C01C8010197F1F78C011C870B87898545
:101600009A8501979A87898789859A85009751F7E6
:1016100017C06D817E818F8198850E94A418DC019E
:10162000CB019A87898789859A859E878D878D8545
:101630009E858C01C8010197F1F78C011E870D87EB
:1016400060960FB6F894DEBF0FBECDBFCF91DF918D
:101650001F910F9108950F93DF93CF93CDB7DEB70E
:1016600028970FB6F894DEBF0FBECDBF98878F8343
:101670008F819885FC0182819381FC01808181307A
:1016800009F026C18F819885FC01828193810196A2
:10169000FC018081813009F069C08F819885FC014F
:1016A000828193810396FC018081882F90E0982F9E
:1016B00088279C018F819885FC0182819381049603
:1016C000FC018081882F90E09070822B932B9A836D
:1016D00089838F819885FC01828193810296FC0128
:1016E00080818130B1F489819A81F1E08C379F0744
:1016F00028F48CE791E09A8389832AC089819A81B2
:1017000022E0853B920720F184EB92E09A83898363
:101710001FC08F819885FC01828193810296FC0114
:1017200080818230A9F489819A81F2E08C319F070F
:1017300028F48CE192E09A8389830AC089819A8196
:1017400023E0893E920720F088EE93E09A83898314
:101750008F819885FC01828193810296FC018081B2
:1017600029813A81B9010E94720CB2C08F8198859B
:10177000FC01828193810196FC018081833009F014
:101780006FC08F819885FC01828193810296FC0154
:101790008081882F90E0982F88279C018F819885E1
:1017A000FC01828193810396FC018081882F90E067
:1017B0009070822B932B9C838B838F819885FC0167
:1017C000828193810496FC018081882F90E0982F7C
:1017D00088279C018F819885FC01828193810596E1
:1017E000FC018081882F90E09070822B932B9E8348
:1017F0008D838B819C81F1E08C379F0728F48CE7E7
:1018000091E09C838B830AC08B819C8122E0853B85
:10181000920720F084EB92E09C838B838D819E81E4
:10182000E2E08C319E0728F48CE192E09E838D8368
:101830000AC08D819E81F3E0893E9F0720F088EEEB
:1018400093E09E838D832B813C8181E0B9010E94CE
:10185000720C2D813E8182E0B9010E94720C38C069
:101860008F819885FC01828193810196FC018081A2
:10187000823071F58F819885FC0182819381029677
:10188000FC0150818F819885FC01828193810396B0
:10189000FC0140818F819885FC01828193810496AF
:1018A000FC0130818F819885FC01828193810596AE
:1018B000FC0120818F819885FC01828193810696AD
:1018C000FC019081852F642F432F092F0E94960CD5
:1018D00028960FB6F894DEBF0FBECDBFCF91DF9133
:1018E0000F910895DF93CF9300D000D000D0CDB7F3
:1018F000DEB78C837E836D832D818D819E81892FC0
:1019000099279EE199832A838B838C8163E043E04E
:101910009E012F5F3F4F0E94C20C26960FB6F8948F
:10192000DEBF0FBECDBFCF91DF9108950F93DF9340
:10193000CF93CDB7DEB72A970FB6F894DEBF0FBEB0
:10194000CDBF8E836F83488729870A878AE1898381
:101950008F818A8388858B8389858C838A858D8313
:101960008E8163E045E09E012F5F3F4F0E94C20CD5
:101970002A960FB6F894DEBF0FBECDBFCF91DF9190
:101980000F910895DF93CF93CDB7DEB728970FB6A9
:10199000F894DEBF0FBECDBF8C836D834E83388736
:1019A0002F838091CF019091D0016FEF0E944E174D
:1019B0008091CF019091D0016FEF0E944E178091DE
:1019C000CF019091D0016C810E944E178E818E5F65
:1019D0008B838091CF019091D0016B810E944E1733
:1019E0008091CF019091D0016D810E944E17198294
:1019F0001A821FC08091CF019091D0012A81222F9D
:101A000030E04F815885240F351FF9012081622F66
:101A10000E944E178A81882F90E02F813885820F8F
:101A2000931FFC0180819981890F89838A818F5F4F
:101A30008A839A818E819817E8F29C818B81980F16
:101A40008D81890F9981890F898389818095898307
:101A50008091CF019091D00169810E944E17289604
:101A60000FB6F894DEBF0FBECDBFCF91DF910895C2
:101A7000DF93CF9300D000D0CDB7DEB79A838983B0
:101A80007C836B838B819C810E94421E9C01898197
:101A90009A81FC013183208389819A81FC01138220
:101AA000128289819A81FC011582148289819A812E
:101AB000FC011782168289819A812B813C81FC016D
:101AC000318720870F900F900F900F90CF91DF916B
:101AD0000895DF93CF9300D0CDB7DEB79A83898383
:101AE00089819A81FC01808191810E94DC1E89811B
:101AF0009A81FC011182108289819A81FC011382F2
:101B0000128289819A81FC01158214820F900F90B4
:101B1000CF91DF910895DF93CF93CDB7DEB72897AC
:101B20000FB6F894DEBF0FBECDBF9C838B837E8340
:101B30006D8358874F831A82198217C02D813E8189
:101B400089819A81820F931FFC0120818B819C8166
:101B5000622F0E94C90D982F81E08927882369F49C
:101B600089819A8101969A83898329813A818F811B
:101B700098852817390710F301C0000089819A81E0
:101B800028960FB6F894DEBF0FBECDBFCF91DF9180
:101B90000895DF93CF9300D00F92CDB7DEB79A832D
:101BA00089836B8389819A81FC01248135818981B4
:101BB0009A81FC014085518581E090E0BA010E9444
:101BC000E41D280F391F89819A81FC01828193814C
:101BD0002817390791F189819A81FC0186819781C3
:101BE0009C012F5F3F4F89819A81FC0137832683B7
:101BF00089819A81FC012081318189819A81FC014E
:101C000084819581820F931F2B81FC012083898120
:101C10009A81FC0184819581019629813A81F9019B
:101C200020853185B9010E94E41D9C0189819A813A
:101C3000FC013583248381E001C080E00F900F9088
:101C40000F90CF91DF910895DF93CF9300D00F9243
:101C5000CDB7DEB79B838A838A819B81FC01248177
:101C600035818A819B81FC01828193812817390704
:101C700091F18A819B81FC01208131818A819B8144
:101C8000FC0182819381820F931FFC0180818983F3
:101C90008A819B81FC018281938101962A813B810B
:101CA000F90120853185B9010E94E41D9C018A81DA
:101CB0009B81FC01338322838A819B81FC01868185
:101CC00097819C01215030408A819B81FC013783A0
:101CD0002683898101C080E00F900F900F90CF91F3
:101CE000DF9108950F931F93DF93CF93CDB7DEB7A6
:101CF0002A970FB6F894DEBF0FBECDBF9E838D83AB
:101D000078876F835A8749878D819E810E94C20E92
:101D10009C0189859A852817390738F48D819E8121
:101D20000E94C20E9C838B8304C089859A859C8304
:101D30008B831A82198212C02F81388589819A81FA
:101D40008901080F191F8D819E810E94240EF801C0
:101D5000808389819A8101969A83898329813A8136
:101D60008B819C812817390738F38B819C812A96B7
:101D70000FB6F894DEBF0FBECDBFCF91DF911F919C
:101D80000F910895DF93CF9300D0CDB7DEB79A833C
:101D9000898389819A81FC01868197810F900F90B8
:101DA000CF91DF910895DF93CF9300D0CDB7DEB709
:101DB0009A83898389819A81FC0120853185898173
:101DC0009A81FC0186819781A901481B590BCA01A0
:101DD0000F900F90CF91DF910895DF93CF9300D0B4
:101DE0000F92CDB7DEB79A8389836B8389819A81FD
:101DF000FC0183AD94AD009751F089819A81FC017B
:101E000023AD34AD89819A816B81F90109950F90D9
:101E10000F900F90CF91DF910895DF93CF9300D073
:101E2000CDB7DEB79A83898389819A81FC01118EAF
:101E300089819A81FC01168A89819A81FC0116AAFE
:101E400015AA89819A81FC0110AE17AA89819A810D
:101E5000FC0112AE11AE89819A81FC0114AE13AE61
:101E600089819A8124E1FC0126A789819A81FC015C
:101E700017A689819A81FC0110AA89819A81FC01A7
:101E800011AA89819A81FC0114AA13AA89819A81D5
:101E9000FC0116AE15AE0F900F90CF91DF91089513
:101EA000DF93CF9300D00F92CDB7DEB79A838983AB
:101EB0006B838B81882319F08B818F3F31F489816B
:101EC0009A8167E00E94ED0E5FC08B818A3CC9F465
:101ED00089819A81FC01818D882329F089819A81E9
:101EE00061E00E94ED0E89819A8121E0FC01218F41
:101EF00089819A81FC01148A89819A81FC01168A60
:101F000043C089819A81FC01818D882331F48981C4
:101F10009A8162E00E94ED0E37C08B818C3531F4DE
:101F200089819A8121E0FC01268B2EC089819A81CA
:101F3000FC018689882319F189819A81FC01168A1E
:101F40008B81882F90E08330910571F0843091056A
:101F500024F48230910559F012C08430910551F07B
:101F60008530910549F00BC08CE58B8308C08AEC65
:101F70008B8305C01B8203C08FEF8B830000898198
:101F80009A816B810E94CA0F0F900F900F90CF9192
:101F9000DF910895DF93CF9300D00F92CDB7DEB7D6
:101FA0009A8389836B8389819A81FC01818D882F33
:101FB00090E082309105F9F08330910524F481306E
:101FC000910549F0A1C083309105C1F1843091059C
:101FD00009F46CC099C089819A812B81FC01278BFF
:101FE00089819A812B81FC01208F89819A8122E04D
:101FF000FC01218F89C08B81853150F089819A81C4
:10200000FC01118E89819A8164E00E94ED0E7CC0F2
:1020100089819A812B81FC01258B89819A81FC0120
:10202000908D8B81292F280F89819A81FC01208F27
:1020300089819A8123E0FC01218F66C089819A8180
:10204000FC018589282F215089819A81FC01258BEB
:1020500089819A81FC01908D8B81292F280F89819C
:102060009A81FC01208F89819A81FC018489882FC3
:1020700090E029813A81820F931F2B81FC012083FC
:1020800089819A81FC018489282F2F5F89819A8117
:10209000FC01248B89819A81FC018589882399F52B
:1020A00089819A8124E0FC01218F2EC089819A8147
:1020B000FC01808D282F209589819A81FC01208F39
:1020C00089819A81FC01908D8B81981789F489818F
:1020D0009A81FC0181AD92AD009779F089819A8156
:1020E000FC0121AD32AD89819A81F901099505C0C4
:1020F00089819A8165E00E94ED0E89819A81FC01B7
:10210000118E000001C000000F900F900F90CF9132
:10211000DF910895DF93CF9300D00F92CDB7DEB754
:102120009B838A8319828A819B81FC0182A98823EF
:1021300051F08A819B81FC0182A989838A819B81DC
:10214000FC0112AAD2C08A819B81FC0186A5882F3E
:1021500090E081319105C9F1823191053CF48F30D5
:10216000910569F080319105D1F087C082319105E8
:1021700009F461C08331910509F469C07EC08A8188
:102180009B81FC0187A589838A819B812981FC0130
:1021900021AB8A819B8120E1FC0126A76EC08A8148
:1021A0009B81FC0180A989838A819B81FC0191A983
:1021B0008981292F280F8A819B81FC0121AB8A818B
:1021C0009B8121E1FC0126A758C08A819B81FC01EB
:1021D00083A994A9FC01808189838A819B81FC0168
:1021E00091A98981292F280F8A819B81FC0121AB2C
:1021F0008A819B81FC0183A994A99C012F5F3F4F99
:102200008A819B81FC0134AB23AB8A819B81FC01D9
:1022100080A9282F21508A819B81FC0120AB8A81D3
:102220009B81FC0180A9882339F58A819B8122E169
:10223000FC0126A722C08A819B81FC0181A980958F
:1022400089838A819B8123E1FC0126A716C08A81AC
:102250009B8124E1FC0126A78A819B81FC0187A93F
:1022600090AD009709F453C08A819B81FC0187A936
:1022700090ADFC0109954CC000008981882F90E049
:102280008C359105A9F08D3591051CF40097C1F0AE
:1022900027C08A3C910521F08F3F9105C9F020C0ED
:1022A0008A819B8122E0FC0122AB8CE589831DC0E1
:1022B0008A819B8123E0FC0122AB8CE5898315C0D8
:1022C0008A819B8124E0FC0122AB8CE589830DC0CF
:1022D0008A819B8125E0FC0122AB8CE5898305C0C6
:1022E0008A819B81FC0112AA00008A819B81FC01EA
:1022F00085A996A9009761F08A819B81FC0125A997
:1023000036A98A819B816981F901099501C0000084
:102310000F900F900F90CF91DF910895DF93CF939F
:1023200000D0CDB7DEB79A83898389819A81FC0179
:1023300096A581E0943109F480E00F900F90CF9141
:10234000DF910895DF93CF9300D000D0CDB7DEB7F3
:102350009A8389836B834C8389819A810E948E1131
:10236000882311F08FEF36C089819A81FC0185A9FD
:1023700096A9009711F48EEF2DC08C81853110F055
:102380008DEF28C089819A812B81FC0127A7898143
:102390009A812C81FC0120AB89819A819C01265E67
:1023A0003F4F89819A81FC0134AB23AB89819A81AB
:1023B000FC0112AA89819A812FE0FC0126A789815C
:1023C0009A81FC0125A936A989819A816AECF901D3
:1023D000099580E00F900F900F900F90CF91DF91B3
:1023E0000895DF93CF93CDB7DEB780E890E0FC018E
:1023F000108281E890E025E0FC012083CF91DF91FD
:102400000895DF93CF93CDB7DEB784E890E0FC0169
:1024100080819181CF91DF910895EF92FF920F9388
:102420001F93DF93CF93CDB7DEB72A970FB6F894FB
:10243000DEBF0FBECDBF9A8789870E940112CC01F3
:10244000A0E0B0E089839A83AB83BC8389859A85B9
:10245000FC0180819181CC01A0E0B0E029813A812A
:102460004B815C8179018A01E81AF90A0A0B1B0B7E
:10247000D801C7018D839E83AF83B8878D819E81EC
:102480002A960FB6F894DEBF0FBECDBFCF91DF9175
:102490001F910F91FF90EF900895DF93CF9300D09D
:1024A000CDB7DEB79A8389830E9401129C0189818E
:1024B0009A81FC01318320830F900F90CF91DF919F
:1024C0000895DF93CF93CDB7DEB789EB90E0FC01A1
:1024D000108288EB90E02CE0FC012083CF91DF910B
:1024E0000895DF93CF9300D0CDB7DEB78A838CEB0E
:1024F00090E024EAFC01208300008CEB90E0FC01DA
:1025000080818823D4F789EB90E0FC018081887F6B
:1025100089838981883029F08981803111F081E0B7
:1025200020C08BEB90E02A81FC0120838CEB90E0B3
:1025300024E8FC01208300008CEB90E0FC0180810A
:102540008823D4F789EB90E0FC018081887F898320
:102550008981883129F08981803411F081E001C0BE
:1025600080E00F900F90CF91DF910895DF93CF938C
:1025700000D0CDB7DEB78A838CEB90E024EAFC0173
:10258000208300008CEB90E0FC0180818823D4F74D
:1025900089EB90E0FC018081887F89838981883084
:1025A00021F08981803109F02EC08BEB90E02A81E7
:1025B000FC0120838CEB90E024E8FC0120830000E8
:1025C0008CEB90E0FC0180818823D4F789EB90E0CC
:1025D000FC018081887F89838981803219F089811B
:1025E000883591F48CEB90E024E9FC012083000015
:1025F0008CEB90E0FC018081882F90E080719070DE
:102600000097B1F70000B8CF00000F900F90CF9166
:10261000DF910895DF93CF930F92CDB7DEB7898313
:1026200089810E9471120F90CF91DF910895DF93FD
:10263000CF93CDB7DEB78CEB90E024E9FC0120838B
:1026400000008CEB90E0FC018081882F90E080718D
:1026500090700097B1F7CF91DF910895DF93CF93FA
:1026600000D0CDB7DEB78A838BEB90E02A81FC01E6
:1026700020838CEB90E024E8FC01208300008CEBAD
:1026800090E0FC0180818823D4F789EB90E0FC0185
:102690008081887F89838981883211F081E001C03F
:1026A00080E00F900F90CF91DF910895DF93CF934B
:1026B000CDB7DEB78CEB90E024ECFC01208300006A
:1026C0008CEB90E0FC0180818823D4F78BEB90E0C9
:1026D000FC018081CF91DF910895DF93CF93CDB737
:1026E000DEB78CEB90E024E8FC01208300008CEB4B
:1026F00090E0FC0180818823D4F78BEB90E0FC0113
:102700008081CF91DF910895DF93CF93CDB7DEB76E
:102710008FEC90E0909376018093750187E690E0CE
:10272000909378018093770183E390E090937A010E
:102730008093790189E190E090937C0180937B0103
:102740008CE090E090937E0180937D0110921001C7
:1027500082E08093110181E08093120180E48093F4
:1027600013018BE290E090931501809314018AE2AB
:1027700090E0909317018093160186EC90E090937F
:1027800019018093180180EC90E090931B018093D5
:102790001A0181EC90E090931D0180931C0182EC62
:1027A00090E090931F0180931E0184EC90E0909341
:1027B00021018093200185EC90E090932301809388
:1027C000220184E08093260188E080932501109205
:1027D00027018BE290E090932901809328018AE2FF
:1027E00090E090932B0180932A018EEC90E09093DF
:1027F0002D0180932C0188EC90E090932F01809321
:102800002E0189EC90E090933101809330018AECA5
:1028100090E090933301809332018CEC90E09093A0
:102820003501809334018DEC90E0909337018093D3
:102830003601CF91DF910895EF920F931F93DF93AD
:10284000CF93CDB7DEB729970FB6F894DEBF0FBE92
:10285000CDBF9A8389836B834C833E832D831887F6
:102860000F83E98689819A81FC0115A614A68981C6
:102870009A81FC0117A616A689819A812B81FC01F9
:1028800020838B81882F90E049815A81880F991F7E
:10289000880F991F9C01220F331F220F331F820FB5
:1028A000931F9C01205F3E4FCA01049644E1F90149
:1028B00000802F5F3F4FFC0100820196415044236E
:1028C000B1F78C81282F30E089819A81FC01328315
:1028D000218389819A812985FC01238389819A81B9
:1028E00048962D813E81B9010E94380D89819A81D7
:1028F00082962F813885B9010E94380D8B81882FEF
:1029000090E0880F991F83579E4F29813A81FC01DF
:102910003183208389819A81FC0182859385298175
:102920003A81F90122853385F901408129813A8173
:10293000F9012581242BFC01208389819A81FC01E6
:102940008285938529813A81F90122853385F901B0
:102950002081422F29813A81F90126812095242363
:10296000FC0120838985882341F189819A81FC01BA
:102970008285938529813A81F90122853385F90180
:10298000408129813A81F9012781242BFC01208390
:1029900089819A81FC018085918529813A81F9019B
:1029A00020853185F9012081422F29813A81F90161
:1029B000278120952423FC012083F89489819A8122
:1029C000FC01868997892C81222F30E0220F331F4A
:1029D0002B583E4FF90120813181232F3327FC01F1
:1029E000208389819A81FC01848995892C81222FF9
:1029F00030E0220F331F2B583E4FF90120813181E7
:102A0000FC01208389819A81FC0180899189298137
:102A10003A81F90120893189F90120812860FC017E
:102A2000208389819A81FC018089918929813A8159
:102A3000F90120893189F90120812061FC0120837D
:102A400089819A81FC018089918929813A81F901E2
:102A500020893189F90120812068FC012083898146
:102A60009A81FC018089918929813A81F901208923
:102A70003189F90120812062FC0120838985882326
:102A800079F089819A81FC018089918929813A8133
:102A9000F90120893189F90120812064FC0120831A
:102AA000789429960FB6F894DEBF0FBECDBFCF91B4
:102AB000DF911F910F91EF900895DF93CF93CDB7E2
:102AC000DEB728970FB6F894DEBF0FBECDBF9C834C
:102AD0008B837E836D8358874F838B819C81FC0120
:102AE000808991892B813C81F90120893189F90103
:102AF00020812F7DFC0120838B819C8148964D8114
:102B00005E812F813885BA01A9010E948B0D9A83BD
:102B100089838B819C81FC018381882339F18B819E
:102B20009C81FC01808591852B813C81F901208568
:102B30003185F90140812B813C81F9012781242BCA
:102B4000FC0120838B819C8161E00E94EE168B81C9
:102B50009C81FC01808991892B813C81F90120892C
:102B60003189F90120812064FC0120838B819C81C3
:102B7000FC01808991892B813C81F901208931896F
:102B8000F90120812062FC01208389819A812896A5
:102B90000FB6F894DEBF0FBECDBFCF91DF91089581
:102BA000DF93CF9300D000D000D0CDB7DEB79A83AB
:102BB00089837C836B835E834D8389819A8182962E
:102BC0004B815C812D813E81BA01A9010E94720E68
:102BD00026960FB6F894DEBF0FBECDBFCF91DF9122
:102BE0000895DF93CF9300D0CDB7DEB79A83898362
:102BF00089819A8182960E94240E0F900F90CF9126
:102C0000DF910895DF93CF9300D0CDB7DEB79A83DD
:102C1000898389819A8148960E94D30E0F900F90E4
:102C2000CF91DF910895DF93CF9300D0CDB7DEB77A
:102C30009A83898389819A8148960E94C20E0F9057
:102C40000F90CF91DF910895DF93CF9300D0CDB750
:102C5000DEB79A83898389819A8182960E94D30EF6
:102C60000F900F90CF91DF910895DF93CF9300D015
:102C7000CDB7DEB79A83898389819A8182960E9433
:102C8000C20E0F900F90CF91DF910895DF93CF93F5
:102C90000F92CDB7DEB789838981882F90E0880FA6
:102CA000991F83579E4FFC018081918182962981D3
:102CB000222F30E0220F331F23573E4FF90120818E
:102CC0003181F90124853585F9012081622F0E9427
:102CD000C90D8981882F90E0880F991F83579E4FD7
:102CE000FC0180819181FC0186A597A50097C9F020
:102CF0008981882F90E0880F991F83579E4FFC0190
:102D000080819181FC0126A537A58981882F90E0DB
:102D1000880F991F83579E4FFC0180819181F90193
:102D200009950F90CF91DF9108950F931F93DF9333
:102D3000CF930F92CDB7DEB789838981882F90E03A
:102D4000880F991F83579E4FFC018081918148967F
:102D50000E94C20E009701F58981882F90E0880FAC
:102D6000991F83579E4FFC0180819181FC018089CE
:102D700091892981222F30E0220F331F23573E4FA4
:102D8000F90120813181F90120893189F9012081FE
:102D90002F7DFC0120831CC08981882F90E0880F43
:102DA000991F83579E4FFC0180819181FC0104850E
:102DB00015858981882F90E0880F991F83579E4F32
:102DC000FC018081918148960E94240EF801808345
:102DD0000F90CF91DF911F910F910895DF93CF93C3
:102DE00000D00F92CDB7DEB79A8389836B83898138
:102DF0009A81FC018381882309F44AC08B8188234E
:102E000019F189819A81FC018089918929813A810E
:102E1000F90120893189F90120812F7EFC0120836D
:102E200089819A81FC018085918529813A81F90106
:102E300020853185F901408129813A81F901278175
:102E4000242BFC01208324C089819A81FC01808588
:102E5000918529813A81F90120853185F901208107
:102E6000422F29813A81F901278120952423FC01F1
:102E7000208389819A81FC018089918929813A8105
:102E8000F90120893189F90120812061FC01208329
:102E90000F900F900F90CF91DF910895DF93CF9314
:102EA00000D00F92CDB7DEB79A8389836B83898177
:102EB0009A819E012D5F3F4FB90141E050E00E9491
:102EC0005D150F900F900F90CF91DF9108951F9295
:102ED0000F920FB60F9211242F933F934F935F934E
:102EE0006F937F938F939F93AF93BF93EF93FF93D2
:102EF000DF93CF93CDB7DEB780E00E944616CF9127
:102F0000DF91FF91EF91BF91AF919F918F917F9151
:102F10006F915F914F913F912F910F900FBE0F9046
:102F20001F9018951F920F920FB60F9211242F9396
:102F30003F934F935F936F937F938F939F93AF9341
:102F4000BF93EF93FF93DF93CF93CDB7DEB781E0CD
:102F50000E944616CF91DF91FF91EF91BF91AF9103
:102F60009F918F917F916F915F914F913F912F91A1
:102F70000F900FBE0F901F9018951F920F920FB6D3
:102F80000F9211242F933F934F935F936F937F93EF
:102F90008F939F93AF93BF93EF93FF93DF93CF9361
:102FA000CDB7DEB780918D0190918E01FC018381B8
:102FB000882351F180918D0190918E010E9413160A
:102FC000009711F580918D0190918E01FC01808513
:102FD000918520918D0130918E01F90120853185F7
:102FE000F9012081422F20918D0130918E01F9014C
:102FF000278120952423FC01208380918D019091CD
:103000008E0160E00E94EE16CF91DF91FF91EF916B
:10301000BF91AF919F918F917F916F915F914F91F0
:103020003F912F910F900FBE0F901F9018951F92F8
:103030000F920FB60F9211242F933F934F935F93EC
:103040006F937F938F939F93AF93BF93EF93FF9370
:10305000DF93CF93CDB7DEB780918F019091900130
:10306000FC018381882339F080918D0190918E013C
:1030700060E00E94EE16CF91DF91FF91EF91BF913A
:10308000AF919F918F917F916F915F914F913F9100
:103090002F910F900FBE0F901F9018951F920F92B7
:1030A0000FB60F9211242F933F934F935F936F931B
:1030B0007F938F939F93AF93BF93EF93FF93DF9390
:1030C000CF93CDB7DEB780E00E949516CF91DF9108
:1030D000FF91EF91BF91AF919F918F917F916F91F0
:1030E0005F914F913F912F910F900FBE0F901F90C6
:1030F00018951F920F920FB60F9211242F933F93A2
:103100004F935F936F937F938F939F93AF93BF93EF
:10311000EF93FF93DF93CF93CDB7DEB781E00E94AB
:103120009516CF91DF91FF91EF91BF91AF919F9154
:103130008F917F916F915F914F913F912F910F9060
:103140000FBE0F901F901895EF92FF920F931F9351
:103150007B018C0120E030E040E05FE40E94A21B94
:1031600087FD11C0C801B70120E030E040E05FE416
:103170000E94471A0E94021C9B01AC012050304063
:103180004040504806C0C801B7010E94021C9B0184
:10319000AC01B901CA011F910F91FF90EF90089502
:1031A000A0E0B0E0E6EDF8E10C940F1EFC01EA01AE
:1031B0008081823008F438C1DB019C91923008F4A0
:1031C00030C1843059F4943009F02EC191811196A8
:1031D0008C911197981709F021C126C1943009F4F8
:1031E00020C19230B1F4823009F01EC1CA01AF0192
:1031F00028E0DA010D90AD01DC010D92CD012150E6
:10320000C1F7DB0111968C911197918189238983F4
:103210000AC1823009F405C1C280D380DB01129655
:103220006D907C9013972481358146815781149647
:10323000ED90FD900D911C911797C6018619970985
:103240005C0197FF04C0AA24BB24A81AB90AB0E203
:10325000AB16B1040CF061C0181619066CF53701F5
:1032600048010A2C04C096948794779467940A9432
:10327000D2F781E090E0A0E0B0E00A2C04C0880F13
:10328000991FAA1FBB1F0A94D2F70197A109B10980
:103290008E219F21A023B123EE24FF248701E394F4
:1032A0000097A105B10519F4EE24FF248701E62853
:1032B000F728082919293CC00097D1F1CA0CDB1C5A
:1032C00039014A010A2C04C0969487947794679434
:1032D0000A94D2F781E090E0A0E0B0E00A2C04C0AC
:1032E000880F991FAA1FBB1F0A94D2F70197A10943
:1032F000B10982239323A423B52321E030E040E0E9
:1033000050E00097A105B10519F420E030E0A901D3
:1033100026293729482959290BC06C147D0424F427
:10332000EE24FF24870104C0630120E030E0A901FE
:103330008181FB019181891709F445C0882349F0F7
:10334000D801C701821B930BA40BB50B9C01AD01E7
:1033500004C02E193F09400B510B57FD04C01982C0
:10336000DB82CA820BC081E08983DB82CA825095EE
:103370004095309521953F4F4F4F5F4F2C833D83B4
:103380004E835F830DC0880F991FAA1FBB1F8C83BC
:103390009D83AE83BF838A819B8101979B838A83B0
:1033A0008C819D81AE81BF819C01AD012150304057
:1033B000404050402F3FEFEF3E07EFEF4E07EFE367
:1033C0005E0708F30BC08983DB82CA822E0D3F1D86
:1033D000401F511F2C833D834E835F8383E088838E
:1033E0002C813D814E815F8157FF1DC0DA01C901EB
:1033F00081709070A070B07056954795379527955D
:10340000822B932BA42BB52B8C839D83AE83BF8300
:103410008A819B8101969B838A8305C0E0E0F1E06D
:1034200003C0FB0101C0FE01CF01CDB7DEB7EEE066
:103430000C942B1EA0E2B0E0E0E2FAE10C94171E1F
:1034400069837A838B839C832D833E834F83588744
:1034500089E0E82EF12CEC0EFD1ECE010196B7019D
:103460000E94221D8E010F5E1F4FCE010596B801EE
:103470000E94221DC701B801AE01475E5F4F0E9446
:10348000D0180E94541CA096E6E00C94331EA0E2D3
:10349000B0E0EDE4FAE10C94171E69837A838B8324
:1034A0009C832D833E834F8358878E01075F1F4F78
:1034B000CE010196B8010E94221D91E1E92EF12C66
:1034C000EC0EFD1ECE010596B7010E94221D8A89D1
:1034D00091E089278A8BC801B701AE01475E5F4F33
:1034E0000E94D0180E94541CA096E6E00C94331E53
:1034F000A0E2B0E0EEE7FAE10C940B1E69837A8358
:103500008B839C832D833E834F835887CE01019606
:10351000BE01675F7F4F0E94221DCE010596BE014E
:103520006F5E7F4F0E94221D9985923078F08989C5
:103530008230C0F0943019F4823041F4CBC0843032
:1035400019F4923079F4C6C0923051F481E02A85A2
:103550009A89291709F480E08A87CE010996BCC0B0
:10356000823051F481E02A859A89291709F480E094
:103570008A8BCE014196B0C06D847E848F849888FA
:10358000ED88FE880F89188DE0E2F0E080E090E0A1
:10359000DC01AA24BB24650120E030E0A901B301CD
:1035A0006170707061157105D1F02E0D3F1D401FC7
:1035B000511F15012601280E391E4A1E5B1E81E08F
:1035C00090E0A0E0B0E02E153F054007510718F04D
:1035D00080E090E0DC01820D931DA41DB51DAA0CB6
:1035E000BB1CCC1CDD1C17FF09C061E0262E312C52
:1035F000412C512CA228B328C428D528319749F052
:10360000EE0CFF1C001F111F96948794779467940B
:10361000C6CF6B897C89EB85FC856E0F7F1F6E5F43
:103620007F4F7C8F6B8F61E0EA857A89E71709F419
:1036300060E06A8F6B8D7C8D10C0FC01E170F070D2
:10364000309729F056954795379527955068B69548
:10365000A795979587956F5F7F4FB7FDEECF0CC00D
:10366000880F991FAA1FBB1F57FD8160220F331FB0
:10367000441F551F615070408030E0E09E07E0E03D
:10368000AE07E0E4BE0760F36B8F7C8F6FE7E62E3A
:10369000F12C012D112DE822F9220A231B2360E4CD
:1036A000E616F1040105110561F487FD0AC0211534
:1036B00031054105510529F0805C9F4FAF4FBF4F49
:1036C00080788D8F9E8FAF8FB8A383E0898FCE01D6
:1036D000499602C080E091E00E94541CA096E2E16D
:1036E0000C94271EA8E1B0E0E8E7FBE10C94171E5C
:1036F00069837A838B839C832D833E834F83588792
:103700008E01075F1F4FCE010196B8010E94221D56
:1037100081E1E82EF12CEC0EFD1ECE010596B701DD
:103720000E94221D8985823040F08989823028F0EC
:10373000C801B7010E948B1D01C08FEF6896E6E0BB
:103740000C94331EA8E1B0E0E8EAFBE10C94171EEC
:1037500069837A838B839C832D833E834F83588731
:103760008E01075F1F4FCE010196B8010E94221DF6
:1037700081E1E82EF12CEC0EFD1ECE010596B7017D
:103780000E94221D8985823040F08989823028F08C
:10379000C801B7010E948B1D01C08FEF6896E6E05B
:1037A0000C94331EA8E1B0E0E8EDFBE10C94171E89
:1037B00069837A838B839C832D833E834F835887D1
:1037C0008E01075F1F4FCE010196B8010E94221D96
:1037D00081E1E82EF12CEC0EFD1ECE010596B7011D
:1037E0000E94221D8985823040F08989823028F02C
:1037F000C801B7010E948B1D01C081E06896E6E018
:103800000C94331EACE0B0E0E8E0FCE10C941B1E2D
:1038100069837A838B839C83CE010196BE016B5FA3
:103820007F4F0E94221D8D81823081F1823070F1A4
:10383000843021F48E81882369F10AC02F81388574
:1038400037FD24C06E812F3131053CF0662311F124
:1038500020E030E040E050E821C08EE190E0821BA3
:10386000930B29853A854B855C8504C05695479511
:10387000379527958A95D2F7662381F05095409524
:10388000309521953F4F4F4F5F4F08C020E030E00B
:10389000A90104C02FEF3FEF4FEF5FE7B901CA0165
:1038A0002C96E2E00C94371EEF92FF920F931F9339
:1038B000CF93DF93FC01248135814681578161815B
:1038C0008081823020F44061EFEFF0E0A3C08430CB
:1038D00009F49BC0823009F492C0211531054105DD
:1038E000510509F48FC00280F381E02D8FEFE2389B
:1038F000F8070CF05AC0C2E8DFEFCE1BDF0BCA316D
:10390000D1056CF579018A010C2E04C01695079536
:10391000F794E7940A94D2F781E090E0A0E0B0E059
:103920000C2E04C0880F991FAA1FBB1F0A94D2F740
:103930000197A109B10982239323A423B52321E090
:1039400030E040E050E00097A105B10519F420E017
:1039500030E0A9012E293F29402B512B03C020E044
:1039600030E0A901DA01C9018F779070A070B070C2
:1039700080349105A105B10539F427FF09C0205C09
:103980003F4F4F4F5F4F04C0215C3F4F4F4F5F4F42
:10399000E1E0F0E0203080E0380780E0480780E494
:1039A000580728F5E0E0F0E022C0E038F1056CF5BA
:1039B000E158FF4FDA01C9018F779070A070B070A5
:1039C00080349105A105B10539F427FF09C0205CB9
:1039D0003F4F4F4F5F4F04C0215C3F4F4F4F5F4FF2
:1039E00057FF05C05695479537952795319687E03F
:1039F00056954795379527958A95D1F70BC0E0E006
:103A0000F0E005C0E0E0F0E005C0EFEFF0E020E01E
:103A100030E0A9018E2F879588278795942F9F776F
:103A2000679566276795E695E22EA92FA82BFE2FAE
:103A3000F62B622F732F8A2F9F2FCDB7DEB7E6E0CC
:103A40000C94331EDC01FB012C9111963C911197D3
:103A500012968C911297482F4F7750E0982F991F0C
:103A60009927991F13966C911397862F880F892B8E
:103A700090E0661F6627661F6183009739F5211560
:103A800031054105510511F482E029C082E89FEF1C
:103A90009383828367E0220F331F441F551F6A956B
:103AA000D1F783E0808309C0220F331F441F551FC5
:103AB00082819381019793838283203080E038074D
:103AC00080E0480780E4580778F320C08F3F9105D5
:103AD00079F4211531054105510519F484E08083FD
:103AE000089544FF03C081E0808310C010820EC09F
:103AF0008F5790409383828383E0808387E0220FF7
:103B0000331F441F551F8A95D1F750642483358392
:103B1000468357830895FC01DB019081923008F4BD
:103B200049C08C91823008F445C0943051F46181D1
:103B30008430B1F511962C91119730E0261B310994
:103B400041C0843021F0923041F48230B1F11196BD
:103B50008C9111978823A1F12DC06181823001F1F0
:103B600011968C9111976817D9F42281338112969E
:103B70008D919C9113978217930794F0281739071A
:103B8000BCF0248135814681578114968D919D9199
:103B90000D90BC91A02D82179307A407B50718F4C8
:103BA000662341F00DC0281739074A075B0728F440
:103BB000662331F021E030E005C020E030E002C0B3
:103BC0002FEF3FEFC9010895AA1BBB1B51E107C0AE
:103BD000AA1FBB1FA617B70710F0A61BB70B881F9D
:103BE000991F5A95A9F780959095BC01CD0108952C
:103BF00097FB092E07260AD077FD04D0E5DF06D013
:103C000000201AF4709561957F4F0895F6F790950E
:103C100081959F4F08952F923F924F925F926F929E
:103C20007F928F929F92AF92BF92CF92DF92EF924C
:103C3000FF920F931F93CF93DF93CDB7DEB7CA1BCD
:103C4000DB0B0FB6F894DEBF0FBECDBF09942A88F8
:103C5000398848885F846E847D848C849B84AA84A0
:103C6000B984C884DF80EE80FD800C811B81AA812D
:103C7000B981CE0FD11D0FB6F894DEBF0FBECDBFF8
:103C8000ED010895CF93DF938230910510F482E027
:103C900090E0E091D301F091D40140E050E020E0C9
:103CA00030E026C06081718168177907E0F06817FD
:103CB000790781F4828193812115310531F0D90191
:103CC00013969C938E9312972BC09093D40180935C
:103CD000D30126C04115510519F06417750718F472
:103CE000AB01E901DF019F0172816381E72FF62FAC
:103CF0003097C1F64115510501F1481B590B44306D
:103D0000510580F412968D919C911397209719F08C
:103D10009B838A8304C09093D4018093D301FD01D7
:103D2000329646C0FD01E40FF51F819391934250F6
:103D3000504011965C934E933BC02091D10130913D
:103D4000D2012115310541F420910A0130910B0176
:103D50003093D2012093D10120910C0130910D01BB
:103D60002115310541F42DB73EB74091080150911E
:103D70000901241B350BE091D101F091D201E2172A
:103D8000F307A0F42E1B3F0B2817390778F0AC017E
:103D90004E5F5F4F2417350748F04E0F5F1F50935B
:103DA000D2014093D1018193919302C0E0E0F0E011
:103DB000CF01DF91CF910895CF93DF93009709F45E
:103DC00091C0FC013297138212826091D3017091ED
:103DD000D4016115710581F420813181280F391FCB
:103DE0008091D1019091D2018217930799F5F093B8
:103DF000D201E093D10176C0DB0180E090E002C007
:103E0000CD01D901AE17BF0748F412962D913C9110
:103E1000139721153105A1F7CD0121C0B383A283EA
:103E2000EF01499159919E01240F351FA217B30745
:103E300079F42D913C911197240F351F2E5F3F4F40
:103E40003183208312962D913C91139733832283E3
:103E5000009729F4F093D401E093D30143C0DC012F
:103E60001396FC93EE9312974D915D91A40FB51F9D
:103E7000EA17FB0769F420813181240F351F2E5F7B
:103E80003F4FEC0139832883228133813B832A838E
:103E9000E0E0F0E002C0FB01BC01DB0112968D9175
:103EA0009C9113970097B9F79B012E5F3F4F8D911F
:103EB0009C911197820F931F4091D1015091D20193
:103EC0004817590779F4309729F41092D4011092C9
:103ED000D30102C013821282225030403093D201AB
:103EE0002093D101DF91CF910895FB01DC0102C045
:103EF00001900D9241505040D8F70895F894FFCFAB
:0E3F000000000000000000002000D5010000BD
:00000001FF
